{
	"KYC.sol": {
		"KYC": {
			"abi": [
				{
					"inputs": [
						{
							"internalType": "address",
							"name": "_admin",
							"type": "address"
						}
					],
					"stateMutability": "nonpayable",
					"type": "constructor"
				},
				{
					"inputs": [
						{
							"internalType": "string",
							"name": "_bankName",
							"type": "string"
						},
						{
							"internalType": "address",
							"name": "_bankAddr",
							"type": "address"
						}
					],
					"name": "addNewBank",
					"outputs": [],
					"stateMutability": "nonpayable",
					"type": "function"
				},
				{
					"inputs": [
						{
							"internalType": "string",
							"name": "_custName",
							"type": "string"
						}
					],
					"name": "addNewCustomerRequestForKYC",
					"outputs": [],
					"stateMutability": "nonpayable",
					"type": "function"
				},
				{
					"inputs": [
						{
							"internalType": "string",
							"name": "_custName",
							"type": "string"
						},
						{
							"internalType": "string",
							"name": "_custData",
							"type": "string"
						}
					],
					"name": "addNewCustomerToBank",
					"outputs": [],
					"stateMutability": "nonpayable",
					"type": "function"
				},
				{
					"inputs": [],
					"name": "admin",
					"outputs": [
						{
							"internalType": "address",
							"name": "",
							"type": "address"
						}
					],
					"stateMutability": "view",
					"type": "function"
				},
				{
					"inputs": [
						{
							"internalType": "address",
							"name": "_bankAddr",
							"type": "address"
						}
					],
					"name": "allowBankFromAddingNewCustomers",
					"outputs": [],
					"stateMutability": "nonpayable",
					"type": "function"
				},
				{
					"inputs": [
						{
							"internalType": "address",
							"name": "_bankAddr",
							"type": "address"
						}
					],
					"name": "allowBankFromKYC",
					"outputs": [],
					"stateMutability": "nonpayable",
					"type": "function"
				},
				{
					"inputs": [
						{
							"internalType": "address",
							"name": "",
							"type": "address"
						}
					],
					"name": "banks",
					"outputs": [
						{
							"internalType": "string",
							"name": "",
							"type": "string"
						}
					],
					"stateMutability": "view",
					"type": "function"
				},
				{
					"inputs": [
						{
							"internalType": "address",
							"name": "_bankAddr",
							"type": "address"
						}
					],
					"name": "blockBankFromAddingNewCustomers",
					"outputs": [],
					"stateMutability": "nonpayable",
					"type": "function"
				},
				{
					"inputs": [
						{
							"internalType": "address",
							"name": "_bankAddr",
							"type": "address"
						}
					],
					"name": "blockBankFromKYC",
					"outputs": [],
					"stateMutability": "nonpayable",
					"type": "function"
				},
				{
					"inputs": [
						{
							"internalType": "address",
							"name": "",
							"type": "address"
						}
					],
					"name": "isBankBlockedFromAddingCustomer",
					"outputs": [
						{
							"internalType": "bool",
							"name": "",
							"type": "bool"
						}
					],
					"stateMutability": "view",
					"type": "function"
				},
				{
					"inputs": [
						{
							"internalType": "address",
							"name": "",
							"type": "address"
						}
					],
					"name": "isBankBlockedFromKYC",
					"outputs": [
						{
							"internalType": "bool",
							"name": "",
							"type": "bool"
						}
					],
					"stateMutability": "view",
					"type": "function"
				},
				{
					"inputs": [
						{
							"internalType": "string",
							"name": "_custName",
							"type": "string"
						}
					],
					"name": "viewCustomerData",
					"outputs": [
						{
							"internalType": "string",
							"name": "",
							"type": "string"
						},
						{
							"internalType": "bool",
							"name": "",
							"type": "bool"
						}
					],
					"stateMutability": "view",
					"type": "function"
				}
			],
			"devdoc": {
				"kind": "dev",
				"methods": {
					"constructor": {
						"details": "Constructor for KYC contract",
						"params": {
							"_admin": "address of the KYC contract"
						}
					}
				},
				"version": 1
			},
			"evm": {
				"assembly": "    /* \"KYC.sol\":58:3314  contract KYC {... */\n  mstore(0x40, 0x80)\n    /* \"KYC.sol\":207:267  constructor(address _admin)... */\n  callvalue\n  dup1\n  iszero\n  tag_1\n  jumpi\n  0x00\n  dup1\n  revert\ntag_1:\n  pop\n  mload(0x40)\n  sub(codesize, bytecodeSize)\n  dup1\n  bytecodeSize\n  dup4\n  codecopy\n  dup2\n  dup2\n  add\n  0x40\n  mstore\n  dup2\n  add\n  swap1\n  tag_2\n  swap2\n  swap1\n  tag_3\n  jump\t// in\ntag_2:\n    /* \"KYC.sol\":255:261  _admin */\n  dup1\n    /* \"KYC.sol\":247:252  admin */\n  0x00\n  dup1\n    /* \"KYC.sol\":247:261  admin = _admin */\n  0x0100\n  exp\n  dup2\n  sload\n  dup2\n  0xffffffffffffffffffffffffffffffffffffffff\n  mul\n  not\n  and\n  swap1\n  dup4\n  0xffffffffffffffffffffffffffffffffffffffff\n  and\n  mul\n  or\n  swap1\n  sstore\n  pop\n    /* \"KYC.sol\":207:267  constructor(address _admin)... */\n  pop\n    /* \"KYC.sol\":58:3314  contract KYC {... */\n  jump(tag_6)\n    /* \"#utility.yul\":88:205   */\ntag_8:\n    /* \"#utility.yul\":197:198   */\n  0x00\n    /* \"#utility.yul\":194:195   */\n  dup1\n    /* \"#utility.yul\":187:199   */\n  revert\n    /* \"#utility.yul\":334:460   */\ntag_10:\n    /* \"#utility.yul\":371:378   */\n  0x00\n    /* \"#utility.yul\":411:453   */\n  0xffffffffffffffffffffffffffffffffffffffff\n    /* \"#utility.yul\":404:409   */\n  dup3\n    /* \"#utility.yul\":400:454   */\n  and\n    /* \"#utility.yul\":389:454   */\n  swap1\n  pop\n    /* \"#utility.yul\":334:460   */\n  swap2\n  swap1\n  pop\n  jump\t// out\n    /* \"#utility.yul\":466:562   */\ntag_11:\n    /* \"#utility.yul\":503:510   */\n  0x00\n    /* \"#utility.yul\":532:556   */\n  tag_20\n    /* \"#utility.yul\":550:555   */\n  dup3\n    /* \"#utility.yul\":532:556   */\n  tag_10\n  jump\t// in\ntag_20:\n    /* \"#utility.yul\":521:556   */\n  swap1\n  pop\n    /* \"#utility.yul\":466:562   */\n  swap2\n  swap1\n  pop\n  jump\t// out\n    /* \"#utility.yul\":568:690   */\ntag_12:\n    /* \"#utility.yul\":641:665   */\n  tag_22\n    /* \"#utility.yul\":659:664   */\n  dup2\n    /* \"#utility.yul\":641:665   */\n  tag_11\n  jump\t// in\ntag_22:\n    /* \"#utility.yul\":634:639   */\n  dup2\n    /* \"#utility.yul\":631:666   */\n  eq\n    /* \"#utility.yul\":621:684   */\n  tag_23\n  jumpi\n    /* \"#utility.yul\":680:681   */\n  0x00\n    /* \"#utility.yul\":677:678   */\n  dup1\n    /* \"#utility.yul\":670:682   */\n  revert\n    /* \"#utility.yul\":621:684   */\ntag_23:\n    /* \"#utility.yul\":568:690   */\n  pop\n  jump\t// out\n    /* \"#utility.yul\":696:839   */\ntag_13:\n    /* \"#utility.yul\":753:758   */\n  0x00\n    /* \"#utility.yul\":784:790   */\n  dup2\n    /* \"#utility.yul\":778:791   */\n  mload\n    /* \"#utility.yul\":769:791   */\n  swap1\n  pop\n    /* \"#utility.yul\":800:833   */\n  tag_25\n    /* \"#utility.yul\":827:832   */\n  dup2\n    /* \"#utility.yul\":800:833   */\n  tag_12\n  jump\t// in\ntag_25:\n    /* \"#utility.yul\":696:839   */\n  swap3\n  swap2\n  pop\n  pop\n  jump\t// out\n    /* \"#utility.yul\":845:1196   */\ntag_3:\n    /* \"#utility.yul\":915:921   */\n  0x00\n    /* \"#utility.yul\":964:966   */\n  0x20\n    /* \"#utility.yul\":952:961   */\n  dup3\n    /* \"#utility.yul\":943:950   */\n  dup5\n    /* \"#utility.yul\":939:962   */\n  sub\n    /* \"#utility.yul\":935:967   */\n  slt\n    /* \"#utility.yul\":932:1051   */\n  iszero\n  tag_27\n  jumpi\n    /* \"#utility.yul\":970:1049   */\n  tag_28\n  tag_8\n  jump\t// in\ntag_28:\n    /* \"#utility.yul\":932:1051   */\ntag_27:\n    /* \"#utility.yul\":1090:1091   */\n  0x00\n    /* \"#utility.yul\":1115:1179   */\n  tag_29\n    /* \"#utility.yul\":1171:1178   */\n  dup5\n    /* \"#utility.yul\":1162:1168   */\n  dup3\n    /* \"#utility.yul\":1151:1160   */\n  dup6\n    /* \"#utility.yul\":1147:1169   */\n  add\n    /* \"#utility.yul\":1115:1179   */\n  tag_13\n  jump\t// in\ntag_29:\n    /* \"#utility.yul\":1105:1179   */\n  swap2\n  pop\n    /* \"#utility.yul\":1061:1189   */\n  pop\n    /* \"#utility.yul\":845:1196   */\n  swap3\n  swap2\n  pop\n  pop\n  jump\t// out\n    /* \"KYC.sol\":58:3314  contract KYC {... */\ntag_6:\n  dataSize(sub_0)\n  dup1\n  dataOffset(sub_0)\n  0x00\n  codecopy\n  0x00\n  return\nstop\n\nsub_0: assembly {\n        /* \"KYC.sol\":58:3314  contract KYC {... */\n      mstore(0x40, 0x80)\n      callvalue\n      dup1\n      iszero\n      tag_1\n      jumpi\n      0x00\n      dup1\n      revert\n    tag_1:\n      pop\n      jumpi(tag_2, lt(calldatasize, 0x04))\n      shr(0xe0, calldataload(0x00))\n      dup1\n      0x80c3b8c2\n      gt\n      tag_15\n      jumpi\n      dup1\n      0x80c3b8c2\n      eq\n      tag_9\n      jumpi\n      dup1\n      0x9de31c97\n      eq\n      tag_10\n      jumpi\n      dup1\n      0xa1b72d1d\n      eq\n      tag_11\n      jumpi\n      dup1\n      0xad23d42c\n      eq\n      tag_12\n      jumpi\n      dup1\n      0xf0b0b930\n      eq\n      tag_13\n      jumpi\n      dup1\n      0xf851a440\n      eq\n      tag_14\n      jumpi\n      jump(tag_2)\n    tag_15:\n      dup1\n      0x2114e478\n      eq\n      tag_3\n      jumpi\n      dup1\n      0x284d250a\n      eq\n      tag_4\n      jumpi\n      dup1\n      0x2a5e3bb0\n      eq\n      tag_5\n      jumpi\n      dup1\n      0x4a6c2f61\n      eq\n      tag_6\n      jumpi\n      dup1\n      0x59cc3187\n      eq\n      tag_7\n      jumpi\n      dup1\n      0x706312cf\n      eq\n      tag_8\n      jumpi\n    tag_2:\n      0x00\n      dup1\n      revert\n        /* \"KYC.sol\":2778:3145  function addNewCustomerRequestForKYC(string memory _custName) public onlyBank {... */\n    tag_3:\n      tag_16\n      0x04\n      dup1\n      calldatasize\n      sub\n      dup2\n      add\n      swap1\n      tag_17\n      swap2\n      swap1\n      tag_18\n      jump\t// in\n    tag_17:\n      tag_19\n      jump\t// in\n    tag_16:\n      stop\n        /* \"KYC.sol\":2383:2772  function addNewCustomerToBank(string memory _custName, string memory _custData)... */\n    tag_4:\n      tag_20\n      0x04\n      dup1\n      calldatasize\n      sub\n      dup2\n      add\n      swap1\n      tag_21\n      swap2\n      swap1\n      tag_22\n      jump\t// in\n    tag_21:\n      tag_23\n      jump\t// in\n    tag_20:\n      stop\n        /* \"KYC.sol\":1233:1502  function allowBankFromKYC(address _bankAddr) public onlyAdmin {... */\n    tag_5:\n      tag_24\n      0x04\n      dup1\n      calldatasize\n      sub\n      dup2\n      add\n      swap1\n      tag_25\n      swap2\n      swap1\n      tag_26\n      jump\t// in\n    tag_25:\n      tag_27\n      jump\t// in\n    tag_24:\n      stop\n        /* \"KYC.sol\":3151:3309  function viewCustomerData(string memory _custName) public view returns(string memory, bool) {... */\n    tag_6:\n      tag_28\n      0x04\n      dup1\n      calldatasize\n      sub\n      dup2\n      add\n      swap1\n      tag_29\n      swap2\n      swap1\n      tag_18\n      jump\t// in\n    tag_29:\n      tag_30\n      jump\t// in\n    tag_28:\n      mload(0x40)\n      tag_31\n      swap3\n      swap2\n      swap1\n      tag_32\n      jump\t// in\n    tag_31:\n      mload(0x40)\n      dup1\n      swap2\n      sub\n      swap1\n      return\n        /* \"KYC.sol\":414:478  mapping (address => bool) public isBankBlockedFromAddingCustomer */\n    tag_7:\n      tag_33\n      0x04\n      dup1\n      calldatasize\n      sub\n      dup2\n      add\n      swap1\n      tag_34\n      swap2\n      swap1\n      tag_26\n      jump\t// in\n    tag_34:\n      tag_35\n      jump\t// in\n    tag_33:\n      mload(0x40)\n      tag_36\n      swap2\n      swap1\n      tag_37\n      jump\t// in\n    tag_36:\n      mload(0x40)\n      dup1\n      swap2\n      sub\n      swap1\n      return\n        /* \"KYC.sol\":893:1227  function addNewBank(string memory _bankName, address _bankAddr) public onlyAdmin {... */\n    tag_8:\n      tag_38\n      0x04\n      dup1\n      calldatasize\n      sub\n      dup2\n      add\n      swap1\n      tag_39\n      swap2\n      swap1\n      tag_40\n      jump\t// in\n    tag_39:\n      tag_41\n      jump\t// in\n    tag_38:\n      stop\n        /* \"KYC.sol\":273:313  mapping (address => string) public banks */\n    tag_9:\n      tag_42\n      0x04\n      dup1\n      calldatasize\n      sub\n      dup2\n      add\n      swap1\n      tag_43\n      swap2\n      swap1\n      tag_26\n      jump\t// in\n    tag_43:\n      tag_44\n      jump\t// in\n    tag_42:\n      mload(0x40)\n      tag_45\n      swap2\n      swap1\n      tag_46\n      jump\t// in\n    tag_45:\n      mload(0x40)\n      dup1\n      swap2\n      sub\n      swap1\n      return\n        /* \"KYC.sol\":1508:1776  function blockBankFromKYC(address _bankAddr) public onlyAdmin {... */\n    tag_10:\n      tag_47\n      0x04\n      dup1\n      calldatasize\n      sub\n      dup2\n      add\n      swap1\n      tag_48\n      swap2\n      swap1\n      tag_26\n      jump\t// in\n    tag_48:\n      tag_49\n      jump\t// in\n    tag_47:\n      stop\n        /* \"KYC.sol\":1782:2077  function allowBankFromAddingNewCustomers(address _bankAddr) public onlyAdmin {... */\n    tag_11:\n      tag_50\n      0x04\n      dup1\n      calldatasize\n      sub\n      dup2\n      add\n      swap1\n      tag_51\n      swap2\n      swap1\n      tag_26\n      jump\t// in\n    tag_51:\n      tag_52\n      jump\t// in\n    tag_50:\n      stop\n        /* \"KYC.sol\":2083:2377  function blockBankFromAddingNewCustomers(address _bankAddr) public onlyAdmin {... */\n    tag_12:\n      tag_53\n      0x04\n      dup1\n      calldatasize\n      sub\n      dup2\n      add\n      swap1\n      tag_54\n      swap2\n      swap1\n      tag_26\n      jump\t// in\n    tag_54:\n      tag_55\n      jump\t// in\n    tag_53:\n      stop\n        /* \"KYC.sol\":483:536  mapping (address => bool) public isBankBlockedFromKYC */\n    tag_13:\n      tag_56\n      0x04\n      dup1\n      calldatasize\n      sub\n      dup2\n      add\n      swap1\n      tag_57\n      swap2\n      swap1\n      tag_26\n      jump\t// in\n    tag_57:\n      tag_58\n      jump\t// in\n    tag_56:\n      mload(0x40)\n      tag_59\n      swap2\n      swap1\n      tag_37\n      jump\t// in\n    tag_59:\n      mload(0x40)\n      dup1\n      swap2\n      sub\n      swap1\n      return\n        /* \"KYC.sol\":78:98  address public admin */\n    tag_14:\n      tag_60\n      tag_61\n      jump\t// in\n    tag_60:\n      mload(0x40)\n      tag_62\n      swap2\n      swap1\n      tag_63\n      jump\t// in\n    tag_62:\n      mload(0x40)\n      dup1\n      swap2\n      sub\n      swap1\n      return\n        /* \"KYC.sol\":2778:3145  function addNewCustomerRequestForKYC(string memory _custName) public onlyBank {... */\n    tag_19:\n        /* \"KYC.sol\":849:850  0 */\n      0x00\n        /* \"KYC.sol\":821:826  banks */\n      0x01\n        /* \"KYC.sol\":821:838  banks[msg.sender] */\n      0x00\n        /* \"KYC.sol\":827:837  msg.sender */\n      caller\n        /* \"KYC.sol\":821:838  banks[msg.sender] */\n      0xffffffffffffffffffffffffffffffffffffffff\n      and\n      0xffffffffffffffffffffffffffffffffffffffff\n      and\n      dup2\n      mstore\n      0x20\n      add\n      swap1\n      dup2\n      mstore\n      0x20\n      add\n      0x00\n      keccak256\n        /* \"KYC.sol\":815:846  bytes(banks[msg.sender]).length */\n      dup1\n      sload\n      tag_65\n      swap1\n      tag_66\n      jump\t// in\n    tag_65:\n      swap1\n      pop\n        /* \"KYC.sol\":815:850  bytes(banks[msg.sender]).length > 0 */\n      gt\n        /* \"KYC.sol\":807:869  require(bytes(banks[msg.sender]).length > 0, \"KYC: Only Bank\") */\n      tag_67\n      jumpi\n      mload(0x40)\n      0x08c379a000000000000000000000000000000000000000000000000000000000\n      dup2\n      mstore\n      0x04\n      add\n      tag_68\n      swap1\n      tag_69\n      jump\t// in\n    tag_68:\n      mload(0x40)\n      dup1\n      swap2\n      sub\n      swap1\n      revert\n    tag_67:\n        /* \"KYC.sol\":2899:2900  0 */\n      0x00\n        /* \"KYC.sol\":2879:2888  _custName */\n      dup2\n        /* \"KYC.sol\":2873:2896  bytes(_custName).length */\n      mload\n        /* \"KYC.sol\":2873:2900  bytes(_custName).length > 0 */\n      gt\n        /* \"KYC.sol\":2865:2927  require(bytes(_custName).length > 0, \"Invalid Customer Name.\") */\n      tag_71\n      jumpi\n      mload(0x40)\n      0x08c379a000000000000000000000000000000000000000000000000000000000\n      dup2\n      mstore\n      0x04\n      add\n      tag_72\n      swap1\n      tag_73\n      jump\t// in\n    tag_72:\n      mload(0x40)\n      dup1\n      swap2\n      sub\n      swap1\n      revert\n    tag_71:\n        /* \"KYC.sol\":2945:2965  isBankBlockedFromKYC */\n      0x05\n        /* \"KYC.sol\":2945:2977  isBankBlockedFromKYC[msg.sender] */\n      0x00\n        /* \"KYC.sol\":2966:2976  msg.sender */\n      caller\n        /* \"KYC.sol\":2945:2977  isBankBlockedFromKYC[msg.sender] */\n      0xffffffffffffffffffffffffffffffffffffffff\n      and\n      0xffffffffffffffffffffffffffffffffffffffff\n      and\n      dup2\n      mstore\n      0x20\n      add\n      swap1\n      dup2\n      mstore\n      0x20\n      add\n      0x00\n      keccak256\n      0x00\n      swap1\n      sload\n      swap1\n      0x0100\n      exp\n      swap1\n      div\n      0xff\n      and\n        /* \"KYC.sol\":2944:2977  !isBankBlockedFromKYC[msg.sender] */\n      iszero\n        /* \"KYC.sol\":2936:3015  require(!isBankBlockedFromKYC[msg.sender], \"Bank blocked from performing KYC.\") */\n      tag_74\n      jumpi\n      mload(0x40)\n      0x08c379a000000000000000000000000000000000000000000000000000000000\n      dup2\n      mstore\n      0x04\n      add\n      tag_75\n      swap1\n      tag_76\n      jump\t// in\n    tag_75:\n      mload(0x40)\n      dup1\n      swap2\n      sub\n      swap1\n      revert\n    tag_74:\n        /* \"KYC.sol\":3067:3068  0 */\n      0x00\n        /* \"KYC.sol\":3038:3047  customers */\n      0x02\n        /* \"KYC.sol\":3048:3057  _custName */\n      dup3\n        /* \"KYC.sol\":3038:3058  customers[_custName] */\n      mload(0x40)\n      tag_77\n      swap2\n      swap1\n      tag_78\n      jump\t// in\n    tag_77:\n      swap1\n      dup2\n      mstore\n      0x20\n      add\n      mload(0x40)\n      dup1\n      swap2\n      sub\n      swap1\n      keccak256\n        /* \"KYC.sol\":3032:3066  bytes(customers[_custName]).length */\n      dup1\n      sload\n      tag_79\n      swap1\n      tag_66\n      jump\t// in\n    tag_79:\n      swap1\n      pop\n        /* \"KYC.sol\":3032:3068  bytes(customers[_custName]).length>0 */\n      gt\n        /* \"KYC.sol\":3024:3103  require(bytes(customers[_custName]).length>0,\"Customer Details Not Registered\") */\n      tag_80\n      jumpi\n      mload(0x40)\n      0x08c379a000000000000000000000000000000000000000000000000000000000\n      dup2\n      mstore\n      0x04\n      add\n      tag_81\n      swap1\n      tag_82\n      jump\t// in\n    tag_81:\n      mload(0x40)\n      dup1\n      swap2\n      sub\n      swap1\n      revert\n    tag_80:\n        /* \"KYC.sol\":3135:3139  true */\n      0x01\n        /* \"KYC.sol\":3112:3121  isKYCDone */\n      0x03\n        /* \"KYC.sol\":3122:3131  _custName */\n      dup3\n        /* \"KYC.sol\":3112:3132  isKYCDone[_custName] */\n      mload(0x40)\n      tag_83\n      swap2\n      swap1\n      tag_78\n      jump\t// in\n    tag_83:\n      swap1\n      dup2\n      mstore\n      0x20\n      add\n      mload(0x40)\n      dup1\n      swap2\n      sub\n      swap1\n      keccak256\n      0x00\n        /* \"KYC.sol\":3112:3139  isKYCDone[_custName] = true */\n      0x0100\n      exp\n      dup2\n      sload\n      dup2\n      0xff\n      mul\n      not\n      and\n      swap1\n      dup4\n      iszero\n      iszero\n      mul\n      or\n      swap1\n      sstore\n      pop\n        /* \"KYC.sol\":2778:3145  function addNewCustomerRequestForKYC(string memory _custName) public onlyBank {... */\n      pop\n      jump\t// out\n        /* \"KYC.sol\":2383:2772  function addNewCustomerToBank(string memory _custName, string memory _custData)... */\n    tag_23:\n        /* \"KYC.sol\":849:850  0 */\n      0x00\n        /* \"KYC.sol\":821:826  banks */\n      0x01\n        /* \"KYC.sol\":821:838  banks[msg.sender] */\n      0x00\n        /* \"KYC.sol\":827:837  msg.sender */\n      caller\n        /* \"KYC.sol\":821:838  banks[msg.sender] */\n      0xffffffffffffffffffffffffffffffffffffffff\n      and\n      0xffffffffffffffffffffffffffffffffffffffff\n      and\n      dup2\n      mstore\n      0x20\n      add\n      swap1\n      dup2\n      mstore\n      0x20\n      add\n      0x00\n      keccak256\n        /* \"KYC.sol\":815:846  bytes(banks[msg.sender]).length */\n      dup1\n      sload\n      tag_85\n      swap1\n      tag_66\n      jump\t// in\n    tag_85:\n      swap1\n      pop\n        /* \"KYC.sol\":815:850  bytes(banks[msg.sender]).length > 0 */\n      gt\n        /* \"KYC.sol\":807:869  require(bytes(banks[msg.sender]).length > 0, \"KYC: Only Bank\") */\n      tag_86\n      jumpi\n      mload(0x40)\n      0x08c379a000000000000000000000000000000000000000000000000000000000\n      dup2\n      mstore\n      0x04\n      add\n      tag_87\n      swap1\n      tag_69\n      jump\t// in\n    tag_87:\n      mload(0x40)\n      dup1\n      swap2\n      sub\n      swap1\n      revert\n    tag_86:\n        /* \"KYC.sol\":2525:2526  0 */\n      0x00\n        /* \"KYC.sol\":2505:2514  _custName */\n      dup3\n        /* \"KYC.sol\":2499:2522  bytes(_custName).length */\n      mload\n        /* \"KYC.sol\":2499:2526  bytes(_custName).length > 0 */\n      gt\n        /* \"KYC.sol\":2491:2553  require(bytes(_custName).length > 0, \"Invalid Customer Name.\") */\n      tag_89\n      jumpi\n      mload(0x40)\n      0x08c379a000000000000000000000000000000000000000000000000000000000\n      dup2\n      mstore\n      0x04\n      add\n      tag_90\n      swap1\n      tag_73\n      jump\t// in\n    tag_90:\n      mload(0x40)\n      dup1\n      swap2\n      sub\n      swap1\n      revert\n    tag_89:\n        /* \"KYC.sol\":2596:2597  0 */\n      0x00\n        /* \"KYC.sol\":2576:2585  _custData */\n      dup2\n        /* \"KYC.sol\":2570:2593  bytes(_custData).length */\n      mload\n        /* \"KYC.sol\":2570:2597  bytes(_custData).length > 0 */\n      gt\n        /* \"KYC.sol\":2562:2624  require(bytes(_custData).length > 0, \"Invalid Customer Data.\") */\n      tag_91\n      jumpi\n      mload(0x40)\n      0x08c379a000000000000000000000000000000000000000000000000000000000\n      dup2\n      mstore\n      0x04\n      add\n      tag_92\n      swap1\n      tag_93\n      jump\t// in\n    tag_92:\n      mload(0x40)\n      dup1\n      swap2\n      sub\n      swap1\n      revert\n    tag_91:\n        /* \"KYC.sol\":2642:2673  isBankBlockedFromAddingCustomer */\n      0x04\n        /* \"KYC.sol\":2642:2685  isBankBlockedFromAddingCustomer[msg.sender] */\n      0x00\n        /* \"KYC.sol\":2674:2684  msg.sender */\n      caller\n        /* \"KYC.sol\":2642:2685  isBankBlockedFromAddingCustomer[msg.sender] */\n      0xffffffffffffffffffffffffffffffffffffffff\n      and\n      0xffffffffffffffffffffffffffffffffffffffff\n      and\n      dup2\n      mstore\n      0x20\n      add\n      swap1\n      dup2\n      mstore\n      0x20\n      add\n      0x00\n      keccak256\n      0x00\n      swap1\n      sload\n      swap1\n      0x0100\n      exp\n      swap1\n      div\n      0xff\n      and\n        /* \"KYC.sol\":2641:2685  !isBankBlockedFromAddingCustomer[msg.sender] */\n      iszero\n        /* \"KYC.sol\":2633:2725  require(!isBankBlockedFromAddingCustomer[msg.sender], \"Bank blocked from adding customers.\") */\n      tag_94\n      jumpi\n      mload(0x40)\n      0x08c379a000000000000000000000000000000000000000000000000000000000\n      dup2\n      mstore\n      0x04\n      add\n      tag_95\n      swap1\n      tag_96\n      jump\t// in\n    tag_95:\n      mload(0x40)\n      dup1\n      swap2\n      sub\n      swap1\n      revert\n    tag_94:\n        /* \"KYC.sol\":2757:2766  _custData */\n      dup1\n        /* \"KYC.sol\":2734:2743  customers */\n      0x02\n        /* \"KYC.sol\":2744:2753  _custName */\n      dup4\n        /* \"KYC.sol\":2734:2754  customers[_custName] */\n      mload(0x40)\n      tag_97\n      swap2\n      swap1\n      tag_78\n      jump\t// in\n    tag_97:\n      swap1\n      dup2\n      mstore\n      0x20\n      add\n      mload(0x40)\n      dup1\n      swap2\n      sub\n      swap1\n      keccak256\n        /* \"KYC.sol\":2734:2766  customers[_custName] = _custData */\n      swap1\n      dup2\n      tag_98\n      swap2\n      swap1\n      tag_99\n      jump\t// in\n    tag_98:\n      pop\n        /* \"KYC.sol\":2383:2772  function addNewCustomerToBank(string memory _custName, string memory _custData)... */\n      pop\n      pop\n      jump\t// out\n        /* \"KYC.sol\":1233:1502  function allowBankFromKYC(address _bankAddr) public onlyAdmin {... */\n    tag_27:\n        /* \"KYC.sol\":731:736  admin */\n      0x00\n      dup1\n      sload\n      swap1\n      0x0100\n      exp\n      swap1\n      div\n      0xffffffffffffffffffffffffffffffffffffffff\n      and\n        /* \"KYC.sol\":717:736  msg.sender == admin */\n      0xffffffffffffffffffffffffffffffffffffffff\n      and\n        /* \"KYC.sol\":717:727  msg.sender */\n      caller\n        /* \"KYC.sol\":717:736  msg.sender == admin */\n      0xffffffffffffffffffffffffffffffffffffffff\n      and\n      eq\n        /* \"KYC.sol\":709:756  require(msg.sender == admin, \"KYC: Only Admin\") */\n      tag_101\n      jumpi\n      mload(0x40)\n      0x08c379a000000000000000000000000000000000000000000000000000000000\n      dup2\n      mstore\n      0x04\n      add\n      tag_102\n      swap1\n      tag_103\n      jump\t// in\n    tag_102:\n      mload(0x40)\n      dup1\n      swap2\n      sub\n      swap1\n      revert\n    tag_101:\n        /* \"KYC.sol\":1333:1334  0 */\n      0x00\n        /* \"KYC.sol\":1312:1335  _bankAddr != address(0) */\n      0xffffffffffffffffffffffffffffffffffffffff\n      and\n        /* \"KYC.sol\":1312:1321  _bankAddr */\n      dup2\n        /* \"KYC.sol\":1312:1335  _bankAddr != address(0) */\n      0xffffffffffffffffffffffffffffffffffffffff\n      and\n      sub\n        /* \"KYC.sol\":1304:1361  require(_bankAddr != address(0), \"Invalid Bank Address.\") */\n      tag_105\n      jumpi\n      mload(0x40)\n      0x08c379a000000000000000000000000000000000000000000000000000000000\n      dup2\n      mstore\n      0x04\n      add\n      tag_106\n      swap1\n      tag_107\n      jump\t// in\n    tag_106:\n      mload(0x40)\n      dup1\n      swap2\n      sub\n      swap1\n      revert\n    tag_105:\n        /* \"KYC.sol\":1411:1412  0 */\n      0x00\n        /* \"KYC.sol\":1384:1389  banks */\n      0x01\n        /* \"KYC.sol\":1384:1400  banks[_bankAddr] */\n      0x00\n        /* \"KYC.sol\":1390:1399  _bankAddr */\n      dup4\n        /* \"KYC.sol\":1384:1400  banks[_bankAddr] */\n      0xffffffffffffffffffffffffffffffffffffffff\n      and\n      0xffffffffffffffffffffffffffffffffffffffff\n      and\n      dup2\n      mstore\n      0x20\n      add\n      swap1\n      dup2\n      mstore\n      0x20\n      add\n      0x00\n      keccak256\n        /* \"KYC.sol\":1378:1408  bytes(banks[_bankAddr]).length */\n      dup1\n      sload\n      tag_108\n      swap1\n      tag_66\n      jump\t// in\n    tag_108:\n      swap1\n      pop\n        /* \"KYC.sol\":1378:1412  bytes(banks[_bankAddr]).length > 0 */\n      gt\n        /* \"KYC.sol\":1370:1448  require(bytes(banks[_bankAddr]).length > 0, \"Address not registered as bank.\") */\n      tag_109\n      jumpi\n      mload(0x40)\n      0x08c379a000000000000000000000000000000000000000000000000000000000\n      dup2\n      mstore\n      0x04\n      add\n      tag_110\n      swap1\n      tag_111\n      jump\t// in\n    tag_110:\n      mload(0x40)\n      dup1\n      swap2\n      sub\n      swap1\n      revert\n    tag_109:\n        /* \"KYC.sol\":1491:1496  false */\n      0x00\n        /* \"KYC.sol\":1457:1477  isBankBlockedFromKYC */\n      0x05\n        /* \"KYC.sol\":1457:1488  isBankBlockedFromKYC[_bankAddr] */\n      0x00\n        /* \"KYC.sol\":1478:1487  _bankAddr */\n      dup4\n        /* \"KYC.sol\":1457:1488  isBankBlockedFromKYC[_bankAddr] */\n      0xffffffffffffffffffffffffffffffffffffffff\n      and\n      0xffffffffffffffffffffffffffffffffffffffff\n      and\n      dup2\n      mstore\n      0x20\n      add\n      swap1\n      dup2\n      mstore\n      0x20\n      add\n      0x00\n      keccak256\n      0x00\n        /* \"KYC.sol\":1457:1496  isBankBlockedFromKYC[_bankAddr] = false */\n      0x0100\n      exp\n      dup2\n      sload\n      dup2\n      0xff\n      mul\n      not\n      and\n      swap1\n      dup4\n      iszero\n      iszero\n      mul\n      or\n      swap1\n      sstore\n      pop\n        /* \"KYC.sol\":1233:1502  function allowBankFromKYC(address _bankAddr) public onlyAdmin {... */\n      pop\n      jump\t// out\n        /* \"KYC.sol\":3151:3309  function viewCustomerData(string memory _custName) public view returns(string memory, bool) {... */\n    tag_30:\n        /* \"KYC.sol\":3222:3235  string memory */\n      0x60\n        /* \"KYC.sol\":3237:3241  bool */\n      0x00\n        /* \"KYC.sol\":3260:3269  customers */\n      0x02\n        /* \"KYC.sol\":3270:3279  _custName */\n      dup4\n        /* \"KYC.sol\":3260:3280  customers[_custName] */\n      mload(0x40)\n      tag_113\n      swap2\n      swap1\n      tag_78\n      jump\t// in\n    tag_113:\n      swap1\n      dup2\n      mstore\n      0x20\n      add\n      mload(0x40)\n      dup1\n      swap2\n      sub\n      swap1\n      keccak256\n        /* \"KYC.sol\":3282:3291  isKYCDone */\n      0x03\n        /* \"KYC.sol\":3292:3301  _custName */\n      dup5\n        /* \"KYC.sol\":3282:3302  isKYCDone[_custName] */\n      mload(0x40)\n      tag_114\n      swap2\n      swap1\n      tag_78\n      jump\t// in\n    tag_114:\n      swap1\n      dup2\n      mstore\n      0x20\n      add\n      mload(0x40)\n      dup1\n      swap2\n      sub\n      swap1\n      keccak256\n      0x00\n      swap1\n      sload\n      swap1\n      0x0100\n      exp\n      swap1\n      div\n      0xff\n      and\n        /* \"KYC.sol\":3252:3303  return (customers[_custName], isKYCDone[_custName]) */\n      dup2\n      dup1\n      sload\n      tag_115\n      swap1\n      tag_66\n      jump\t// in\n    tag_115:\n      dup1\n      0x1f\n      add\n      0x20\n      dup1\n      swap2\n      div\n      mul\n      0x20\n      add\n      mload(0x40)\n      swap1\n      dup2\n      add\n      0x40\n      mstore\n      dup1\n      swap3\n      swap2\n      swap1\n      dup2\n      dup2\n      mstore\n      0x20\n      add\n      dup3\n      dup1\n      sload\n      tag_116\n      swap1\n      tag_66\n      jump\t// in\n    tag_116:\n      dup1\n      iszero\n      tag_117\n      jumpi\n      dup1\n      0x1f\n      lt\n      tag_118\n      jumpi\n      0x0100\n      dup1\n      dup4\n      sload\n      div\n      mul\n      dup4\n      mstore\n      swap2\n      0x20\n      add\n      swap2\n      jump(tag_117)\n    tag_118:\n      dup3\n      add\n      swap2\n      swap1\n      0x00\n      mstore\n      keccak256(0x00, 0x20)\n      swap1\n    tag_119:\n      dup2\n      sload\n      dup2\n      mstore\n      swap1\n      0x01\n      add\n      swap1\n      0x20\n      add\n      dup1\n      dup4\n      gt\n      tag_119\n      jumpi\n      dup3\n      swap1\n      sub\n      0x1f\n      and\n      dup3\n      add\n      swap2\n    tag_117:\n      pop\n      pop\n      pop\n      pop\n      pop\n      swap2\n      pop\n      swap2\n      pop\n      swap2\n      pop\n        /* \"KYC.sol\":3151:3309  function viewCustomerData(string memory _custName) public view returns(string memory, bool) {... */\n      swap2\n      pop\n      swap2\n      jump\t// out\n        /* \"KYC.sol\":414:478  mapping (address => bool) public isBankBlockedFromAddingCustomer */\n    tag_35:\n      mstore(0x20, 0x04)\n      dup1\n      0x00\n      mstore\n      keccak256(0x00, 0x40)\n      0x00\n      swap2\n      pop\n      sload\n      swap1\n      0x0100\n      exp\n      swap1\n      div\n      0xff\n      and\n      dup2\n      jump\t// out\n        /* \"KYC.sol\":893:1227  function addNewBank(string memory _bankName, address _bankAddr) public onlyAdmin {... */\n    tag_41:\n        /* \"KYC.sol\":731:736  admin */\n      0x00\n      dup1\n      sload\n      swap1\n      0x0100\n      exp\n      swap1\n      div\n      0xffffffffffffffffffffffffffffffffffffffff\n      and\n        /* \"KYC.sol\":717:736  msg.sender == admin */\n      0xffffffffffffffffffffffffffffffffffffffff\n      and\n        /* \"KYC.sol\":717:727  msg.sender */\n      caller\n        /* \"KYC.sol\":717:736  msg.sender == admin */\n      0xffffffffffffffffffffffffffffffffffffffff\n      and\n      eq\n        /* \"KYC.sol\":709:756  require(msg.sender == admin, \"KYC: Only Admin\") */\n      tag_121\n      jumpi\n      mload(0x40)\n      0x08c379a000000000000000000000000000000000000000000000000000000000\n      dup2\n      mstore\n      0x04\n      add\n      tag_122\n      swap1\n      tag_103\n      jump\t// in\n    tag_122:\n      mload(0x40)\n      dup1\n      swap2\n      sub\n      swap1\n      revert\n    tag_121:\n        /* \"KYC.sol\":1017:1018  0 */\n      0x00\n        /* \"KYC.sol\":997:1006  _bankName */\n      dup3\n        /* \"KYC.sol\":991:1014  bytes(_bankName).length */\n      mload\n        /* \"KYC.sol\":991:1018  bytes(_bankName).length > 0 */\n      gt\n        /* \"KYC.sol\":983:1041  require(bytes(_bankName).length > 0, \"Invalid Bank Name.\") */\n      tag_124\n      jumpi\n      mload(0x40)\n      0x08c379a000000000000000000000000000000000000000000000000000000000\n      dup2\n      mstore\n      0x04\n      add\n      tag_125\n      swap1\n      tag_126\n      jump\t// in\n    tag_125:\n      mload(0x40)\n      dup1\n      swap2\n      sub\n      swap1\n      revert\n    tag_124:\n        /* \"KYC.sol\":1079:1080  0 */\n      0x00\n        /* \"KYC.sol\":1058:1081  _bankAddr != address(0) */\n      0xffffffffffffffffffffffffffffffffffffffff\n      and\n        /* \"KYC.sol\":1058:1067  _bankAddr */\n      dup2\n        /* \"KYC.sol\":1058:1081  _bankAddr != address(0) */\n      0xffffffffffffffffffffffffffffffffffffffff\n      and\n      sub\n        /* \"KYC.sol\":1050:1107  require(_bankAddr != address(0), \"Invalid Bank Address.\") */\n      tag_127\n      jumpi\n      mload(0x40)\n      0x08c379a000000000000000000000000000000000000000000000000000000000\n      dup2\n      mstore\n      0x04\n      add\n      tag_128\n      swap1\n      tag_107\n      jump\t// in\n    tag_128:\n      mload(0x40)\n      dup1\n      swap2\n      sub\n      swap1\n      revert\n    tag_127:\n        /* \"KYC.sol\":1158:1159  0 */\n      0x00\n        /* \"KYC.sol\":1130:1135  banks */\n      0x01\n        /* \"KYC.sol\":1130:1146  banks[_bankAddr] */\n      0x00\n        /* \"KYC.sol\":1136:1145  _bankAddr */\n      dup4\n        /* \"KYC.sol\":1130:1146  banks[_bankAddr] */\n      0xffffffffffffffffffffffffffffffffffffffff\n      and\n      0xffffffffffffffffffffffffffffffffffffffff\n      and\n      dup2\n      mstore\n      0x20\n      add\n      swap1\n      dup2\n      mstore\n      0x20\n      add\n      0x00\n      keccak256\n        /* \"KYC.sol\":1124:1154  bytes(banks[_bankAddr]).length */\n      dup1\n      sload\n      tag_129\n      swap1\n      tag_66\n      jump\t// in\n    tag_129:\n      swap1\n      pop\n        /* \"KYC.sol\":1124:1159  bytes(banks[_bankAddr]).length == 0 */\n      eq\n        /* \"KYC.sol\":1116:1184  require(bytes(banks[_bankAddr]).length == 0, \"Bank already exists.\") */\n      tag_130\n      jumpi\n      mload(0x40)\n      0x08c379a000000000000000000000000000000000000000000000000000000000\n      dup2\n      mstore\n      0x04\n      add\n      tag_131\n      swap1\n      tag_132\n      jump\t// in\n    tag_131:\n      mload(0x40)\n      dup1\n      swap2\n      sub\n      swap1\n      revert\n    tag_130:\n        /* \"KYC.sol\":1212:1221  _bankName */\n      dup2\n        /* \"KYC.sol\":1193:1198  banks */\n      0x01\n        /* \"KYC.sol\":1193:1209  banks[_bankAddr] */\n      0x00\n        /* \"KYC.sol\":1199:1208  _bankAddr */\n      dup4\n        /* \"KYC.sol\":1193:1209  banks[_bankAddr] */\n      0xffffffffffffffffffffffffffffffffffffffff\n      and\n      0xffffffffffffffffffffffffffffffffffffffff\n      and\n      dup2\n      mstore\n      0x20\n      add\n      swap1\n      dup2\n      mstore\n      0x20\n      add\n      0x00\n      keccak256\n        /* \"KYC.sol\":1193:1221  banks[_bankAddr] = _bankName */\n      swap1\n      dup2\n      tag_133\n      swap2\n      swap1\n      tag_99\n      jump\t// in\n    tag_133:\n      pop\n        /* \"KYC.sol\":893:1227  function addNewBank(string memory _bankName, address _bankAddr) public onlyAdmin {... */\n      pop\n      pop\n      jump\t// out\n        /* \"KYC.sol\":273:313  mapping (address => string) public banks */\n    tag_44:\n      mstore(0x20, 0x01)\n      dup1\n      0x00\n      mstore\n      keccak256(0x00, 0x40)\n      0x00\n      swap2\n      pop\n      swap1\n      pop\n      dup1\n      sload\n      tag_134\n      swap1\n      tag_66\n      jump\t// in\n    tag_134:\n      dup1\n      0x1f\n      add\n      0x20\n      dup1\n      swap2\n      div\n      mul\n      0x20\n      add\n      mload(0x40)\n      swap1\n      dup2\n      add\n      0x40\n      mstore\n      dup1\n      swap3\n      swap2\n      swap1\n      dup2\n      dup2\n      mstore\n      0x20\n      add\n      dup3\n      dup1\n      sload\n      tag_135\n      swap1\n      tag_66\n      jump\t// in\n    tag_135:\n      dup1\n      iszero\n      tag_136\n      jumpi\n      dup1\n      0x1f\n      lt\n      tag_137\n      jumpi\n      0x0100\n      dup1\n      dup4\n      sload\n      div\n      mul\n      dup4\n      mstore\n      swap2\n      0x20\n      add\n      swap2\n      jump(tag_136)\n    tag_137:\n      dup3\n      add\n      swap2\n      swap1\n      0x00\n      mstore\n      keccak256(0x00, 0x20)\n      swap1\n    tag_138:\n      dup2\n      sload\n      dup2\n      mstore\n      swap1\n      0x01\n      add\n      swap1\n      0x20\n      add\n      dup1\n      dup4\n      gt\n      tag_138\n      jumpi\n      dup3\n      swap1\n      sub\n      0x1f\n      and\n      dup3\n      add\n      swap2\n    tag_136:\n      pop\n      pop\n      pop\n      pop\n      pop\n      dup2\n      jump\t// out\n        /* \"KYC.sol\":1508:1776  function blockBankFromKYC(address _bankAddr) public onlyAdmin {... */\n    tag_49:\n        /* \"KYC.sol\":731:736  admin */\n      0x00\n      dup1\n      sload\n      swap1\n      0x0100\n      exp\n      swap1\n      div\n      0xffffffffffffffffffffffffffffffffffffffff\n      and\n        /* \"KYC.sol\":717:736  msg.sender == admin */\n      0xffffffffffffffffffffffffffffffffffffffff\n      and\n        /* \"KYC.sol\":717:727  msg.sender */\n      caller\n        /* \"KYC.sol\":717:736  msg.sender == admin */\n      0xffffffffffffffffffffffffffffffffffffffff\n      and\n      eq\n        /* \"KYC.sol\":709:756  require(msg.sender == admin, \"KYC: Only Admin\") */\n      tag_140\n      jumpi\n      mload(0x40)\n      0x08c379a000000000000000000000000000000000000000000000000000000000\n      dup2\n      mstore\n      0x04\n      add\n      tag_141\n      swap1\n      tag_103\n      jump\t// in\n    tag_141:\n      mload(0x40)\n      dup1\n      swap2\n      sub\n      swap1\n      revert\n    tag_140:\n        /* \"KYC.sol\":1608:1609  0 */\n      0x00\n        /* \"KYC.sol\":1587:1610  _bankAddr != address(0) */\n      0xffffffffffffffffffffffffffffffffffffffff\n      and\n        /* \"KYC.sol\":1587:1596  _bankAddr */\n      dup2\n        /* \"KYC.sol\":1587:1610  _bankAddr != address(0) */\n      0xffffffffffffffffffffffffffffffffffffffff\n      and\n      sub\n        /* \"KYC.sol\":1579:1636  require(_bankAddr != address(0), \"Invalid Bank Address.\") */\n      tag_143\n      jumpi\n      mload(0x40)\n      0x08c379a000000000000000000000000000000000000000000000000000000000\n      dup2\n      mstore\n      0x04\n      add\n      tag_144\n      swap1\n      tag_107\n      jump\t// in\n    tag_144:\n      mload(0x40)\n      dup1\n      swap2\n      sub\n      swap1\n      revert\n    tag_143:\n        /* \"KYC.sol\":1686:1687  0 */\n      0x00\n        /* \"KYC.sol\":1659:1664  banks */\n      0x01\n        /* \"KYC.sol\":1659:1675  banks[_bankAddr] */\n      0x00\n        /* \"KYC.sol\":1665:1674  _bankAddr */\n      dup4\n        /* \"KYC.sol\":1659:1675  banks[_bankAddr] */\n      0xffffffffffffffffffffffffffffffffffffffff\n      and\n      0xffffffffffffffffffffffffffffffffffffffff\n      and\n      dup2\n      mstore\n      0x20\n      add\n      swap1\n      dup2\n      mstore\n      0x20\n      add\n      0x00\n      keccak256\n        /* \"KYC.sol\":1653:1683  bytes(banks[_bankAddr]).length */\n      dup1\n      sload\n      tag_145\n      swap1\n      tag_66\n      jump\t// in\n    tag_145:\n      swap1\n      pop\n        /* \"KYC.sol\":1653:1687  bytes(banks[_bankAddr]).length > 0 */\n      gt\n        /* \"KYC.sol\":1645:1723  require(bytes(banks[_bankAddr]).length > 0, \"Address not registered as bank.\") */\n      tag_146\n      jumpi\n      mload(0x40)\n      0x08c379a000000000000000000000000000000000000000000000000000000000\n      dup2\n      mstore\n      0x04\n      add\n      tag_147\n      swap1\n      tag_111\n      jump\t// in\n    tag_147:\n      mload(0x40)\n      dup1\n      swap2\n      sub\n      swap1\n      revert\n    tag_146:\n        /* \"KYC.sol\":1766:1770  true */\n      0x01\n        /* \"KYC.sol\":1732:1752  isBankBlockedFromKYC */\n      0x05\n        /* \"KYC.sol\":1732:1763  isBankBlockedFromKYC[_bankAddr] */\n      0x00\n        /* \"KYC.sol\":1753:1762  _bankAddr */\n      dup4\n        /* \"KYC.sol\":1732:1763  isBankBlockedFromKYC[_bankAddr] */\n      0xffffffffffffffffffffffffffffffffffffffff\n      and\n      0xffffffffffffffffffffffffffffffffffffffff\n      and\n      dup2\n      mstore\n      0x20\n      add\n      swap1\n      dup2\n      mstore\n      0x20\n      add\n      0x00\n      keccak256\n      0x00\n        /* \"KYC.sol\":1732:1770  isBankBlockedFromKYC[_bankAddr] = true */\n      0x0100\n      exp\n      dup2\n      sload\n      dup2\n      0xff\n      mul\n      not\n      and\n      swap1\n      dup4\n      iszero\n      iszero\n      mul\n      or\n      swap1\n      sstore\n      pop\n        /* \"KYC.sol\":1508:1776  function blockBankFromKYC(address _bankAddr) public onlyAdmin {... */\n      pop\n      jump\t// out\n        /* \"KYC.sol\":1782:2077  function allowBankFromAddingNewCustomers(address _bankAddr) public onlyAdmin {... */\n    tag_52:\n        /* \"KYC.sol\":731:736  admin */\n      0x00\n      dup1\n      sload\n      swap1\n      0x0100\n      exp\n      swap1\n      div\n      0xffffffffffffffffffffffffffffffffffffffff\n      and\n        /* \"KYC.sol\":717:736  msg.sender == admin */\n      0xffffffffffffffffffffffffffffffffffffffff\n      and\n        /* \"KYC.sol\":717:727  msg.sender */\n      caller\n        /* \"KYC.sol\":717:736  msg.sender == admin */\n      0xffffffffffffffffffffffffffffffffffffffff\n      and\n      eq\n        /* \"KYC.sol\":709:756  require(msg.sender == admin, \"KYC: Only Admin\") */\n      tag_149\n      jumpi\n      mload(0x40)\n      0x08c379a000000000000000000000000000000000000000000000000000000000\n      dup2\n      mstore\n      0x04\n      add\n      tag_150\n      swap1\n      tag_103\n      jump\t// in\n    tag_150:\n      mload(0x40)\n      dup1\n      swap2\n      sub\n      swap1\n      revert\n    tag_149:\n        /* \"KYC.sol\":1897:1898  0 */\n      0x00\n        /* \"KYC.sol\":1876:1899  _bankAddr != address(0) */\n      0xffffffffffffffffffffffffffffffffffffffff\n      and\n        /* \"KYC.sol\":1876:1885  _bankAddr */\n      dup2\n        /* \"KYC.sol\":1876:1899  _bankAddr != address(0) */\n      0xffffffffffffffffffffffffffffffffffffffff\n      and\n      sub\n        /* \"KYC.sol\":1868:1925  require(_bankAddr != address(0), \"Invalid Bank Address.\") */\n      tag_152\n      jumpi\n      mload(0x40)\n      0x08c379a000000000000000000000000000000000000000000000000000000000\n      dup2\n      mstore\n      0x04\n      add\n      tag_153\n      swap1\n      tag_107\n      jump\t// in\n    tag_153:\n      mload(0x40)\n      dup1\n      swap2\n      sub\n      swap1\n      revert\n    tag_152:\n        /* \"KYC.sol\":1975:1976  0 */\n      0x00\n        /* \"KYC.sol\":1948:1953  banks */\n      0x01\n        /* \"KYC.sol\":1948:1964  banks[_bankAddr] */\n      0x00\n        /* \"KYC.sol\":1954:1963  _bankAddr */\n      dup4\n        /* \"KYC.sol\":1948:1964  banks[_bankAddr] */\n      0xffffffffffffffffffffffffffffffffffffffff\n      and\n      0xffffffffffffffffffffffffffffffffffffffff\n      and\n      dup2\n      mstore\n      0x20\n      add\n      swap1\n      dup2\n      mstore\n      0x20\n      add\n      0x00\n      keccak256\n        /* \"KYC.sol\":1942:1972  bytes(banks[_bankAddr]).length */\n      dup1\n      sload\n      tag_154\n      swap1\n      tag_66\n      jump\t// in\n    tag_154:\n      swap1\n      pop\n        /* \"KYC.sol\":1942:1976  bytes(banks[_bankAddr]).length > 0 */\n      gt\n        /* \"KYC.sol\":1934:2012  require(bytes(banks[_bankAddr]).length > 0, \"Address not registered as bank.\") */\n      tag_155\n      jumpi\n      mload(0x40)\n      0x08c379a000000000000000000000000000000000000000000000000000000000\n      dup2\n      mstore\n      0x04\n      add\n      tag_156\n      swap1\n      tag_111\n      jump\t// in\n    tag_156:\n      mload(0x40)\n      dup1\n      swap2\n      sub\n      swap1\n      revert\n    tag_155:\n        /* \"KYC.sol\":2066:2071  false */\n      0x00\n        /* \"KYC.sol\":2021:2052  isBankBlockedFromAddingCustomer */\n      0x04\n        /* \"KYC.sol\":2021:2063  isBankBlockedFromAddingCustomer[_bankAddr] */\n      0x00\n        /* \"KYC.sol\":2053:2062  _bankAddr */\n      dup4\n        /* \"KYC.sol\":2021:2063  isBankBlockedFromAddingCustomer[_bankAddr] */\n      0xffffffffffffffffffffffffffffffffffffffff\n      and\n      0xffffffffffffffffffffffffffffffffffffffff\n      and\n      dup2\n      mstore\n      0x20\n      add\n      swap1\n      dup2\n      mstore\n      0x20\n      add\n      0x00\n      keccak256\n      0x00\n        /* \"KYC.sol\":2021:2071  isBankBlockedFromAddingCustomer[_bankAddr] = false */\n      0x0100\n      exp\n      dup2\n      sload\n      dup2\n      0xff\n      mul\n      not\n      and\n      swap1\n      dup4\n      iszero\n      iszero\n      mul\n      or\n      swap1\n      sstore\n      pop\n        /* \"KYC.sol\":1782:2077  function allowBankFromAddingNewCustomers(address _bankAddr) public onlyAdmin {... */\n      pop\n      jump\t// out\n        /* \"KYC.sol\":2083:2377  function blockBankFromAddingNewCustomers(address _bankAddr) public onlyAdmin {... */\n    tag_55:\n        /* \"KYC.sol\":731:736  admin */\n      0x00\n      dup1\n      sload\n      swap1\n      0x0100\n      exp\n      swap1\n      div\n      0xffffffffffffffffffffffffffffffffffffffff\n      and\n        /* \"KYC.sol\":717:736  msg.sender == admin */\n      0xffffffffffffffffffffffffffffffffffffffff\n      and\n        /* \"KYC.sol\":717:727  msg.sender */\n      caller\n        /* \"KYC.sol\":717:736  msg.sender == admin */\n      0xffffffffffffffffffffffffffffffffffffffff\n      and\n      eq\n        /* \"KYC.sol\":709:756  require(msg.sender == admin, \"KYC: Only Admin\") */\n      tag_158\n      jumpi\n      mload(0x40)\n      0x08c379a000000000000000000000000000000000000000000000000000000000\n      dup2\n      mstore\n      0x04\n      add\n      tag_159\n      swap1\n      tag_103\n      jump\t// in\n    tag_159:\n      mload(0x40)\n      dup1\n      swap2\n      sub\n      swap1\n      revert\n    tag_158:\n        /* \"KYC.sol\":2198:2199  0 */\n      0x00\n        /* \"KYC.sol\":2177:2200  _bankAddr != address(0) */\n      0xffffffffffffffffffffffffffffffffffffffff\n      and\n        /* \"KYC.sol\":2177:2186  _bankAddr */\n      dup2\n        /* \"KYC.sol\":2177:2200  _bankAddr != address(0) */\n      0xffffffffffffffffffffffffffffffffffffffff\n      and\n      sub\n        /* \"KYC.sol\":2169:2226  require(_bankAddr != address(0), \"Invalid Bank Address.\") */\n      tag_161\n      jumpi\n      mload(0x40)\n      0x08c379a000000000000000000000000000000000000000000000000000000000\n      dup2\n      mstore\n      0x04\n      add\n      tag_162\n      swap1\n      tag_107\n      jump\t// in\n    tag_162:\n      mload(0x40)\n      dup1\n      swap2\n      sub\n      swap1\n      revert\n    tag_161:\n        /* \"KYC.sol\":2276:2277  0 */\n      0x00\n        /* \"KYC.sol\":2249:2254  banks */\n      0x01\n        /* \"KYC.sol\":2249:2265  banks[_bankAddr] */\n      0x00\n        /* \"KYC.sol\":2255:2264  _bankAddr */\n      dup4\n        /* \"KYC.sol\":2249:2265  banks[_bankAddr] */\n      0xffffffffffffffffffffffffffffffffffffffff\n      and\n      0xffffffffffffffffffffffffffffffffffffffff\n      and\n      dup2\n      mstore\n      0x20\n      add\n      swap1\n      dup2\n      mstore\n      0x20\n      add\n      0x00\n      keccak256\n        /* \"KYC.sol\":2243:2273  bytes(banks[_bankAddr]).length */\n      dup1\n      sload\n      tag_163\n      swap1\n      tag_66\n      jump\t// in\n    tag_163:\n      swap1\n      pop\n        /* \"KYC.sol\":2243:2277  bytes(banks[_bankAddr]).length > 0 */\n      gt\n        /* \"KYC.sol\":2235:2313  require(bytes(banks[_bankAddr]).length > 0, \"Address not registered as bank.\") */\n      tag_164\n      jumpi\n      mload(0x40)\n      0x08c379a000000000000000000000000000000000000000000000000000000000\n      dup2\n      mstore\n      0x04\n      add\n      tag_165\n      swap1\n      tag_111\n      jump\t// in\n    tag_165:\n      mload(0x40)\n      dup1\n      swap2\n      sub\n      swap1\n      revert\n    tag_164:\n        /* \"KYC.sol\":2367:2371  true */\n      0x01\n        /* \"KYC.sol\":2322:2353  isBankBlockedFromAddingCustomer */\n      0x04\n        /* \"KYC.sol\":2322:2364  isBankBlockedFromAddingCustomer[_bankAddr] */\n      0x00\n        /* \"KYC.sol\":2354:2363  _bankAddr */\n      dup4\n        /* \"KYC.sol\":2322:2364  isBankBlockedFromAddingCustomer[_bankAddr] */\n      0xffffffffffffffffffffffffffffffffffffffff\n      and\n      0xffffffffffffffffffffffffffffffffffffffff\n      and\n      dup2\n      mstore\n      0x20\n      add\n      swap1\n      dup2\n      mstore\n      0x20\n      add\n      0x00\n      keccak256\n      0x00\n        /* \"KYC.sol\":2322:2371  isBankBlockedFromAddingCustomer[_bankAddr] = true */\n      0x0100\n      exp\n      dup2\n      sload\n      dup2\n      0xff\n      mul\n      not\n      and\n      swap1\n      dup4\n      iszero\n      iszero\n      mul\n      or\n      swap1\n      sstore\n      pop\n        /* \"KYC.sol\":2083:2377  function blockBankFromAddingNewCustomers(address _bankAddr) public onlyAdmin {... */\n      pop\n      jump\t// out\n        /* \"KYC.sol\":483:536  mapping (address => bool) public isBankBlockedFromKYC */\n    tag_58:\n      mstore(0x20, 0x05)\n      dup1\n      0x00\n      mstore\n      keccak256(0x00, 0x40)\n      0x00\n      swap2\n      pop\n      sload\n      swap1\n      0x0100\n      exp\n      swap1\n      div\n      0xff\n      and\n      dup2\n      jump\t// out\n        /* \"KYC.sol\":78:98  address public admin */\n    tag_61:\n      0x00\n      dup1\n      sload\n      swap1\n      0x0100\n      exp\n      swap1\n      div\n      0xffffffffffffffffffffffffffffffffffffffff\n      and\n      dup2\n      jump\t// out\n        /* \"#utility.yul\":7:82   */\n    tag_166:\n        /* \"#utility.yul\":40:46   */\n      0x00\n        /* \"#utility.yul\":73:75   */\n      0x40\n        /* \"#utility.yul\":67:76   */\n      mload\n        /* \"#utility.yul\":57:76   */\n      swap1\n      pop\n        /* \"#utility.yul\":7:82   */\n      swap1\n      jump\t// out\n        /* \"#utility.yul\":88:205   */\n    tag_167:\n        /* \"#utility.yul\":197:198   */\n      0x00\n        /* \"#utility.yul\":194:195   */\n      dup1\n        /* \"#utility.yul\":187:199   */\n      revert\n        /* \"#utility.yul\":211:328   */\n    tag_168:\n        /* \"#utility.yul\":320:321   */\n      0x00\n        /* \"#utility.yul\":317:318   */\n      dup1\n        /* \"#utility.yul\":310:322   */\n      revert\n        /* \"#utility.yul\":334:451   */\n    tag_169:\n        /* \"#utility.yul\":443:444   */\n      0x00\n        /* \"#utility.yul\":440:441   */\n      dup1\n        /* \"#utility.yul\":433:445   */\n      revert\n        /* \"#utility.yul\":457:574   */\n    tag_170:\n        /* \"#utility.yul\":566:567   */\n      0x00\n        /* \"#utility.yul\":563:564   */\n      dup1\n        /* \"#utility.yul\":556:568   */\n      revert\n        /* \"#utility.yul\":580:682   */\n    tag_171:\n        /* \"#utility.yul\":621:627   */\n      0x00\n        /* \"#utility.yul\":672:674   */\n      0x1f\n        /* \"#utility.yul\":668:675   */\n      not\n        /* \"#utility.yul\":663:665   */\n      0x1f\n        /* \"#utility.yul\":656:661   */\n      dup4\n        /* \"#utility.yul\":652:666   */\n      add\n        /* \"#utility.yul\":648:676   */\n      and\n        /* \"#utility.yul\":638:676   */\n      swap1\n      pop\n        /* \"#utility.yul\":580:682   */\n      swap2\n      swap1\n      pop\n      jump\t// out\n        /* \"#utility.yul\":688:868   */\n    tag_172:\n        /* \"#utility.yul\":736:813   */\n      0x4e487b7100000000000000000000000000000000000000000000000000000000\n        /* \"#utility.yul\":733:734   */\n      0x00\n        /* \"#utility.yul\":726:814   */\n      mstore\n        /* \"#utility.yul\":833:837   */\n      0x41\n        /* \"#utility.yul\":830:831   */\n      0x04\n        /* \"#utility.yul\":823:838   */\n      mstore\n        /* \"#utility.yul\":857:861   */\n      0x24\n        /* \"#utility.yul\":854:855   */\n      0x00\n        /* \"#utility.yul\":847:862   */\n      revert\n        /* \"#utility.yul\":874:1155   */\n    tag_173:\n        /* \"#utility.yul\":957:984   */\n      tag_240\n        /* \"#utility.yul\":979:983   */\n      dup3\n        /* \"#utility.yul\":957:984   */\n      tag_171\n      jump\t// in\n    tag_240:\n        /* \"#utility.yul\":949:955   */\n      dup2\n        /* \"#utility.yul\":945:985   */\n      add\n        /* \"#utility.yul\":1087:1093   */\n      dup2\n        /* \"#utility.yul\":1075:1085   */\n      dup2\n        /* \"#utility.yul\":1072:1094   */\n      lt\n        /* \"#utility.yul\":1051:1069   */\n      0xffffffffffffffff\n        /* \"#utility.yul\":1039:1049   */\n      dup3\n        /* \"#utility.yul\":1036:1070   */\n      gt\n        /* \"#utility.yul\":1033:1095   */\n      or\n        /* \"#utility.yul\":1030:1118   */\n      iszero\n      tag_241\n      jumpi\n        /* \"#utility.yul\":1098:1116   */\n      tag_242\n      tag_172\n      jump\t// in\n    tag_242:\n        /* \"#utility.yul\":1030:1118   */\n    tag_241:\n        /* \"#utility.yul\":1138:1148   */\n      dup1\n        /* \"#utility.yul\":1134:1136   */\n      0x40\n        /* \"#utility.yul\":1127:1149   */\n      mstore\n        /* \"#utility.yul\":917:1155   */\n      pop\n        /* \"#utility.yul\":874:1155   */\n      pop\n      pop\n      jump\t// out\n        /* \"#utility.yul\":1161:1290   */\n    tag_174:\n        /* \"#utility.yul\":1195:1201   */\n      0x00\n        /* \"#utility.yul\":1222:1242   */\n      tag_244\n      tag_166\n      jump\t// in\n    tag_244:\n        /* \"#utility.yul\":1212:1242   */\n      swap1\n      pop\n        /* \"#utility.yul\":1251:1284   */\n      tag_245\n        /* \"#utility.yul\":1279:1283   */\n      dup3\n        /* \"#utility.yul\":1271:1277   */\n      dup3\n        /* \"#utility.yul\":1251:1284   */\n      tag_173\n      jump\t// in\n    tag_245:\n        /* \"#utility.yul\":1161:1290   */\n      swap2\n      swap1\n      pop\n      jump\t// out\n        /* \"#utility.yul\":1296:1604   */\n    tag_175:\n        /* \"#utility.yul\":1358:1362   */\n      0x00\n        /* \"#utility.yul\":1448:1466   */\n      0xffffffffffffffff\n        /* \"#utility.yul\":1440:1446   */\n      dup3\n        /* \"#utility.yul\":1437:1467   */\n      gt\n        /* \"#utility.yul\":1434:1490   */\n      iszero\n      tag_247\n      jumpi\n        /* \"#utility.yul\":1470:1488   */\n      tag_248\n      tag_172\n      jump\t// in\n    tag_248:\n        /* \"#utility.yul\":1434:1490   */\n    tag_247:\n        /* \"#utility.yul\":1508:1537   */\n      tag_249\n        /* \"#utility.yul\":1530:1536   */\n      dup3\n        /* \"#utility.yul\":1508:1537   */\n      tag_171\n      jump\t// in\n    tag_249:\n        /* \"#utility.yul\":1500:1537   */\n      swap1\n      pop\n        /* \"#utility.yul\":1592:1596   */\n      0x20\n        /* \"#utility.yul\":1586:1590   */\n      dup2\n        /* \"#utility.yul\":1582:1597   */\n      add\n        /* \"#utility.yul\":1574:1597   */\n      swap1\n      pop\n        /* \"#utility.yul\":1296:1604   */\n      swap2\n      swap1\n      pop\n      jump\t// out\n        /* \"#utility.yul\":1610:1758   */\n    tag_176:\n        /* \"#utility.yul\":1708:1714   */\n      dup3\n        /* \"#utility.yul\":1703:1706   */\n      dup2\n        /* \"#utility.yul\":1698:1701   */\n      dup4\n        /* \"#utility.yul\":1685:1715   */\n      calldatacopy\n        /* \"#utility.yul\":1749:1750   */\n      0x00\n        /* \"#utility.yul\":1740:1746   */\n      dup4\n        /* \"#utility.yul\":1735:1738   */\n      dup4\n        /* \"#utility.yul\":1731:1747   */\n      add\n        /* \"#utility.yul\":1724:1751   */\n      mstore\n        /* \"#utility.yul\":1610:1758   */\n      pop\n      pop\n      pop\n      jump\t// out\n        /* \"#utility.yul\":1764:2189   */\n    tag_177:\n        /* \"#utility.yul\":1842:1847   */\n      0x00\n        /* \"#utility.yul\":1867:1933   */\n      tag_252\n        /* \"#utility.yul\":1883:1932   */\n      tag_253\n        /* \"#utility.yul\":1925:1931   */\n      dup5\n        /* \"#utility.yul\":1883:1932   */\n      tag_175\n      jump\t// in\n    tag_253:\n        /* \"#utility.yul\":1867:1933   */\n      tag_174\n      jump\t// in\n    tag_252:\n        /* \"#utility.yul\":1858:1933   */\n      swap1\n      pop\n        /* \"#utility.yul\":1956:1962   */\n      dup3\n        /* \"#utility.yul\":1949:1954   */\n      dup2\n        /* \"#utility.yul\":1942:1963   */\n      mstore\n        /* \"#utility.yul\":1994:1998   */\n      0x20\n        /* \"#utility.yul\":1987:1992   */\n      dup2\n        /* \"#utility.yul\":1983:1999   */\n      add\n        /* \"#utility.yul\":2032:2035   */\n      dup5\n        /* \"#utility.yul\":2023:2029   */\n      dup5\n        /* \"#utility.yul\":2018:2021   */\n      dup5\n        /* \"#utility.yul\":2014:2030   */\n      add\n        /* \"#utility.yul\":2011:2036   */\n      gt\n        /* \"#utility.yul\":2008:2120   */\n      iszero\n      tag_254\n      jumpi\n        /* \"#utility.yul\":2039:2118   */\n      tag_255\n      tag_170\n      jump\t// in\n    tag_255:\n        /* \"#utility.yul\":2008:2120   */\n    tag_254:\n        /* \"#utility.yul\":2129:2183   */\n      tag_256\n        /* \"#utility.yul\":2176:2182   */\n      dup5\n        /* \"#utility.yul\":2171:2174   */\n      dup3\n        /* \"#utility.yul\":2166:2169   */\n      dup6\n        /* \"#utility.yul\":2129:2183   */\n      tag_176\n      jump\t// in\n    tag_256:\n        /* \"#utility.yul\":1848:2189   */\n      pop\n        /* \"#utility.yul\":1764:2189   */\n      swap4\n      swap3\n      pop\n      pop\n      pop\n      jump\t// out\n        /* \"#utility.yul\":2209:2549   */\n    tag_178:\n        /* \"#utility.yul\":2265:2270   */\n      0x00\n        /* \"#utility.yul\":2314:2317   */\n      dup3\n        /* \"#utility.yul\":2307:2311   */\n      0x1f\n        /* \"#utility.yul\":2299:2305   */\n      dup4\n        /* \"#utility.yul\":2295:2312   */\n      add\n        /* \"#utility.yul\":2291:2318   */\n      slt\n        /* \"#utility.yul\":2281:2403   */\n      tag_258\n      jumpi\n        /* \"#utility.yul\":2322:2401   */\n      tag_259\n      tag_169\n      jump\t// in\n    tag_259:\n        /* \"#utility.yul\":2281:2403   */\n    tag_258:\n        /* \"#utility.yul\":2439:2445   */\n      dup2\n        /* \"#utility.yul\":2426:2446   */\n      calldataload\n        /* \"#utility.yul\":2464:2543   */\n      tag_260\n        /* \"#utility.yul\":2539:2542   */\n      dup5\n        /* \"#utility.yul\":2531:2537   */\n      dup3\n        /* \"#utility.yul\":2524:2528   */\n      0x20\n        /* \"#utility.yul\":2516:2522   */\n      dup7\n        /* \"#utility.yul\":2512:2529   */\n      add\n        /* \"#utility.yul\":2464:2543   */\n      tag_177\n      jump\t// in\n    tag_260:\n        /* \"#utility.yul\":2455:2543   */\n      swap2\n      pop\n        /* \"#utility.yul\":2271:2549   */\n      pop\n        /* \"#utility.yul\":2209:2549   */\n      swap3\n      swap2\n      pop\n      pop\n      jump\t// out\n        /* \"#utility.yul\":2555:3064   */\n    tag_18:\n        /* \"#utility.yul\":2624:2630   */\n      0x00\n        /* \"#utility.yul\":2673:2675   */\n      0x20\n        /* \"#utility.yul\":2661:2670   */\n      dup3\n        /* \"#utility.yul\":2652:2659   */\n      dup5\n        /* \"#utility.yul\":2648:2671   */\n      sub\n        /* \"#utility.yul\":2644:2676   */\n      slt\n        /* \"#utility.yul\":2641:2760   */\n      iszero\n      tag_262\n      jumpi\n        /* \"#utility.yul\":2679:2758   */\n      tag_263\n      tag_167\n      jump\t// in\n    tag_263:\n        /* \"#utility.yul\":2641:2760   */\n    tag_262:\n        /* \"#utility.yul\":2827:2828   */\n      0x00\n        /* \"#utility.yul\":2816:2825   */\n      dup3\n        /* \"#utility.yul\":2812:2829   */\n      add\n        /* \"#utility.yul\":2799:2830   */\n      calldataload\n        /* \"#utility.yul\":2857:2875   */\n      0xffffffffffffffff\n        /* \"#utility.yul\":2849:2855   */\n      dup2\n        /* \"#utility.yul\":2846:2876   */\n      gt\n        /* \"#utility.yul\":2843:2960   */\n      iszero\n      tag_264\n      jumpi\n        /* \"#utility.yul\":2879:2958   */\n      tag_265\n      tag_168\n      jump\t// in\n    tag_265:\n        /* \"#utility.yul\":2843:2960   */\n    tag_264:\n        /* \"#utility.yul\":2984:3047   */\n      tag_266\n        /* \"#utility.yul\":3039:3046   */\n      dup5\n        /* \"#utility.yul\":3030:3036   */\n      dup3\n        /* \"#utility.yul\":3019:3028   */\n      dup6\n        /* \"#utility.yul\":3015:3037   */\n      add\n        /* \"#utility.yul\":2984:3047   */\n      tag_178\n      jump\t// in\n    tag_266:\n        /* \"#utility.yul\":2974:3047   */\n      swap2\n      pop\n        /* \"#utility.yul\":2770:3057   */\n      pop\n        /* \"#utility.yul\":2555:3064   */\n      swap3\n      swap2\n      pop\n      pop\n      jump\t// out\n        /* \"#utility.yul\":3070:3904   */\n    tag_22:\n        /* \"#utility.yul\":3158:3164   */\n      0x00\n        /* \"#utility.yul\":3166:3172   */\n      dup1\n        /* \"#utility.yul\":3215:3217   */\n      0x40\n        /* \"#utility.yul\":3203:3212   */\n      dup4\n        /* \"#utility.yul\":3194:3201   */\n      dup6\n        /* \"#utility.yul\":3190:3213   */\n      sub\n        /* \"#utility.yul\":3186:3218   */\n      slt\n        /* \"#utility.yul\":3183:3302   */\n      iszero\n      tag_268\n      jumpi\n        /* \"#utility.yul\":3221:3300   */\n      tag_269\n      tag_167\n      jump\t// in\n    tag_269:\n        /* \"#utility.yul\":3183:3302   */\n    tag_268:\n        /* \"#utility.yul\":3369:3370   */\n      0x00\n        /* \"#utility.yul\":3358:3367   */\n      dup4\n        /* \"#utility.yul\":3354:3371   */\n      add\n        /* \"#utility.yul\":3341:3372   */\n      calldataload\n        /* \"#utility.yul\":3399:3417   */\n      0xffffffffffffffff\n        /* \"#utility.yul\":3391:3397   */\n      dup2\n        /* \"#utility.yul\":3388:3418   */\n      gt\n        /* \"#utility.yul\":3385:3502   */\n      iszero\n      tag_270\n      jumpi\n        /* \"#utility.yul\":3421:3500   */\n      tag_271\n      tag_168\n      jump\t// in\n    tag_271:\n        /* \"#utility.yul\":3385:3502   */\n    tag_270:\n        /* \"#utility.yul\":3526:3589   */\n      tag_272\n        /* \"#utility.yul\":3581:3588   */\n      dup6\n        /* \"#utility.yul\":3572:3578   */\n      dup3\n        /* \"#utility.yul\":3561:3570   */\n      dup7\n        /* \"#utility.yul\":3557:3579   */\n      add\n        /* \"#utility.yul\":3526:3589   */\n      tag_178\n      jump\t// in\n    tag_272:\n        /* \"#utility.yul\":3516:3589   */\n      swap3\n      pop\n        /* \"#utility.yul\":3312:3599   */\n      pop\n        /* \"#utility.yul\":3666:3668   */\n      0x20\n        /* \"#utility.yul\":3655:3664   */\n      dup4\n        /* \"#utility.yul\":3651:3669   */\n      add\n        /* \"#utility.yul\":3638:3670   */\n      calldataload\n        /* \"#utility.yul\":3697:3715   */\n      0xffffffffffffffff\n        /* \"#utility.yul\":3689:3695   */\n      dup2\n        /* \"#utility.yul\":3686:3716   */\n      gt\n        /* \"#utility.yul\":3683:3800   */\n      iszero\n      tag_273\n      jumpi\n        /* \"#utility.yul\":3719:3798   */\n      tag_274\n      tag_168\n      jump\t// in\n    tag_274:\n        /* \"#utility.yul\":3683:3800   */\n    tag_273:\n        /* \"#utility.yul\":3824:3887   */\n      tag_275\n        /* \"#utility.yul\":3879:3886   */\n      dup6\n        /* \"#utility.yul\":3870:3876   */\n      dup3\n        /* \"#utility.yul\":3859:3868   */\n      dup7\n        /* \"#utility.yul\":3855:3877   */\n      add\n        /* \"#utility.yul\":3824:3887   */\n      tag_178\n      jump\t// in\n    tag_275:\n        /* \"#utility.yul\":3814:3887   */\n      swap2\n      pop\n        /* \"#utility.yul\":3609:3897   */\n      pop\n        /* \"#utility.yul\":3070:3904   */\n      swap3\n      pop\n      swap3\n      swap1\n      pop\n      jump\t// out\n        /* \"#utility.yul\":3910:4036   */\n    tag_179:\n        /* \"#utility.yul\":3947:3954   */\n      0x00\n        /* \"#utility.yul\":3987:4029   */\n      0xffffffffffffffffffffffffffffffffffffffff\n        /* \"#utility.yul\":3980:3985   */\n      dup3\n        /* \"#utility.yul\":3976:4030   */\n      and\n        /* \"#utility.yul\":3965:4030   */\n      swap1\n      pop\n        /* \"#utility.yul\":3910:4036   */\n      swap2\n      swap1\n      pop\n      jump\t// out\n        /* \"#utility.yul\":4042:4138   */\n    tag_180:\n        /* \"#utility.yul\":4079:4086   */\n      0x00\n        /* \"#utility.yul\":4108:4132   */\n      tag_278\n        /* \"#utility.yul\":4126:4131   */\n      dup3\n        /* \"#utility.yul\":4108:4132   */\n      tag_179\n      jump\t// in\n    tag_278:\n        /* \"#utility.yul\":4097:4132   */\n      swap1\n      pop\n        /* \"#utility.yul\":4042:4138   */\n      swap2\n      swap1\n      pop\n      jump\t// out\n        /* \"#utility.yul\":4144:4266   */\n    tag_181:\n        /* \"#utility.yul\":4217:4241   */\n      tag_280\n        /* \"#utility.yul\":4235:4240   */\n      dup2\n        /* \"#utility.yul\":4217:4241   */\n      tag_180\n      jump\t// in\n    tag_280:\n        /* \"#utility.yul\":4210:4215   */\n      dup2\n        /* \"#utility.yul\":4207:4242   */\n      eq\n        /* \"#utility.yul\":4197:4260   */\n      tag_281\n      jumpi\n        /* \"#utility.yul\":4256:4257   */\n      0x00\n        /* \"#utility.yul\":4253:4254   */\n      dup1\n        /* \"#utility.yul\":4246:4258   */\n      revert\n        /* \"#utility.yul\":4197:4260   */\n    tag_281:\n        /* \"#utility.yul\":4144:4266   */\n      pop\n      jump\t// out\n        /* \"#utility.yul\":4272:4411   */\n    tag_182:\n        /* \"#utility.yul\":4318:4323   */\n      0x00\n        /* \"#utility.yul\":4356:4362   */\n      dup2\n        /* \"#utility.yul\":4343:4363   */\n      calldataload\n        /* \"#utility.yul\":4334:4363   */\n      swap1\n      pop\n        /* \"#utility.yul\":4372:4405   */\n      tag_283\n        /* \"#utility.yul\":4399:4404   */\n      dup2\n        /* \"#utility.yul\":4372:4405   */\n      tag_181\n      jump\t// in\n    tag_283:\n        /* \"#utility.yul\":4272:4411   */\n      swap3\n      swap2\n      pop\n      pop\n      jump\t// out\n        /* \"#utility.yul\":4417:4746   */\n    tag_26:\n        /* \"#utility.yul\":4476:4482   */\n      0x00\n        /* \"#utility.yul\":4525:4527   */\n      0x20\n        /* \"#utility.yul\":4513:4522   */\n      dup3\n        /* \"#utility.yul\":4504:4511   */\n      dup5\n        /* \"#utility.yul\":4500:4523   */\n      sub\n        /* \"#utility.yul\":4496:4528   */\n      slt\n        /* \"#utility.yul\":4493:4612   */\n      iszero\n      tag_285\n      jumpi\n        /* \"#utility.yul\":4531:4610   */\n      tag_286\n      tag_167\n      jump\t// in\n    tag_286:\n        /* \"#utility.yul\":4493:4612   */\n    tag_285:\n        /* \"#utility.yul\":4651:4652   */\n      0x00\n        /* \"#utility.yul\":4676:4729   */\n      tag_287\n        /* \"#utility.yul\":4721:4728   */\n      dup5\n        /* \"#utility.yul\":4712:4718   */\n      dup3\n        /* \"#utility.yul\":4701:4710   */\n      dup6\n        /* \"#utility.yul\":4697:4719   */\n      add\n        /* \"#utility.yul\":4676:4729   */\n      tag_182\n      jump\t// in\n    tag_287:\n        /* \"#utility.yul\":4666:4729   */\n      swap2\n      pop\n        /* \"#utility.yul\":4622:4739   */\n      pop\n        /* \"#utility.yul\":4417:4746   */\n      swap3\n      swap2\n      pop\n      pop\n      jump\t// out\n        /* \"#utility.yul\":4752:4851   */\n    tag_183:\n        /* \"#utility.yul\":4804:4810   */\n      0x00\n        /* \"#utility.yul\":4838:4843   */\n      dup2\n        /* \"#utility.yul\":4832:4844   */\n      mload\n        /* \"#utility.yul\":4822:4844   */\n      swap1\n      pop\n        /* \"#utility.yul\":4752:4851   */\n      swap2\n      swap1\n      pop\n      jump\t// out\n        /* \"#utility.yul\":4857:5026   */\n    tag_184:\n        /* \"#utility.yul\":4941:4952   */\n      0x00\n        /* \"#utility.yul\":4975:4981   */\n      dup3\n        /* \"#utility.yul\":4970:4973   */\n      dup3\n        /* \"#utility.yul\":4963:4982   */\n      mstore\n        /* \"#utility.yul\":5015:5019   */\n      0x20\n        /* \"#utility.yul\":5010:5013   */\n      dup3\n        /* \"#utility.yul\":5006:5020   */\n      add\n        /* \"#utility.yul\":4991:5020   */\n      swap1\n      pop\n        /* \"#utility.yul\":4857:5026   */\n      swap3\n      swap2\n      pop\n      pop\n      jump\t// out\n        /* \"#utility.yul\":5032:5171   */\n    tag_185:\n        /* \"#utility.yul\":5121:5127   */\n      dup3\n        /* \"#utility.yul\":5116:5119   */\n      dup2\n        /* \"#utility.yul\":5111:5114   */\n      dup4\n        /* \"#utility.yul\":5105:5128   */\n      mcopy\n        /* \"#utility.yul\":5162:5163   */\n      0x00\n        /* \"#utility.yul\":5153:5159   */\n      dup4\n        /* \"#utility.yul\":5148:5151   */\n      dup4\n        /* \"#utility.yul\":5144:5160   */\n      add\n        /* \"#utility.yul\":5137:5164   */\n      mstore\n        /* \"#utility.yul\":5032:5171   */\n      pop\n      pop\n      pop\n      jump\t// out\n        /* \"#utility.yul\":5177:5554   */\n    tag_186:\n        /* \"#utility.yul\":5265:5268   */\n      0x00\n        /* \"#utility.yul\":5293:5332   */\n      tag_292\n        /* \"#utility.yul\":5326:5331   */\n      dup3\n        /* \"#utility.yul\":5293:5332   */\n      tag_183\n      jump\t// in\n    tag_292:\n        /* \"#utility.yul\":5348:5419   */\n      tag_293\n        /* \"#utility.yul\":5412:5418   */\n      dup2\n        /* \"#utility.yul\":5407:5410   */\n      dup6\n        /* \"#utility.yul\":5348:5419   */\n      tag_184\n      jump\t// in\n    tag_293:\n        /* \"#utility.yul\":5341:5419   */\n      swap4\n      pop\n        /* \"#utility.yul\":5428:5493   */\n      tag_294\n        /* \"#utility.yul\":5486:5492   */\n      dup2\n        /* \"#utility.yul\":5481:5484   */\n      dup6\n        /* \"#utility.yul\":5474:5478   */\n      0x20\n        /* \"#utility.yul\":5467:5472   */\n      dup7\n        /* \"#utility.yul\":5463:5479   */\n      add\n        /* \"#utility.yul\":5428:5493   */\n      tag_185\n      jump\t// in\n    tag_294:\n        /* \"#utility.yul\":5518:5547   */\n      tag_295\n        /* \"#utility.yul\":5540:5546   */\n      dup2\n        /* \"#utility.yul\":5518:5547   */\n      tag_171\n      jump\t// in\n    tag_295:\n        /* \"#utility.yul\":5513:5516   */\n      dup5\n        /* \"#utility.yul\":5509:5548   */\n      add\n        /* \"#utility.yul\":5502:5548   */\n      swap2\n      pop\n        /* \"#utility.yul\":5269:5554   */\n      pop\n        /* \"#utility.yul\":5177:5554   */\n      swap3\n      swap2\n      pop\n      pop\n      jump\t// out\n        /* \"#utility.yul\":5560:5650   */\n    tag_187:\n        /* \"#utility.yul\":5594:5601   */\n      0x00\n        /* \"#utility.yul\":5637:5642   */\n      dup2\n        /* \"#utility.yul\":5630:5643   */\n      iszero\n        /* \"#utility.yul\":5623:5644   */\n      iszero\n        /* \"#utility.yul\":5612:5644   */\n      swap1\n      pop\n        /* \"#utility.yul\":5560:5650   */\n      swap2\n      swap1\n      pop\n      jump\t// out\n        /* \"#utility.yul\":5656:5765   */\n    tag_188:\n        /* \"#utility.yul\":5737:5758   */\n      tag_298\n        /* \"#utility.yul\":5752:5757   */\n      dup2\n        /* \"#utility.yul\":5737:5758   */\n      tag_187\n      jump\t// in\n    tag_298:\n        /* \"#utility.yul\":5732:5735   */\n      dup3\n        /* \"#utility.yul\":5725:5759   */\n      mstore\n        /* \"#utility.yul\":5656:5765   */\n      pop\n      pop\n      jump\t// out\n        /* \"#utility.yul\":5771:6182   */\n    tag_32:\n        /* \"#utility.yul\":5906:5910   */\n      0x00\n        /* \"#utility.yul\":5944:5946   */\n      0x40\n        /* \"#utility.yul\":5933:5942   */\n      dup3\n        /* \"#utility.yul\":5929:5947   */\n      add\n        /* \"#utility.yul\":5921:5947   */\n      swap1\n      pop\n        /* \"#utility.yul\":5993:6002   */\n      dup2\n        /* \"#utility.yul\":5987:5991   */\n      dup2\n        /* \"#utility.yul\":5983:6003   */\n      sub\n        /* \"#utility.yul\":5979:5980   */\n      0x00\n        /* \"#utility.yul\":5968:5977   */\n      dup4\n        /* \"#utility.yul\":5964:5981   */\n      add\n        /* \"#utility.yul\":5957:6004   */\n      mstore\n        /* \"#utility.yul\":6021:6099   */\n      tag_300\n        /* \"#utility.yul\":6094:6098   */\n      dup2\n        /* \"#utility.yul\":6085:6091   */\n      dup6\n        /* \"#utility.yul\":6021:6099   */\n      tag_186\n      jump\t// in\n    tag_300:\n        /* \"#utility.yul\":6013:6099   */\n      swap1\n      pop\n        /* \"#utility.yul\":6109:6175   */\n      tag_301\n        /* \"#utility.yul\":6171:6173   */\n      0x20\n        /* \"#utility.yul\":6160:6169   */\n      dup4\n        /* \"#utility.yul\":6156:6174   */\n      add\n        /* \"#utility.yul\":6147:6153   */\n      dup5\n        /* \"#utility.yul\":6109:6175   */\n      tag_188\n      jump\t// in\n    tag_301:\n        /* \"#utility.yul\":5771:6182   */\n      swap4\n      swap3\n      pop\n      pop\n      pop\n      jump\t// out\n        /* \"#utility.yul\":6188:6398   */\n    tag_37:\n        /* \"#utility.yul\":6275:6279   */\n      0x00\n        /* \"#utility.yul\":6313:6315   */\n      0x20\n        /* \"#utility.yul\":6302:6311   */\n      dup3\n        /* \"#utility.yul\":6298:6316   */\n      add\n        /* \"#utility.yul\":6290:6316   */\n      swap1\n      pop\n        /* \"#utility.yul\":6326:6391   */\n      tag_303\n        /* \"#utility.yul\":6388:6389   */\n      0x00\n        /* \"#utility.yul\":6377:6386   */\n      dup4\n        /* \"#utility.yul\":6373:6390   */\n      add\n        /* \"#utility.yul\":6364:6370   */\n      dup5\n        /* \"#utility.yul\":6326:6391   */\n      tag_188\n      jump\t// in\n    tag_303:\n        /* \"#utility.yul\":6188:6398   */\n      swap3\n      swap2\n      pop\n      pop\n      jump\t// out\n        /* \"#utility.yul\":6404:7058   */\n    tag_40:\n        /* \"#utility.yul\":6482:6488   */\n      0x00\n        /* \"#utility.yul\":6490:6496   */\n      dup1\n        /* \"#utility.yul\":6539:6541   */\n      0x40\n        /* \"#utility.yul\":6527:6536   */\n      dup4\n        /* \"#utility.yul\":6518:6525   */\n      dup6\n        /* \"#utility.yul\":6514:6537   */\n      sub\n        /* \"#utility.yul\":6510:6542   */\n      slt\n        /* \"#utility.yul\":6507:6626   */\n      iszero\n      tag_305\n      jumpi\n        /* \"#utility.yul\":6545:6624   */\n      tag_306\n      tag_167\n      jump\t// in\n    tag_306:\n        /* \"#utility.yul\":6507:6626   */\n    tag_305:\n        /* \"#utility.yul\":6693:6694   */\n      0x00\n        /* \"#utility.yul\":6682:6691   */\n      dup4\n        /* \"#utility.yul\":6678:6695   */\n      add\n        /* \"#utility.yul\":6665:6696   */\n      calldataload\n        /* \"#utility.yul\":6723:6741   */\n      0xffffffffffffffff\n        /* \"#utility.yul\":6715:6721   */\n      dup2\n        /* \"#utility.yul\":6712:6742   */\n      gt\n        /* \"#utility.yul\":6709:6826   */\n      iszero\n      tag_307\n      jumpi\n        /* \"#utility.yul\":6745:6824   */\n      tag_308\n      tag_168\n      jump\t// in\n    tag_308:\n        /* \"#utility.yul\":6709:6826   */\n    tag_307:\n        /* \"#utility.yul\":6850:6913   */\n      tag_309\n        /* \"#utility.yul\":6905:6912   */\n      dup6\n        /* \"#utility.yul\":6896:6902   */\n      dup3\n        /* \"#utility.yul\":6885:6894   */\n      dup7\n        /* \"#utility.yul\":6881:6903   */\n      add\n        /* \"#utility.yul\":6850:6913   */\n      tag_178\n      jump\t// in\n    tag_309:\n        /* \"#utility.yul\":6840:6913   */\n      swap3\n      pop\n        /* \"#utility.yul\":6636:6923   */\n      pop\n        /* \"#utility.yul\":6962:6964   */\n      0x20\n        /* \"#utility.yul\":6988:7041   */\n      tag_310\n        /* \"#utility.yul\":7033:7040   */\n      dup6\n        /* \"#utility.yul\":7024:7030   */\n      dup3\n        /* \"#utility.yul\":7013:7022   */\n      dup7\n        /* \"#utility.yul\":7009:7031   */\n      add\n        /* \"#utility.yul\":6988:7041   */\n      tag_182\n      jump\t// in\n    tag_310:\n        /* \"#utility.yul\":6978:7041   */\n      swap2\n      pop\n        /* \"#utility.yul\":6933:7051   */\n      pop\n        /* \"#utility.yul\":6404:7058   */\n      swap3\n      pop\n      swap3\n      swap1\n      pop\n      jump\t// out\n        /* \"#utility.yul\":7064:7377   */\n    tag_46:\n        /* \"#utility.yul\":7177:7181   */\n      0x00\n        /* \"#utility.yul\":7215:7217   */\n      0x20\n        /* \"#utility.yul\":7204:7213   */\n      dup3\n        /* \"#utility.yul\":7200:7218   */\n      add\n        /* \"#utility.yul\":7192:7218   */\n      swap1\n      pop\n        /* \"#utility.yul\":7264:7273   */\n      dup2\n        /* \"#utility.yul\":7258:7262   */\n      dup2\n        /* \"#utility.yul\":7254:7274   */\n      sub\n        /* \"#utility.yul\":7250:7251   */\n      0x00\n        /* \"#utility.yul\":7239:7248   */\n      dup4\n        /* \"#utility.yul\":7235:7252   */\n      add\n        /* \"#utility.yul\":7228:7275   */\n      mstore\n        /* \"#utility.yul\":7292:7370   */\n      tag_312\n        /* \"#utility.yul\":7365:7369   */\n      dup2\n        /* \"#utility.yul\":7356:7362   */\n      dup5\n        /* \"#utility.yul\":7292:7370   */\n      tag_186\n      jump\t// in\n    tag_312:\n        /* \"#utility.yul\":7284:7370   */\n      swap1\n      pop\n        /* \"#utility.yul\":7064:7377   */\n      swap3\n      swap2\n      pop\n      pop\n      jump\t// out\n        /* \"#utility.yul\":7383:7501   */\n    tag_189:\n        /* \"#utility.yul\":7470:7494   */\n      tag_314\n        /* \"#utility.yul\":7488:7493   */\n      dup2\n        /* \"#utility.yul\":7470:7494   */\n      tag_180\n      jump\t// in\n    tag_314:\n        /* \"#utility.yul\":7465:7468   */\n      dup3\n        /* \"#utility.yul\":7458:7495   */\n      mstore\n        /* \"#utility.yul\":7383:7501   */\n      pop\n      pop\n      jump\t// out\n        /* \"#utility.yul\":7507:7729   */\n    tag_63:\n        /* \"#utility.yul\":7600:7604   */\n      0x00\n        /* \"#utility.yul\":7638:7640   */\n      0x20\n        /* \"#utility.yul\":7627:7636   */\n      dup3\n        /* \"#utility.yul\":7623:7641   */\n      add\n        /* \"#utility.yul\":7615:7641   */\n      swap1\n      pop\n        /* \"#utility.yul\":7651:7722   */\n      tag_316\n        /* \"#utility.yul\":7719:7720   */\n      0x00\n        /* \"#utility.yul\":7708:7717   */\n      dup4\n        /* \"#utility.yul\":7704:7721   */\n      add\n        /* \"#utility.yul\":7695:7701   */\n      dup5\n        /* \"#utility.yul\":7651:7722   */\n      tag_189\n      jump\t// in\n    tag_316:\n        /* \"#utility.yul\":7507:7729   */\n      swap3\n      swap2\n      pop\n      pop\n      jump\t// out\n        /* \"#utility.yul\":7735:7915   */\n    tag_190:\n        /* \"#utility.yul\":7783:7860   */\n      0x4e487b7100000000000000000000000000000000000000000000000000000000\n        /* \"#utility.yul\":7780:7781   */\n      0x00\n        /* \"#utility.yul\":7773:7861   */\n      mstore\n        /* \"#utility.yul\":7880:7884   */\n      0x22\n        /* \"#utility.yul\":7877:7878   */\n      0x04\n        /* \"#utility.yul\":7870:7885   */\n      mstore\n        /* \"#utility.yul\":7904:7908   */\n      0x24\n        /* \"#utility.yul\":7901:7902   */\n      0x00\n        /* \"#utility.yul\":7894:7909   */\n      revert\n        /* \"#utility.yul\":7921:8241   */\n    tag_66:\n        /* \"#utility.yul\":7965:7971   */\n      0x00\n        /* \"#utility.yul\":8002:8003   */\n      0x02\n        /* \"#utility.yul\":7996:8000   */\n      dup3\n        /* \"#utility.yul\":7992:8004   */\n      div\n        /* \"#utility.yul\":7982:8004   */\n      swap1\n      pop\n        /* \"#utility.yul\":8049:8050   */\n      0x01\n        /* \"#utility.yul\":8043:8047   */\n      dup3\n        /* \"#utility.yul\":8039:8051   */\n      and\n        /* \"#utility.yul\":8070:8088   */\n      dup1\n        /* \"#utility.yul\":8060:8141   */\n      tag_319\n      jumpi\n        /* \"#utility.yul\":8126:8130   */\n      0x7f\n        /* \"#utility.yul\":8118:8124   */\n      dup3\n        /* \"#utility.yul\":8114:8131   */\n      and\n        /* \"#utility.yul\":8104:8131   */\n      swap2\n      pop\n        /* \"#utility.yul\":8060:8141   */\n    tag_319:\n        /* \"#utility.yul\":8188:8190   */\n      0x20\n        /* \"#utility.yul\":8180:8186   */\n      dup3\n        /* \"#utility.yul\":8177:8191   */\n      lt\n        /* \"#utility.yul\":8157:8175   */\n      dup2\n        /* \"#utility.yul\":8154:8192   */\n      sub\n        /* \"#utility.yul\":8151:8235   */\n      tag_320\n      jumpi\n        /* \"#utility.yul\":8207:8225   */\n      tag_321\n      tag_190\n      jump\t// in\n    tag_321:\n        /* \"#utility.yul\":8151:8235   */\n    tag_320:\n        /* \"#utility.yul\":7972:8241   */\n      pop\n        /* \"#utility.yul\":7921:8241   */\n      swap2\n      swap1\n      pop\n      jump\t// out\n        /* \"#utility.yul\":8247:8411   */\n    tag_191:\n        /* \"#utility.yul\":8387:8403   */\n      0x4b59433a204f6e6c792042616e6b000000000000000000000000000000000000\n        /* \"#utility.yul\":8383:8384   */\n      0x00\n        /* \"#utility.yul\":8375:8381   */\n      dup3\n        /* \"#utility.yul\":8371:8385   */\n      add\n        /* \"#utility.yul\":8364:8404   */\n      mstore\n        /* \"#utility.yul\":8247:8411   */\n      pop\n      jump\t// out\n        /* \"#utility.yul\":8417:8783   */\n    tag_192:\n        /* \"#utility.yul\":8559:8562   */\n      0x00\n        /* \"#utility.yul\":8580:8647   */\n      tag_324\n        /* \"#utility.yul\":8644:8646   */\n      0x0e\n        /* \"#utility.yul\":8639:8642   */\n      dup4\n        /* \"#utility.yul\":8580:8647   */\n      tag_184\n      jump\t// in\n    tag_324:\n        /* \"#utility.yul\":8573:8647   */\n      swap2\n      pop\n        /* \"#utility.yul\":8656:8749   */\n      tag_325\n        /* \"#utility.yul\":8745:8748   */\n      dup3\n        /* \"#utility.yul\":8656:8749   */\n      tag_191\n      jump\t// in\n    tag_325:\n        /* \"#utility.yul\":8774:8776   */\n      0x20\n        /* \"#utility.yul\":8769:8772   */\n      dup3\n        /* \"#utility.yul\":8765:8777   */\n      add\n        /* \"#utility.yul\":8758:8777   */\n      swap1\n      pop\n        /* \"#utility.yul\":8417:8783   */\n      swap2\n      swap1\n      pop\n      jump\t// out\n        /* \"#utility.yul\":8789:9208   */\n    tag_69:\n        /* \"#utility.yul\":8955:8959   */\n      0x00\n        /* \"#utility.yul\":8993:8995   */\n      0x20\n        /* \"#utility.yul\":8982:8991   */\n      dup3\n        /* \"#utility.yul\":8978:8996   */\n      add\n        /* \"#utility.yul\":8970:8996   */\n      swap1\n      pop\n        /* \"#utility.yul\":9042:9051   */\n      dup2\n        /* \"#utility.yul\":9036:9040   */\n      dup2\n        /* \"#utility.yul\":9032:9052   */\n      sub\n        /* \"#utility.yul\":9028:9029   */\n      0x00\n        /* \"#utility.yul\":9017:9026   */\n      dup4\n        /* \"#utility.yul\":9013:9030   */\n      add\n        /* \"#utility.yul\":9006:9053   */\n      mstore\n        /* \"#utility.yul\":9070:9201   */\n      tag_327\n        /* \"#utility.yul\":9196:9200   */\n      dup2\n        /* \"#utility.yul\":9070:9201   */\n      tag_192\n      jump\t// in\n    tag_327:\n        /* \"#utility.yul\":9062:9201   */\n      swap1\n      pop\n        /* \"#utility.yul\":8789:9208   */\n      swap2\n      swap1\n      pop\n      jump\t// out\n        /* \"#utility.yul\":9214:9386   */\n    tag_193:\n        /* \"#utility.yul\":9354:9378   */\n      0x496e76616c696420437573746f6d6572204e616d652e00000000000000000000\n        /* \"#utility.yul\":9350:9351   */\n      0x00\n        /* \"#utility.yul\":9342:9348   */\n      dup3\n        /* \"#utility.yul\":9338:9352   */\n      add\n        /* \"#utility.yul\":9331:9379   */\n      mstore\n        /* \"#utility.yul\":9214:9386   */\n      pop\n      jump\t// out\n        /* \"#utility.yul\":9392:9758   */\n    tag_194:\n        /* \"#utility.yul\":9534:9537   */\n      0x00\n        /* \"#utility.yul\":9555:9622   */\n      tag_330\n        /* \"#utility.yul\":9619:9621   */\n      0x16\n        /* \"#utility.yul\":9614:9617   */\n      dup4\n        /* \"#utility.yul\":9555:9622   */\n      tag_184\n      jump\t// in\n    tag_330:\n        /* \"#utility.yul\":9548:9622   */\n      swap2\n      pop\n        /* \"#utility.yul\":9631:9724   */\n      tag_331\n        /* \"#utility.yul\":9720:9723   */\n      dup3\n        /* \"#utility.yul\":9631:9724   */\n      tag_193\n      jump\t// in\n    tag_331:\n        /* \"#utility.yul\":9749:9751   */\n      0x20\n        /* \"#utility.yul\":9744:9747   */\n      dup3\n        /* \"#utility.yul\":9740:9752   */\n      add\n        /* \"#utility.yul\":9733:9752   */\n      swap1\n      pop\n        /* \"#utility.yul\":9392:9758   */\n      swap2\n      swap1\n      pop\n      jump\t// out\n        /* \"#utility.yul\":9764:10183   */\n    tag_73:\n        /* \"#utility.yul\":9930:9934   */\n      0x00\n        /* \"#utility.yul\":9968:9970   */\n      0x20\n        /* \"#utility.yul\":9957:9966   */\n      dup3\n        /* \"#utility.yul\":9953:9971   */\n      add\n        /* \"#utility.yul\":9945:9971   */\n      swap1\n      pop\n        /* \"#utility.yul\":10017:10026   */\n      dup2\n        /* \"#utility.yul\":10011:10015   */\n      dup2\n        /* \"#utility.yul\":10007:10027   */\n      sub\n        /* \"#utility.yul\":10003:10004   */\n      0x00\n        /* \"#utility.yul\":9992:10001   */\n      dup4\n        /* \"#utility.yul\":9988:10005   */\n      add\n        /* \"#utility.yul\":9981:10028   */\n      mstore\n        /* \"#utility.yul\":10045:10176   */\n      tag_333\n        /* \"#utility.yul\":10171:10175   */\n      dup2\n        /* \"#utility.yul\":10045:10176   */\n      tag_194\n      jump\t// in\n    tag_333:\n        /* \"#utility.yul\":10037:10176   */\n      swap1\n      pop\n        /* \"#utility.yul\":9764:10183   */\n      swap2\n      swap1\n      pop\n      jump\t// out\n        /* \"#utility.yul\":10189:10409   */\n    tag_195:\n        /* \"#utility.yul\":10329:10363   */\n      0x42616e6b20626c6f636b65642066726f6d20706572666f726d696e67204b5943\n        /* \"#utility.yul\":10325:10326   */\n      0x00\n        /* \"#utility.yul\":10317:10323   */\n      dup3\n        /* \"#utility.yul\":10313:10327   */\n      add\n        /* \"#utility.yul\":10306:10364   */\n      mstore\n        /* \"#utility.yul\":10398:10401   */\n      0x2e00000000000000000000000000000000000000000000000000000000000000\n        /* \"#utility.yul\":10393:10395   */\n      0x20\n        /* \"#utility.yul\":10385:10391   */\n      dup3\n        /* \"#utility.yul\":10381:10396   */\n      add\n        /* \"#utility.yul\":10374:10402   */\n      mstore\n        /* \"#utility.yul\":10189:10409   */\n      pop\n      jump\t// out\n        /* \"#utility.yul\":10415:10781   */\n    tag_196:\n        /* \"#utility.yul\":10557:10560   */\n      0x00\n        /* \"#utility.yul\":10578:10645   */\n      tag_336\n        /* \"#utility.yul\":10642:10644   */\n      0x21\n        /* \"#utility.yul\":10637:10640   */\n      dup4\n        /* \"#utility.yul\":10578:10645   */\n      tag_184\n      jump\t// in\n    tag_336:\n        /* \"#utility.yul\":10571:10645   */\n      swap2\n      pop\n        /* \"#utility.yul\":10654:10747   */\n      tag_337\n        /* \"#utility.yul\":10743:10746   */\n      dup3\n        /* \"#utility.yul\":10654:10747   */\n      tag_195\n      jump\t// in\n    tag_337:\n        /* \"#utility.yul\":10772:10774   */\n      0x40\n        /* \"#utility.yul\":10767:10770   */\n      dup3\n        /* \"#utility.yul\":10763:10775   */\n      add\n        /* \"#utility.yul\":10756:10775   */\n      swap1\n      pop\n        /* \"#utility.yul\":10415:10781   */\n      swap2\n      swap1\n      pop\n      jump\t// out\n        /* \"#utility.yul\":10787:11206   */\n    tag_76:\n        /* \"#utility.yul\":10953:10957   */\n      0x00\n        /* \"#utility.yul\":10991:10993   */\n      0x20\n        /* \"#utility.yul\":10980:10989   */\n      dup3\n        /* \"#utility.yul\":10976:10994   */\n      add\n        /* \"#utility.yul\":10968:10994   */\n      swap1\n      pop\n        /* \"#utility.yul\":11040:11049   */\n      dup2\n        /* \"#utility.yul\":11034:11038   */\n      dup2\n        /* \"#utility.yul\":11030:11050   */\n      sub\n        /* \"#utility.yul\":11026:11027   */\n      0x00\n        /* \"#utility.yul\":11015:11024   */\n      dup4\n        /* \"#utility.yul\":11011:11028   */\n      add\n        /* \"#utility.yul\":11004:11051   */\n      mstore\n        /* \"#utility.yul\":11068:11199   */\n      tag_339\n        /* \"#utility.yul\":11194:11198   */\n      dup2\n        /* \"#utility.yul\":11068:11199   */\n      tag_196\n      jump\t// in\n    tag_339:\n        /* \"#utility.yul\":11060:11199   */\n      swap1\n      pop\n        /* \"#utility.yul\":10787:11206   */\n      swap2\n      swap1\n      pop\n      jump\t// out\n        /* \"#utility.yul\":11212:11360   */\n    tag_197:\n        /* \"#utility.yul\":11314:11325   */\n      0x00\n        /* \"#utility.yul\":11351:11354   */\n      dup2\n        /* \"#utility.yul\":11336:11354   */\n      swap1\n      pop\n        /* \"#utility.yul\":11212:11360   */\n      swap3\n      swap2\n      pop\n      pop\n      jump\t// out\n        /* \"#utility.yul\":11366:11756   */\n    tag_198:\n        /* \"#utility.yul\":11472:11475   */\n      0x00\n        /* \"#utility.yul\":11500:11539   */\n      tag_342\n        /* \"#utility.yul\":11533:11538   */\n      dup3\n        /* \"#utility.yul\":11500:11539   */\n      tag_183\n      jump\t// in\n    tag_342:\n        /* \"#utility.yul\":11555:11644   */\n      tag_343\n        /* \"#utility.yul\":11637:11643   */\n      dup2\n        /* \"#utility.yul\":11632:11635   */\n      dup6\n        /* \"#utility.yul\":11555:11644   */\n      tag_197\n      jump\t// in\n    tag_343:\n        /* \"#utility.yul\":11548:11644   */\n      swap4\n      pop\n        /* \"#utility.yul\":11653:11718   */\n      tag_344\n        /* \"#utility.yul\":11711:11717   */\n      dup2\n        /* \"#utility.yul\":11706:11709   */\n      dup6\n        /* \"#utility.yul\":11699:11703   */\n      0x20\n        /* \"#utility.yul\":11692:11697   */\n      dup7\n        /* \"#utility.yul\":11688:11704   */\n      add\n        /* \"#utility.yul\":11653:11718   */\n      tag_185\n      jump\t// in\n    tag_344:\n        /* \"#utility.yul\":11743:11749   */\n      dup1\n        /* \"#utility.yul\":11738:11741   */\n      dup5\n        /* \"#utility.yul\":11734:11750   */\n      add\n        /* \"#utility.yul\":11727:11750   */\n      swap2\n      pop\n        /* \"#utility.yul\":11476:11756   */\n      pop\n        /* \"#utility.yul\":11366:11756   */\n      swap3\n      swap2\n      pop\n      pop\n      jump\t// out\n        /* \"#utility.yul\":11762:12037   */\n    tag_78:\n        /* \"#utility.yul\":11894:11897   */\n      0x00\n        /* \"#utility.yul\":11916:12011   */\n      tag_346\n        /* \"#utility.yul\":12007:12010   */\n      dup3\n        /* \"#utility.yul\":11998:12004   */\n      dup5\n        /* \"#utility.yul\":11916:12011   */\n      tag_198\n      jump\t// in\n    tag_346:\n        /* \"#utility.yul\":11909:12011   */\n      swap2\n      pop\n        /* \"#utility.yul\":12028:12031   */\n      dup2\n        /* \"#utility.yul\":12021:12031   */\n      swap1\n      pop\n        /* \"#utility.yul\":11762:12037   */\n      swap3\n      swap2\n      pop\n      pop\n      jump\t// out\n        /* \"#utility.yul\":12043:12224   */\n    tag_199:\n        /* \"#utility.yul\":12183:12216   */\n      0x437573746f6d65722044657461696c73204e6f74205265676973746572656400\n        /* \"#utility.yul\":12179:12180   */\n      0x00\n        /* \"#utility.yul\":12171:12177   */\n      dup3\n        /* \"#utility.yul\":12167:12181   */\n      add\n        /* \"#utility.yul\":12160:12217   */\n      mstore\n        /* \"#utility.yul\":12043:12224   */\n      pop\n      jump\t// out\n        /* \"#utility.yul\":12230:12596   */\n    tag_200:\n        /* \"#utility.yul\":12372:12375   */\n      0x00\n        /* \"#utility.yul\":12393:12460   */\n      tag_349\n        /* \"#utility.yul\":12457:12459   */\n      0x1f\n        /* \"#utility.yul\":12452:12455   */\n      dup4\n        /* \"#utility.yul\":12393:12460   */\n      tag_184\n      jump\t// in\n    tag_349:\n        /* \"#utility.yul\":12386:12460   */\n      swap2\n      pop\n        /* \"#utility.yul\":12469:12562   */\n      tag_350\n        /* \"#utility.yul\":12558:12561   */\n      dup3\n        /* \"#utility.yul\":12469:12562   */\n      tag_199\n      jump\t// in\n    tag_350:\n        /* \"#utility.yul\":12587:12589   */\n      0x20\n        /* \"#utility.yul\":12582:12585   */\n      dup3\n        /* \"#utility.yul\":12578:12590   */\n      add\n        /* \"#utility.yul\":12571:12590   */\n      swap1\n      pop\n        /* \"#utility.yul\":12230:12596   */\n      swap2\n      swap1\n      pop\n      jump\t// out\n        /* \"#utility.yul\":12602:13021   */\n    tag_82:\n        /* \"#utility.yul\":12768:12772   */\n      0x00\n        /* \"#utility.yul\":12806:12808   */\n      0x20\n        /* \"#utility.yul\":12795:12804   */\n      dup3\n        /* \"#utility.yul\":12791:12809   */\n      add\n        /* \"#utility.yul\":12783:12809   */\n      swap1\n      pop\n        /* \"#utility.yul\":12855:12864   */\n      dup2\n        /* \"#utility.yul\":12849:12853   */\n      dup2\n        /* \"#utility.yul\":12845:12865   */\n      sub\n        /* \"#utility.yul\":12841:12842   */\n      0x00\n        /* \"#utility.yul\":12830:12839   */\n      dup4\n        /* \"#utility.yul\":12826:12843   */\n      add\n        /* \"#utility.yul\":12819:12866   */\n      mstore\n        /* \"#utility.yul\":12883:13014   */\n      tag_352\n        /* \"#utility.yul\":13009:13013   */\n      dup2\n        /* \"#utility.yul\":12883:13014   */\n      tag_200\n      jump\t// in\n    tag_352:\n        /* \"#utility.yul\":12875:13014   */\n      swap1\n      pop\n        /* \"#utility.yul\":12602:13021   */\n      swap2\n      swap1\n      pop\n      jump\t// out\n        /* \"#utility.yul\":13027:13199   */\n    tag_201:\n        /* \"#utility.yul\":13167:13191   */\n      0x496e76616c696420437573746f6d657220446174612e00000000000000000000\n        /* \"#utility.yul\":13163:13164   */\n      0x00\n        /* \"#utility.yul\":13155:13161   */\n      dup3\n        /* \"#utility.yul\":13151:13165   */\n      add\n        /* \"#utility.yul\":13144:13192   */\n      mstore\n        /* \"#utility.yul\":13027:13199   */\n      pop\n      jump\t// out\n        /* \"#utility.yul\":13205:13571   */\n    tag_202:\n        /* \"#utility.yul\":13347:13350   */\n      0x00\n        /* \"#utility.yul\":13368:13435   */\n      tag_355\n        /* \"#utility.yul\":13432:13434   */\n      0x16\n        /* \"#utility.yul\":13427:13430   */\n      dup4\n        /* \"#utility.yul\":13368:13435   */\n      tag_184\n      jump\t// in\n    tag_355:\n        /* \"#utility.yul\":13361:13435   */\n      swap2\n      pop\n        /* \"#utility.yul\":13444:13537   */\n      tag_356\n        /* \"#utility.yul\":13533:13536   */\n      dup3\n        /* \"#utility.yul\":13444:13537   */\n      tag_201\n      jump\t// in\n    tag_356:\n        /* \"#utility.yul\":13562:13564   */\n      0x20\n        /* \"#utility.yul\":13557:13560   */\n      dup3\n        /* \"#utility.yul\":13553:13565   */\n      add\n        /* \"#utility.yul\":13546:13565   */\n      swap1\n      pop\n        /* \"#utility.yul\":13205:13571   */\n      swap2\n      swap1\n      pop\n      jump\t// out\n        /* \"#utility.yul\":13577:13996   */\n    tag_93:\n        /* \"#utility.yul\":13743:13747   */\n      0x00\n        /* \"#utility.yul\":13781:13783   */\n      0x20\n        /* \"#utility.yul\":13770:13779   */\n      dup3\n        /* \"#utility.yul\":13766:13784   */\n      add\n        /* \"#utility.yul\":13758:13784   */\n      swap1\n      pop\n        /* \"#utility.yul\":13830:13839   */\n      dup2\n        /* \"#utility.yul\":13824:13828   */\n      dup2\n        /* \"#utility.yul\":13820:13840   */\n      sub\n        /* \"#utility.yul\":13816:13817   */\n      0x00\n        /* \"#utility.yul\":13805:13814   */\n      dup4\n        /* \"#utility.yul\":13801:13818   */\n      add\n        /* \"#utility.yul\":13794:13841   */\n      mstore\n        /* \"#utility.yul\":13858:13989   */\n      tag_358\n        /* \"#utility.yul\":13984:13988   */\n      dup2\n        /* \"#utility.yul\":13858:13989   */\n      tag_202\n      jump\t// in\n    tag_358:\n        /* \"#utility.yul\":13850:13989   */\n      swap1\n      pop\n        /* \"#utility.yul\":13577:13996   */\n      swap2\n      swap1\n      pop\n      jump\t// out\n        /* \"#utility.yul\":14002:14224   */\n    tag_203:\n        /* \"#utility.yul\":14142:14176   */\n      0x42616e6b20626c6f636b65642066726f6d20616464696e6720637573746f6d65\n        /* \"#utility.yul\":14138:14139   */\n      0x00\n        /* \"#utility.yul\":14130:14136   */\n      dup3\n        /* \"#utility.yul\":14126:14140   */\n      add\n        /* \"#utility.yul\":14119:14177   */\n      mstore\n        /* \"#utility.yul\":14211:14216   */\n      0x72732e0000000000000000000000000000000000000000000000000000000000\n        /* \"#utility.yul\":14206:14208   */\n      0x20\n        /* \"#utility.yul\":14198:14204   */\n      dup3\n        /* \"#utility.yul\":14194:14209   */\n      add\n        /* \"#utility.yul\":14187:14217   */\n      mstore\n        /* \"#utility.yul\":14002:14224   */\n      pop\n      jump\t// out\n        /* \"#utility.yul\":14230:14596   */\n    tag_204:\n        /* \"#utility.yul\":14372:14375   */\n      0x00\n        /* \"#utility.yul\":14393:14460   */\n      tag_361\n        /* \"#utility.yul\":14457:14459   */\n      0x23\n        /* \"#utility.yul\":14452:14455   */\n      dup4\n        /* \"#utility.yul\":14393:14460   */\n      tag_184\n      jump\t// in\n    tag_361:\n        /* \"#utility.yul\":14386:14460   */\n      swap2\n      pop\n        /* \"#utility.yul\":14469:14562   */\n      tag_362\n        /* \"#utility.yul\":14558:14561   */\n      dup3\n        /* \"#utility.yul\":14469:14562   */\n      tag_203\n      jump\t// in\n    tag_362:\n        /* \"#utility.yul\":14587:14589   */\n      0x40\n        /* \"#utility.yul\":14582:14585   */\n      dup3\n        /* \"#utility.yul\":14578:14590   */\n      add\n        /* \"#utility.yul\":14571:14590   */\n      swap1\n      pop\n        /* \"#utility.yul\":14230:14596   */\n      swap2\n      swap1\n      pop\n      jump\t// out\n        /* \"#utility.yul\":14602:15021   */\n    tag_96:\n        /* \"#utility.yul\":14768:14772   */\n      0x00\n        /* \"#utility.yul\":14806:14808   */\n      0x20\n        /* \"#utility.yul\":14795:14804   */\n      dup3\n        /* \"#utility.yul\":14791:14809   */\n      add\n        /* \"#utility.yul\":14783:14809   */\n      swap1\n      pop\n        /* \"#utility.yul\":14855:14864   */\n      dup2\n        /* \"#utility.yul\":14849:14853   */\n      dup2\n        /* \"#utility.yul\":14845:14865   */\n      sub\n        /* \"#utility.yul\":14841:14842   */\n      0x00\n        /* \"#utility.yul\":14830:14839   */\n      dup4\n        /* \"#utility.yul\":14826:14843   */\n      add\n        /* \"#utility.yul\":14819:14866   */\n      mstore\n        /* \"#utility.yul\":14883:15014   */\n      tag_364\n        /* \"#utility.yul\":15009:15013   */\n      dup2\n        /* \"#utility.yul\":14883:15014   */\n      tag_204\n      jump\t// in\n    tag_364:\n        /* \"#utility.yul\":14875:15014   */\n      swap1\n      pop\n        /* \"#utility.yul\":14602:15021   */\n      swap2\n      swap1\n      pop\n      jump\t// out\n        /* \"#utility.yul\":15027:15168   */\n    tag_205:\n        /* \"#utility.yul\":15076:15080   */\n      0x00\n        /* \"#utility.yul\":15099:15102   */\n      dup2\n        /* \"#utility.yul\":15091:15102   */\n      swap1\n      pop\n        /* \"#utility.yul\":15122:15125   */\n      dup2\n        /* \"#utility.yul\":15119:15120   */\n      0x00\n        /* \"#utility.yul\":15112:15126   */\n      mstore\n        /* \"#utility.yul\":15156:15160   */\n      0x20\n        /* \"#utility.yul\":15153:15154   */\n      0x00\n        /* \"#utility.yul\":15143:15161   */\n      keccak256\n        /* \"#utility.yul\":15135:15161   */\n      swap1\n      pop\n        /* \"#utility.yul\":15027:15168   */\n      swap2\n      swap1\n      pop\n      jump\t// out\n        /* \"#utility.yul\":15174:15267   */\n    tag_206:\n        /* \"#utility.yul\":15211:15217   */\n      0x00\n        /* \"#utility.yul\":15258:15260   */\n      0x20\n        /* \"#utility.yul\":15253:15255   */\n      0x1f\n        /* \"#utility.yul\":15246:15251   */\n      dup4\n        /* \"#utility.yul\":15242:15256   */\n      add\n        /* \"#utility.yul\":15238:15261   */\n      div\n        /* \"#utility.yul\":15228:15261   */\n      swap1\n      pop\n        /* \"#utility.yul\":15174:15267   */\n      swap2\n      swap1\n      pop\n      jump\t// out\n        /* \"#utility.yul\":15273:15380   */\n    tag_207:\n        /* \"#utility.yul\":15317:15325   */\n      0x00\n        /* \"#utility.yul\":15367:15372   */\n      dup3\n        /* \"#utility.yul\":15361:15365   */\n      dup3\n        /* \"#utility.yul\":15357:15373   */\n      shl\n        /* \"#utility.yul\":15336:15373   */\n      swap1\n      pop\n        /* \"#utility.yul\":15273:15380   */\n      swap3\n      swap2\n      pop\n      pop\n      jump\t// out\n        /* \"#utility.yul\":15386:15779   */\n    tag_208:\n        /* \"#utility.yul\":15455:15461   */\n      0x00\n        /* \"#utility.yul\":15505:15506   */\n      0x08\n        /* \"#utility.yul\":15493:15503   */\n      dup4\n        /* \"#utility.yul\":15489:15507   */\n      mul\n        /* \"#utility.yul\":15528:15625   */\n      tag_369\n        /* \"#utility.yul\":15558:15624   */\n      0xffffffffffffffffffffffffffffffffffffffffffffffffffffffffffffffff\n        /* \"#utility.yul\":15547:15556   */\n      dup3\n        /* \"#utility.yul\":15528:15625   */\n      tag_207\n      jump\t// in\n    tag_369:\n        /* \"#utility.yul\":15646:15685   */\n      tag_370\n        /* \"#utility.yul\":15676:15684   */\n      dup7\n        /* \"#utility.yul\":15665:15674   */\n      dup4\n        /* \"#utility.yul\":15646:15685   */\n      tag_207\n      jump\t// in\n    tag_370:\n        /* \"#utility.yul\":15634:15685   */\n      swap6\n      pop\n        /* \"#utility.yul\":15718:15722   */\n      dup1\n        /* \"#utility.yul\":15714:15723   */\n      not\n        /* \"#utility.yul\":15707:15712   */\n      dup5\n        /* \"#utility.yul\":15703:15724   */\n      and\n        /* \"#utility.yul\":15694:15724   */\n      swap4\n      pop\n        /* \"#utility.yul\":15767:15771   */\n      dup1\n        /* \"#utility.yul\":15757:15765   */\n      dup7\n        /* \"#utility.yul\":15753:15772   */\n      and\n        /* \"#utility.yul\":15746:15751   */\n      dup5\n        /* \"#utility.yul\":15743:15773   */\n      or\n        /* \"#utility.yul\":15733:15773   */\n      swap3\n      pop\n        /* \"#utility.yul\":15462:15779   */\n      pop\n      pop\n        /* \"#utility.yul\":15386:15779   */\n      swap4\n      swap3\n      pop\n      pop\n      pop\n      jump\t// out\n        /* \"#utility.yul\":15785:15862   */\n    tag_209:\n        /* \"#utility.yul\":15822:15829   */\n      0x00\n        /* \"#utility.yul\":15851:15856   */\n      dup2\n        /* \"#utility.yul\":15840:15856   */\n      swap1\n      pop\n        /* \"#utility.yul\":15785:15862   */\n      swap2\n      swap1\n      pop\n      jump\t// out\n        /* \"#utility.yul\":15868:15928   */\n    tag_210:\n        /* \"#utility.yul\":15896:15899   */\n      0x00\n        /* \"#utility.yul\":15917:15922   */\n      dup2\n        /* \"#utility.yul\":15910:15922   */\n      swap1\n      pop\n        /* \"#utility.yul\":15868:15928   */\n      swap2\n      swap1\n      pop\n      jump\t// out\n        /* \"#utility.yul\":15934:16076   */\n    tag_211:\n        /* \"#utility.yul\":15984:15993   */\n      0x00\n        /* \"#utility.yul\":16017:16070   */\n      tag_374\n        /* \"#utility.yul\":16035:16069   */\n      tag_375\n        /* \"#utility.yul\":16044:16068   */\n      tag_376\n        /* \"#utility.yul\":16062:16067   */\n      dup5\n        /* \"#utility.yul\":16044:16068   */\n      tag_209\n      jump\t// in\n    tag_376:\n        /* \"#utility.yul\":16035:16069   */\n      tag_210\n      jump\t// in\n    tag_375:\n        /* \"#utility.yul\":16017:16070   */\n      tag_209\n      jump\t// in\n    tag_374:\n        /* \"#utility.yul\":16004:16070   */\n      swap1\n      pop\n        /* \"#utility.yul\":15934:16076   */\n      swap2\n      swap1\n      pop\n      jump\t// out\n        /* \"#utility.yul\":16082:16157   */\n    tag_212:\n        /* \"#utility.yul\":16125:16128   */\n      0x00\n        /* \"#utility.yul\":16146:16151   */\n      dup2\n        /* \"#utility.yul\":16139:16151   */\n      swap1\n      pop\n        /* \"#utility.yul\":16082:16157   */\n      swap2\n      swap1\n      pop\n      jump\t// out\n        /* \"#utility.yul\":16163:16432   */\n    tag_213:\n        /* \"#utility.yul\":16273:16312   */\n      tag_379\n        /* \"#utility.yul\":16304:16311   */\n      dup4\n        /* \"#utility.yul\":16273:16312   */\n      tag_211\n      jump\t// in\n    tag_379:\n        /* \"#utility.yul\":16334:16425   */\n      tag_380\n        /* \"#utility.yul\":16383:16424   */\n      tag_381\n        /* \"#utility.yul\":16407:16423   */\n      dup3\n        /* \"#utility.yul\":16383:16424   */\n      tag_212\n      jump\t// in\n    tag_381:\n        /* \"#utility.yul\":16375:16381   */\n      dup5\n        /* \"#utility.yul\":16368:16372   */\n      dup5\n        /* \"#utility.yul\":16362:16373   */\n      sload\n        /* \"#utility.yul\":16334:16425   */\n      tag_208\n      jump\t// in\n    tag_380:\n        /* \"#utility.yul\":16328:16332   */\n      dup3\n        /* \"#utility.yul\":16321:16426   */\n      sstore\n        /* \"#utility.yul\":16239:16432   */\n      pop\n        /* \"#utility.yul\":16163:16432   */\n      pop\n      pop\n      pop\n      jump\t// out\n        /* \"#utility.yul\":16438:16511   */\n    tag_214:\n        /* \"#utility.yul\":16483:16486   */\n      0x00\n        /* \"#utility.yul\":16438:16511   */\n      swap1\n      jump\t// out\n        /* \"#utility.yul\":16517:16706   */\n    tag_215:\n        /* \"#utility.yul\":16594:16626   */\n      tag_384\n      tag_214\n      jump\t// in\n    tag_384:\n        /* \"#utility.yul\":16635:16700   */\n      tag_385\n        /* \"#utility.yul\":16693:16699   */\n      dup2\n        /* \"#utility.yul\":16685:16691   */\n      dup5\n        /* \"#utility.yul\":16679:16683   */\n      dup5\n        /* \"#utility.yul\":16635:16700   */\n      tag_213\n      jump\t// in\n    tag_385:\n        /* \"#utility.yul\":16570:16706   */\n      pop\n        /* \"#utility.yul\":16517:16706   */\n      pop\n      pop\n      jump\t// out\n        /* \"#utility.yul\":16712:16898   */\n    tag_216:\n        /* \"#utility.yul\":16772:16892   */\n    tag_387:\n        /* \"#utility.yul\":16789:16792   */\n      dup2\n        /* \"#utility.yul\":16782:16787   */\n      dup2\n        /* \"#utility.yul\":16779:16793   */\n      lt\n        /* \"#utility.yul\":16772:16892   */\n      iszero\n      tag_389\n      jumpi\n        /* \"#utility.yul\":16843:16882   */\n      tag_390\n        /* \"#utility.yul\":16880:16881   */\n      0x00\n        /* \"#utility.yul\":16873:16878   */\n      dup3\n        /* \"#utility.yul\":16843:16882   */\n      tag_215\n      jump\t// in\n    tag_390:\n        /* \"#utility.yul\":16816:16817   */\n      0x01\n        /* \"#utility.yul\":16809:16814   */\n      dup2\n        /* \"#utility.yul\":16805:16818   */\n      add\n        /* \"#utility.yul\":16796:16818   */\n      swap1\n      pop\n        /* \"#utility.yul\":16772:16892   */\n      jump(tag_387)\n    tag_389:\n        /* \"#utility.yul\":16712:16898   */\n      pop\n      pop\n      jump\t// out\n        /* \"#utility.yul\":16904:17447   */\n    tag_217:\n        /* \"#utility.yul\":17005:17007   */\n      0x1f\n        /* \"#utility.yul\":17000:17003   */\n      dup3\n        /* \"#utility.yul\":16997:17008   */\n      gt\n        /* \"#utility.yul\":16994:17440   */\n      iszero\n      tag_392\n      jumpi\n        /* \"#utility.yul\":17039:17077   */\n      tag_393\n        /* \"#utility.yul\":17071:17076   */\n      dup2\n        /* \"#utility.yul\":17039:17077   */\n      tag_205\n      jump\t// in\n    tag_393:\n        /* \"#utility.yul\":17123:17152   */\n      tag_394\n        /* \"#utility.yul\":17141:17151   */\n      dup5\n        /* \"#utility.yul\":17123:17152   */\n      tag_206\n      jump\t// in\n    tag_394:\n        /* \"#utility.yul\":17113:17121   */\n      dup2\n        /* \"#utility.yul\":17109:17153   */\n      add\n        /* \"#utility.yul\":17306:17308   */\n      0x20\n        /* \"#utility.yul\":17294:17304   */\n      dup6\n        /* \"#utility.yul\":17291:17309   */\n      lt\n        /* \"#utility.yul\":17288:17337   */\n      iszero\n      tag_395\n      jumpi\n        /* \"#utility.yul\":17327:17335   */\n      dup2\n        /* \"#utility.yul\":17312:17335   */\n      swap1\n      pop\n        /* \"#utility.yul\":17288:17337   */\n    tag_395:\n        /* \"#utility.yul\":17350:17430   */\n      tag_396\n        /* \"#utility.yul\":17406:17428   */\n      tag_397\n        /* \"#utility.yul\":17424:17427   */\n      dup6\n        /* \"#utility.yul\":17406:17428   */\n      tag_206\n      jump\t// in\n    tag_397:\n        /* \"#utility.yul\":17396:17404   */\n      dup4\n        /* \"#utility.yul\":17392:17429   */\n      add\n        /* \"#utility.yul\":17379:17390   */\n      dup3\n        /* \"#utility.yul\":17350:17430   */\n      tag_216\n      jump\t// in\n    tag_396:\n        /* \"#utility.yul\":17009:17440   */\n      pop\n      pop\n        /* \"#utility.yul\":16994:17440   */\n    tag_392:\n        /* \"#utility.yul\":16904:17447   */\n      pop\n      pop\n      pop\n      jump\t// out\n        /* \"#utility.yul\":17453:17570   */\n    tag_218:\n        /* \"#utility.yul\":17507:17515   */\n      0x00\n        /* \"#utility.yul\":17557:17562   */\n      dup3\n        /* \"#utility.yul\":17551:17555   */\n      dup3\n        /* \"#utility.yul\":17547:17563   */\n      shr\n        /* \"#utility.yul\":17526:17563   */\n      swap1\n      pop\n        /* \"#utility.yul\":17453:17570   */\n      swap3\n      swap2\n      pop\n      pop\n      jump\t// out\n        /* \"#utility.yul\":17576:17745   */\n    tag_219:\n        /* \"#utility.yul\":17620:17626   */\n      0x00\n        /* \"#utility.yul\":17653:17704   */\n      tag_400\n        /* \"#utility.yul\":17701:17702   */\n      0x00\n        /* \"#utility.yul\":17697:17703   */\n      not\n        /* \"#utility.yul\":17689:17694   */\n      dup5\n        /* \"#utility.yul\":17686:17687   */\n      0x08\n        /* \"#utility.yul\":17682:17695   */\n      mul\n        /* \"#utility.yul\":17653:17704   */\n      tag_218\n      jump\t// in\n    tag_400:\n        /* \"#utility.yul\":17649:17705   */\n      not\n        /* \"#utility.yul\":17734:17738   */\n      dup1\n        /* \"#utility.yul\":17728:17732   */\n      dup4\n        /* \"#utility.yul\":17724:17739   */\n      and\n        /* \"#utility.yul\":17714:17739   */\n      swap2\n      pop\n        /* \"#utility.yul\":17627:17745   */\n      pop\n        /* \"#utility.yul\":17576:17745   */\n      swap3\n      swap2\n      pop\n      pop\n      jump\t// out\n        /* \"#utility.yul\":17750:18045   */\n    tag_220:\n        /* \"#utility.yul\":17826:17830   */\n      0x00\n        /* \"#utility.yul\":17972:18001   */\n      tag_402\n        /* \"#utility.yul\":17997:18000   */\n      dup4\n        /* \"#utility.yul\":17991:17995   */\n      dup4\n        /* \"#utility.yul\":17972:18001   */\n      tag_219\n      jump\t// in\n    tag_402:\n        /* \"#utility.yul\":17964:18001   */\n      swap2\n      pop\n        /* \"#utility.yul\":18034:18037   */\n      dup3\n        /* \"#utility.yul\":18031:18032   */\n      0x02\n        /* \"#utility.yul\":18027:18038   */\n      mul\n        /* \"#utility.yul\":18021:18025   */\n      dup3\n        /* \"#utility.yul\":18018:18039   */\n      or\n        /* \"#utility.yul\":18010:18039   */\n      swap1\n      pop\n        /* \"#utility.yul\":17750:18045   */\n      swap3\n      swap2\n      pop\n      pop\n      jump\t// out\n        /* \"#utility.yul\":18050:19445   */\n    tag_99:\n        /* \"#utility.yul\":18167:18204   */\n      tag_404\n        /* \"#utility.yul\":18200:18203   */\n      dup3\n        /* \"#utility.yul\":18167:18204   */\n      tag_183\n      jump\t// in\n    tag_404:\n        /* \"#utility.yul\":18269:18287   */\n      0xffffffffffffffff\n        /* \"#utility.yul\":18261:18267   */\n      dup2\n        /* \"#utility.yul\":18258:18288   */\n      gt\n        /* \"#utility.yul\":18255:18311   */\n      iszero\n      tag_405\n      jumpi\n        /* \"#utility.yul\":18291:18309   */\n      tag_406\n      tag_172\n      jump\t// in\n    tag_406:\n        /* \"#utility.yul\":18255:18311   */\n    tag_405:\n        /* \"#utility.yul\":18335:18373   */\n      tag_407\n        /* \"#utility.yul\":18367:18371   */\n      dup3\n        /* \"#utility.yul\":18361:18372   */\n      sload\n        /* \"#utility.yul\":18335:18373   */\n      tag_66\n      jump\t// in\n    tag_407:\n        /* \"#utility.yul\":18420:18487   */\n      tag_408\n        /* \"#utility.yul\":18480:18486   */\n      dup3\n        /* \"#utility.yul\":18472:18478   */\n      dup3\n        /* \"#utility.yul\":18466:18470   */\n      dup6\n        /* \"#utility.yul\":18420:18487   */\n      tag_217\n      jump\t// in\n    tag_408:\n        /* \"#utility.yul\":18514:18515   */\n      0x00\n        /* \"#utility.yul\":18538:18542   */\n      0x20\n        /* \"#utility.yul\":18525:18542   */\n      swap1\n      pop\n        /* \"#utility.yul\":18570:18572   */\n      0x1f\n        /* \"#utility.yul\":18562:18568   */\n      dup4\n        /* \"#utility.yul\":18559:18573   */\n      gt\n        /* \"#utility.yul\":18587:18588   */\n      0x01\n        /* \"#utility.yul\":18582:19200   */\n      dup2\n      eq\n      tag_410\n      jumpi\n        /* \"#utility.yul\":19244:19245   */\n      0x00\n        /* \"#utility.yul\":19261:19267   */\n      dup5\n        /* \"#utility.yul\":19258:19335   */\n      iszero\n      tag_411\n      jumpi\n        /* \"#utility.yul\":19310:19319   */\n      dup3\n        /* \"#utility.yul\":19305:19308   */\n      dup8\n        /* \"#utility.yul\":19301:19320   */\n      add\n        /* \"#utility.yul\":19295:19321   */\n      mload\n        /* \"#utility.yul\":19286:19321   */\n      swap1\n      pop\n        /* \"#utility.yul\":19258:19335   */\n    tag_411:\n        /* \"#utility.yul\":19361:19428   */\n      tag_412\n        /* \"#utility.yul\":19421:19427   */\n      dup6\n        /* \"#utility.yul\":19414:19419   */\n      dup3\n        /* \"#utility.yul\":19361:19428   */\n      tag_220\n      jump\t// in\n    tag_412:\n        /* \"#utility.yul\":19355:19359   */\n      dup7\n        /* \"#utility.yul\":19348:19429   */\n      sstore\n        /* \"#utility.yul\":19217:19439   */\n      pop\n        /* \"#utility.yul\":18552:19439   */\n      jump(tag_409)\n        /* \"#utility.yul\":18582:19200   */\n    tag_410:\n        /* \"#utility.yul\":18634:18638   */\n      0x1f\n        /* \"#utility.yul\":18630:18639   */\n      not\n        /* \"#utility.yul\":18622:18628   */\n      dup5\n        /* \"#utility.yul\":18618:18640   */\n      and\n        /* \"#utility.yul\":18668:18705   */\n      tag_413\n        /* \"#utility.yul\":18700:18704   */\n      dup7\n        /* \"#utility.yul\":18668:18705   */\n      tag_205\n      jump\t// in\n    tag_413:\n        /* \"#utility.yul\":18727:18728   */\n      0x00\n        /* \"#utility.yul\":18741:18949   */\n    tag_414:\n        /* \"#utility.yul\":18755:18762   */\n      dup3\n        /* \"#utility.yul\":18752:18753   */\n      dup2\n        /* \"#utility.yul\":18749:18763   */\n      lt\n        /* \"#utility.yul\":18741:18949   */\n      iszero\n      tag_416\n      jumpi\n        /* \"#utility.yul\":18834:18843   */\n      dup5\n        /* \"#utility.yul\":18829:18832   */\n      dup10\n        /* \"#utility.yul\":18825:18844   */\n      add\n        /* \"#utility.yul\":18819:18845   */\n      mload\n        /* \"#utility.yul\":18811:18817   */\n      dup3\n        /* \"#utility.yul\":18804:18846   */\n      sstore\n        /* \"#utility.yul\":18885:18886   */\n      0x01\n        /* \"#utility.yul\":18877:18883   */\n      dup3\n        /* \"#utility.yul\":18873:18887   */\n      add\n        /* \"#utility.yul\":18863:18887   */\n      swap2\n      pop\n        /* \"#utility.yul\":18932:18934   */\n      0x20\n        /* \"#utility.yul\":18921:18930   */\n      dup6\n        /* \"#utility.yul\":18917:18935   */\n      add\n        /* \"#utility.yul\":18904:18935   */\n      swap5\n      pop\n        /* \"#utility.yul\":18778:18782   */\n      0x20\n        /* \"#utility.yul\":18775:18776   */\n      dup2\n        /* \"#utility.yul\":18771:18783   */\n      add\n        /* \"#utility.yul\":18766:18783   */\n      swap1\n      pop\n        /* \"#utility.yul\":18741:18949   */\n      jump(tag_414)\n    tag_416:\n        /* \"#utility.yul\":18977:18983   */\n      dup7\n        /* \"#utility.yul\":18968:18975   */\n      dup4\n        /* \"#utility.yul\":18965:18984   */\n      lt\n        /* \"#utility.yul\":18962:19141   */\n      iszero\n      tag_417\n      jumpi\n        /* \"#utility.yul\":19035:19044   */\n      dup5\n        /* \"#utility.yul\":19030:19033   */\n      dup10\n        /* \"#utility.yul\":19026:19045   */\n      add\n        /* \"#utility.yul\":19020:19046   */\n      mload\n        /* \"#utility.yul\":19078:19126   */\n      tag_418\n        /* \"#utility.yul\":19120:19124   */\n      0x1f\n        /* \"#utility.yul\":19112:19118   */\n      dup10\n        /* \"#utility.yul\":19108:19125   */\n      and\n        /* \"#utility.yul\":19097:19106   */\n      dup3\n        /* \"#utility.yul\":19078:19126   */\n      tag_219\n      jump\t// in\n    tag_418:\n        /* \"#utility.yul\":19070:19076   */\n      dup4\n        /* \"#utility.yul\":19063:19127   */\n      sstore\n        /* \"#utility.yul\":18985:19141   */\n      pop\n        /* \"#utility.yul\":18962:19141   */\n    tag_417:\n        /* \"#utility.yul\":19187:19188   */\n      0x01\n        /* \"#utility.yul\":19183:19184   */\n      0x02\n        /* \"#utility.yul\":19175:19181   */\n      dup9\n        /* \"#utility.yul\":19171:19185   */\n      mul\n        /* \"#utility.yul\":19167:19189   */\n      add\n        /* \"#utility.yul\":19161:19165   */\n      dup9\n        /* \"#utility.yul\":19154:19190   */\n      sstore\n        /* \"#utility.yul\":18589:19200   */\n      pop\n      pop\n      pop\n        /* \"#utility.yul\":18552:19439   */\n    tag_409:\n      pop\n        /* \"#utility.yul\":18142:19445   */\n      pop\n      pop\n      pop\n        /* \"#utility.yul\":18050:19445   */\n      pop\n      pop\n      jump\t// out\n        /* \"#utility.yul\":19451:19616   */\n    tag_221:\n        /* \"#utility.yul\":19591:19608   */\n      0x4b59433a204f6e6c792041646d696e0000000000000000000000000000000000\n        /* \"#utility.yul\":19587:19588   */\n      0x00\n        /* \"#utility.yul\":19579:19585   */\n      dup3\n        /* \"#utility.yul\":19575:19589   */\n      add\n        /* \"#utility.yul\":19568:19609   */\n      mstore\n        /* \"#utility.yul\":19451:19616   */\n      pop\n      jump\t// out\n        /* \"#utility.yul\":19622:19988   */\n    tag_222:\n        /* \"#utility.yul\":19764:19767   */\n      0x00\n        /* \"#utility.yul\":19785:19852   */\n      tag_421\n        /* \"#utility.yul\":19849:19851   */\n      0x0f\n        /* \"#utility.yul\":19844:19847   */\n      dup4\n        /* \"#utility.yul\":19785:19852   */\n      tag_184\n      jump\t// in\n    tag_421:\n        /* \"#utility.yul\":19778:19852   */\n      swap2\n      pop\n        /* \"#utility.yul\":19861:19954   */\n      tag_422\n        /* \"#utility.yul\":19950:19953   */\n      dup3\n        /* \"#utility.yul\":19861:19954   */\n      tag_221\n      jump\t// in\n    tag_422:\n        /* \"#utility.yul\":19979:19981   */\n      0x20\n        /* \"#utility.yul\":19974:19977   */\n      dup3\n        /* \"#utility.yul\":19970:19982   */\n      add\n        /* \"#utility.yul\":19963:19982   */\n      swap1\n      pop\n        /* \"#utility.yul\":19622:19988   */\n      swap2\n      swap1\n      pop\n      jump\t// out\n        /* \"#utility.yul\":19994:20413   */\n    tag_103:\n        /* \"#utility.yul\":20160:20164   */\n      0x00\n        /* \"#utility.yul\":20198:20200   */\n      0x20\n        /* \"#utility.yul\":20187:20196   */\n      dup3\n        /* \"#utility.yul\":20183:20201   */\n      add\n        /* \"#utility.yul\":20175:20201   */\n      swap1\n      pop\n        /* \"#utility.yul\":20247:20256   */\n      dup2\n        /* \"#utility.yul\":20241:20245   */\n      dup2\n        /* \"#utility.yul\":20237:20257   */\n      sub\n        /* \"#utility.yul\":20233:20234   */\n      0x00\n        /* \"#utility.yul\":20222:20231   */\n      dup4\n        /* \"#utility.yul\":20218:20235   */\n      add\n        /* \"#utility.yul\":20211:20258   */\n      mstore\n        /* \"#utility.yul\":20275:20406   */\n      tag_424\n        /* \"#utility.yul\":20401:20405   */\n      dup2\n        /* \"#utility.yul\":20275:20406   */\n      tag_222\n      jump\t// in\n    tag_424:\n        /* \"#utility.yul\":20267:20406   */\n      swap1\n      pop\n        /* \"#utility.yul\":19994:20413   */\n      swap2\n      swap1\n      pop\n      jump\t// out\n        /* \"#utility.yul\":20419:20590   */\n    tag_223:\n        /* \"#utility.yul\":20559:20582   */\n      0x496e76616c69642042616e6b20416464726573732e0000000000000000000000\n        /* \"#utility.yul\":20555:20556   */\n      0x00\n        /* \"#utility.yul\":20547:20553   */\n      dup3\n        /* \"#utility.yul\":20543:20557   */\n      add\n        /* \"#utility.yul\":20536:20583   */\n      mstore\n        /* \"#utility.yul\":20419:20590   */\n      pop\n      jump\t// out\n        /* \"#utility.yul\":20596:20962   */\n    tag_224:\n        /* \"#utility.yul\":20738:20741   */\n      0x00\n        /* \"#utility.yul\":20759:20826   */\n      tag_427\n        /* \"#utility.yul\":20823:20825   */\n      0x15\n        /* \"#utility.yul\":20818:20821   */\n      dup4\n        /* \"#utility.yul\":20759:20826   */\n      tag_184\n      jump\t// in\n    tag_427:\n        /* \"#utility.yul\":20752:20826   */\n      swap2\n      pop\n        /* \"#utility.yul\":20835:20928   */\n      tag_428\n        /* \"#utility.yul\":20924:20927   */\n      dup3\n        /* \"#utility.yul\":20835:20928   */\n      tag_223\n      jump\t// in\n    tag_428:\n        /* \"#utility.yul\":20953:20955   */\n      0x20\n        /* \"#utility.yul\":20948:20951   */\n      dup3\n        /* \"#utility.yul\":20944:20956   */\n      add\n        /* \"#utility.yul\":20937:20956   */\n      swap1\n      pop\n        /* \"#utility.yul\":20596:20962   */\n      swap2\n      swap1\n      pop\n      jump\t// out\n        /* \"#utility.yul\":20968:21387   */\n    tag_107:\n        /* \"#utility.yul\":21134:21138   */\n      0x00\n        /* \"#utility.yul\":21172:21174   */\n      0x20\n        /* \"#utility.yul\":21161:21170   */\n      dup3\n        /* \"#utility.yul\":21157:21175   */\n      add\n        /* \"#utility.yul\":21149:21175   */\n      swap1\n      pop\n        /* \"#utility.yul\":21221:21230   */\n      dup2\n        /* \"#utility.yul\":21215:21219   */\n      dup2\n        /* \"#utility.yul\":21211:21231   */\n      sub\n        /* \"#utility.yul\":21207:21208   */\n      0x00\n        /* \"#utility.yul\":21196:21205   */\n      dup4\n        /* \"#utility.yul\":21192:21209   */\n      add\n        /* \"#utility.yul\":21185:21232   */\n      mstore\n        /* \"#utility.yul\":21249:21380   */\n      tag_430\n        /* \"#utility.yul\":21375:21379   */\n      dup2\n        /* \"#utility.yul\":21249:21380   */\n      tag_224\n      jump\t// in\n    tag_430:\n        /* \"#utility.yul\":21241:21380   */\n      swap1\n      pop\n        /* \"#utility.yul\":20968:21387   */\n      swap2\n      swap1\n      pop\n      jump\t// out\n        /* \"#utility.yul\":21393:21574   */\n    tag_225:\n        /* \"#utility.yul\":21533:21566   */\n      0x41646472657373206e6f7420726567697374657265642061732062616e6b2e00\n        /* \"#utility.yul\":21529:21530   */\n      0x00\n        /* \"#utility.yul\":21521:21527   */\n      dup3\n        /* \"#utility.yul\":21517:21531   */\n      add\n        /* \"#utility.yul\":21510:21567   */\n      mstore\n        /* \"#utility.yul\":21393:21574   */\n      pop\n      jump\t// out\n        /* \"#utility.yul\":21580:21946   */\n    tag_226:\n        /* \"#utility.yul\":21722:21725   */\n      0x00\n        /* \"#utility.yul\":21743:21810   */\n      tag_433\n        /* \"#utility.yul\":21807:21809   */\n      0x1f\n        /* \"#utility.yul\":21802:21805   */\n      dup4\n        /* \"#utility.yul\":21743:21810   */\n      tag_184\n      jump\t// in\n    tag_433:\n        /* \"#utility.yul\":21736:21810   */\n      swap2\n      pop\n        /* \"#utility.yul\":21819:21912   */\n      tag_434\n        /* \"#utility.yul\":21908:21911   */\n      dup3\n        /* \"#utility.yul\":21819:21912   */\n      tag_225\n      jump\t// in\n    tag_434:\n        /* \"#utility.yul\":21937:21939   */\n      0x20\n        /* \"#utility.yul\":21932:21935   */\n      dup3\n        /* \"#utility.yul\":21928:21940   */\n      add\n        /* \"#utility.yul\":21921:21940   */\n      swap1\n      pop\n        /* \"#utility.yul\":21580:21946   */\n      swap2\n      swap1\n      pop\n      jump\t// out\n        /* \"#utility.yul\":21952:22371   */\n    tag_111:\n        /* \"#utility.yul\":22118:22122   */\n      0x00\n        /* \"#utility.yul\":22156:22158   */\n      0x20\n        /* \"#utility.yul\":22145:22154   */\n      dup3\n        /* \"#utility.yul\":22141:22159   */\n      add\n        /* \"#utility.yul\":22133:22159   */\n      swap1\n      pop\n        /* \"#utility.yul\":22205:22214   */\n      dup2\n        /* \"#utility.yul\":22199:22203   */\n      dup2\n        /* \"#utility.yul\":22195:22215   */\n      sub\n        /* \"#utility.yul\":22191:22192   */\n      0x00\n        /* \"#utility.yul\":22180:22189   */\n      dup4\n        /* \"#utility.yul\":22176:22193   */\n      add\n        /* \"#utility.yul\":22169:22216   */\n      mstore\n        /* \"#utility.yul\":22233:22364   */\n      tag_436\n        /* \"#utility.yul\":22359:22363   */\n      dup2\n        /* \"#utility.yul\":22233:22364   */\n      tag_226\n      jump\t// in\n    tag_436:\n        /* \"#utility.yul\":22225:22364   */\n      swap1\n      pop\n        /* \"#utility.yul\":21952:22371   */\n      swap2\n      swap1\n      pop\n      jump\t// out\n        /* \"#utility.yul\":22377:22545   */\n    tag_227:\n        /* \"#utility.yul\":22517:22537   */\n      0x496e76616c69642042616e6b204e616d652e0000000000000000000000000000\n        /* \"#utility.yul\":22513:22514   */\n      0x00\n        /* \"#utility.yul\":22505:22511   */\n      dup3\n        /* \"#utility.yul\":22501:22515   */\n      add\n        /* \"#utility.yul\":22494:22538   */\n      mstore\n        /* \"#utility.yul\":22377:22545   */\n      pop\n      jump\t// out\n        /* \"#utility.yul\":22551:22917   */\n    tag_228:\n        /* \"#utility.yul\":22693:22696   */\n      0x00\n        /* \"#utility.yul\":22714:22781   */\n      tag_439\n        /* \"#utility.yul\":22778:22780   */\n      0x12\n        /* \"#utility.yul\":22773:22776   */\n      dup4\n        /* \"#utility.yul\":22714:22781   */\n      tag_184\n      jump\t// in\n    tag_439:\n        /* \"#utility.yul\":22707:22781   */\n      swap2\n      pop\n        /* \"#utility.yul\":22790:22883   */\n      tag_440\n        /* \"#utility.yul\":22879:22882   */\n      dup3\n        /* \"#utility.yul\":22790:22883   */\n      tag_227\n      jump\t// in\n    tag_440:\n        /* \"#utility.yul\":22908:22910   */\n      0x20\n        /* \"#utility.yul\":22903:22906   */\n      dup3\n        /* \"#utility.yul\":22899:22911   */\n      add\n        /* \"#utility.yul\":22892:22911   */\n      swap1\n      pop\n        /* \"#utility.yul\":22551:22917   */\n      swap2\n      swap1\n      pop\n      jump\t// out\n        /* \"#utility.yul\":22923:23342   */\n    tag_126:\n        /* \"#utility.yul\":23089:23093   */\n      0x00\n        /* \"#utility.yul\":23127:23129   */\n      0x20\n        /* \"#utility.yul\":23116:23125   */\n      dup3\n        /* \"#utility.yul\":23112:23130   */\n      add\n        /* \"#utility.yul\":23104:23130   */\n      swap1\n      pop\n        /* \"#utility.yul\":23176:23185   */\n      dup2\n        /* \"#utility.yul\":23170:23174   */\n      dup2\n        /* \"#utility.yul\":23166:23186   */\n      sub\n        /* \"#utility.yul\":23162:23163   */\n      0x00\n        /* \"#utility.yul\":23151:23160   */\n      dup4\n        /* \"#utility.yul\":23147:23164   */\n      add\n        /* \"#utility.yul\":23140:23187   */\n      mstore\n        /* \"#utility.yul\":23204:23335   */\n      tag_442\n        /* \"#utility.yul\":23330:23334   */\n      dup2\n        /* \"#utility.yul\":23204:23335   */\n      tag_228\n      jump\t// in\n    tag_442:\n        /* \"#utility.yul\":23196:23335   */\n      swap1\n      pop\n        /* \"#utility.yul\":22923:23342   */\n      swap2\n      swap1\n      pop\n      jump\t// out\n        /* \"#utility.yul\":23348:23518   */\n    tag_229:\n        /* \"#utility.yul\":23488:23510   */\n      0x42616e6b20616c7265616479206578697374732e000000000000000000000000\n        /* \"#utility.yul\":23484:23485   */\n      0x00\n        /* \"#utility.yul\":23476:23482   */\n      dup3\n        /* \"#utility.yul\":23472:23486   */\n      add\n        /* \"#utility.yul\":23465:23511   */\n      mstore\n        /* \"#utility.yul\":23348:23518   */\n      pop\n      jump\t// out\n        /* \"#utility.yul\":23524:23890   */\n    tag_230:\n        /* \"#utility.yul\":23666:23669   */\n      0x00\n        /* \"#utility.yul\":23687:23754   */\n      tag_445\n        /* \"#utility.yul\":23751:23753   */\n      0x14\n        /* \"#utility.yul\":23746:23749   */\n      dup4\n        /* \"#utility.yul\":23687:23754   */\n      tag_184\n      jump\t// in\n    tag_445:\n        /* \"#utility.yul\":23680:23754   */\n      swap2\n      pop\n        /* \"#utility.yul\":23763:23856   */\n      tag_446\n        /* \"#utility.yul\":23852:23855   */\n      dup3\n        /* \"#utility.yul\":23763:23856   */\n      tag_229\n      jump\t// in\n    tag_446:\n        /* \"#utility.yul\":23881:23883   */\n      0x20\n        /* \"#utility.yul\":23876:23879   */\n      dup3\n        /* \"#utility.yul\":23872:23884   */\n      add\n        /* \"#utility.yul\":23865:23884   */\n      swap1\n      pop\n        /* \"#utility.yul\":23524:23890   */\n      swap2\n      swap1\n      pop\n      jump\t// out\n        /* \"#utility.yul\":23896:24315   */\n    tag_132:\n        /* \"#utility.yul\":24062:24066   */\n      0x00\n        /* \"#utility.yul\":24100:24102   */\n      0x20\n        /* \"#utility.yul\":24089:24098   */\n      dup3\n        /* \"#utility.yul\":24085:24103   */\n      add\n        /* \"#utility.yul\":24077:24103   */\n      swap1\n      pop\n        /* \"#utility.yul\":24149:24158   */\n      dup2\n        /* \"#utility.yul\":24143:24147   */\n      dup2\n        /* \"#utility.yul\":24139:24159   */\n      sub\n        /* \"#utility.yul\":24135:24136   */\n      0x00\n        /* \"#utility.yul\":24124:24133   */\n      dup4\n        /* \"#utility.yul\":24120:24137   */\n      add\n        /* \"#utility.yul\":24113:24160   */\n      mstore\n        /* \"#utility.yul\":24177:24308   */\n      tag_448\n        /* \"#utility.yul\":24303:24307   */\n      dup2\n        /* \"#utility.yul\":24177:24308   */\n      tag_230\n      jump\t// in\n    tag_448:\n        /* \"#utility.yul\":24169:24308   */\n      swap1\n      pop\n        /* \"#utility.yul\":23896:24315   */\n      swap2\n      swap1\n      pop\n      jump\t// out\n\n    auxdata: 0xa26469706673582212209100aecfd2ecd2966462f2160da1e00f9c2e9c0344d3a22ed7fd296cebd958a764736f6c634300081a0033\n}\n",
				"bytecode": {
					"linkReferences": {},
					"object": "608060405234801561000f575f80fd5b50604051611ea0380380611ea0833981810160405281019061003191906100d4565b805f806101000a81548173ffffffffffffffffffffffffffffffffffffffff021916908373ffffffffffffffffffffffffffffffffffffffff160217905550506100ff565b5f80fd5b5f73ffffffffffffffffffffffffffffffffffffffff82169050919050565b5f6100a38261007a565b9050919050565b6100b381610099565b81146100bd575f80fd5b50565b5f815190506100ce816100aa565b92915050565b5f602082840312156100e9576100e8610076565b5b5f6100f6848285016100c0565b91505092915050565b611d948061010c5f395ff3fe608060405234801561000f575f80fd5b50600436106100b2575f3560e01c806380c3b8c21161006f57806380c3b8c2146101875780639de31c97146101b7578063a1b72d1d146101d3578063ad23d42c146101ef578063f0b0b9301461020b578063f851a4401461023b576100b2565b80632114e478146100b6578063284d250a146100d25780632a5e3bb0146100ee5780634a6c2f611461010a57806359cc31871461013b578063706312cf1461016b575b5f80fd5b6100d060048036038101906100cb91906112d3565b610259565b005b6100ec60048036038101906100e7919061131a565b610456565b005b610108600480360381019061010391906113ea565b610621565b005b610124600480360381019061011f91906112d3565b6107fe565b60405161013292919061148f565b60405180910390f35b610155600480360381019061015091906113ea565b6108dd565b60405161016291906114bd565b60405180910390f35b610185600480360381019061018091906114d6565b6108fa565b005b6101a1600480360381019061019c91906113ea565b610b12565b6040516101ae9190611530565b60405180910390f35b6101d160048036038101906101cc91906113ea565b610bad565b005b6101ed60048036038101906101e891906113ea565b610d8b565b005b610209600480360381019061020491906113ea565b610f68565b005b610225600480360381019061022091906113ea565b611146565b60405161023291906114bd565b60405180910390f35b610243611163565b604051610250919061155f565b60405180910390f35b5f60015f3373ffffffffffffffffffffffffffffffffffffffff1673ffffffffffffffffffffffffffffffffffffffff1681526020019081526020015f2080546102a2906115a5565b9050116102e4576040517f08c379a00000000000000000000000000000000000000000000000000000000081526004016102db9061161f565b60405180910390fd5b5f815111610327576040517f08c379a000000000000000000000000000000000000000000000000000000000815260040161031e90611687565b60405180910390fd5b60055f3373ffffffffffffffffffffffffffffffffffffffff1673ffffffffffffffffffffffffffffffffffffffff1681526020019081526020015f205f9054906101000a900460ff16156103b1576040517f08c379a00000000000000000000000000000000000000000000000000000000081526004016103a890611715565b60405180910390fd5b5f6002826040516103c2919061176d565b908152602001604051809103902080546103db906115a5565b90501161041d576040517f08c379a0000000000000000000000000000000000000000000000000000000008152600401610414906117cd565b60405180910390fd5b600160038260405161042f919061176d565b90815260200160405180910390205f6101000a81548160ff02191690831515021790555050565b5f60015f3373ffffffffffffffffffffffffffffffffffffffff1673ffffffffffffffffffffffffffffffffffffffff1681526020019081526020015f20805461049f906115a5565b9050116104e1576040517f08c379a00000000000000000000000000000000000000000000000000000000081526004016104d89061161f565b60405180910390fd5b5f825111610524576040517f08c379a000000000000000000000000000000000000000000000000000000000815260040161051b90611687565b60405180910390fd5b5f815111610567576040517f08c379a000000000000000000000000000000000000000000000000000000000815260040161055e90611835565b60405180910390fd5b60045f3373ffffffffffffffffffffffffffffffffffffffff1673ffffffffffffffffffffffffffffffffffffffff1681526020019081526020015f205f9054906101000a900460ff16156105f1576040517f08c379a00000000000000000000000000000000000000000000000000000000081526004016105e8906118c3565b60405180910390fd5b80600283604051610602919061176d565b9081526020016040518091039020908161061c9190611a87565b505050565b5f8054906101000a900473ffffffffffffffffffffffffffffffffffffffff1673ffffffffffffffffffffffffffffffffffffffff163373ffffffffffffffffffffffffffffffffffffffff16146106ae576040517f08c379a00000000000000000000000000000000000000000000000000000000081526004016106a590611ba0565b60405180910390fd5b5f73ffffffffffffffffffffffffffffffffffffffff168173ffffffffffffffffffffffffffffffffffffffff160361071c576040517f08c379a000000000000000000000000000000000000000000000000000000000815260040161071390611c08565b60405180910390fd5b5f60015f8373ffffffffffffffffffffffffffffffffffffffff1673ffffffffffffffffffffffffffffffffffffffff1681526020019081526020015f208054610765906115a5565b9050116107a7576040517f08c379a000000000000000000000000000000000000000000000000000000000815260040161079e90611c70565b60405180910390fd5b5f60055f8373ffffffffffffffffffffffffffffffffffffffff1673ffffffffffffffffffffffffffffffffffffffff1681526020019081526020015f205f6101000a81548160ff02191690831515021790555050565b60605f600283604051610811919061176d565b908152602001604051809103902060038460405161082f919061176d565b90815260200160405180910390205f9054906101000a900460ff16818054610856906115a5565b80601f0160208091040260200160405190810160405280929190818152602001828054610882906115a5565b80156108cd5780601f106108a4576101008083540402835291602001916108cd565b820191905f5260205f20905b8154815290600101906020018083116108b057829003601f168201915b5050505050915091509150915091565b6004602052805f5260405f205f915054906101000a900460ff1681565b5f8054906101000a900473ffffffffffffffffffffffffffffffffffffffff1673ffffffffffffffffffffffffffffffffffffffff163373ffffffffffffffffffffffffffffffffffffffff1614610987576040517f08c379a000000000000000000000000000000000000000000000000000000000815260040161097e90611ba0565b60405180910390fd5b5f8251116109ca576040517f08c379a00000000000000000000000000000000000000000000000000000000081526004016109c190611cd8565b60405180910390fd5b5f73ffffffffffffffffffffffffffffffffffffffff168173ffffffffffffffffffffffffffffffffffffffff1603610a38576040517f08c379a0000000000000000000000000000000000000000000000000000000008152600401610a2f90611c08565b60405180910390fd5b5f60015f8373ffffffffffffffffffffffffffffffffffffffff1673ffffffffffffffffffffffffffffffffffffffff1681526020019081526020015f208054610a81906115a5565b905014610ac3576040517f08c379a0000000000000000000000000000000000000000000000000000000008152600401610aba90611d40565b60405180910390fd5b8160015f8373ffffffffffffffffffffffffffffffffffffffff1673ffffffffffffffffffffffffffffffffffffffff1681526020019081526020015f209081610b0d9190611a87565b505050565b6001602052805f5260405f205f915090508054610b2e906115a5565b80601f0160208091040260200160405190810160405280929190818152602001828054610b5a906115a5565b8015610ba55780601f10610b7c57610100808354040283529160200191610ba5565b820191905f5260205f20905b815481529060010190602001808311610b8857829003601f168201915b505050505081565b5f8054906101000a900473ffffffffffffffffffffffffffffffffffffffff1673ffffffffffffffffffffffffffffffffffffffff163373ffffffffffffffffffffffffffffffffffffffff1614610c3a576040517f08c379a0000000000000000000000000000000000000000000000000000000008152600401610c3190611ba0565b60405180910390fd5b5f73ffffffffffffffffffffffffffffffffffffffff168173ffffffffffffffffffffffffffffffffffffffff1603610ca8576040517f08c379a0000000000000000000000000000000000000000000000000000000008152600401610c9f90611c08565b60405180910390fd5b5f60015f8373ffffffffffffffffffffffffffffffffffffffff1673ffffffffffffffffffffffffffffffffffffffff1681526020019081526020015f208054610cf1906115a5565b905011610d33576040517f08c379a0000000000000000000000000000000000000000000000000000000008152600401610d2a90611c70565b60405180910390fd5b600160055f8373ffffffffffffffffffffffffffffffffffffffff1673ffffffffffffffffffffffffffffffffffffffff1681526020019081526020015f205f6101000a81548160ff02191690831515021790555050565b5f8054906101000a900473ffffffffffffffffffffffffffffffffffffffff1673ffffffffffffffffffffffffffffffffffffffff163373ffffffffffffffffffffffffffffffffffffffff1614610e18576040517f08c379a0000000000000000000000000000000000000000000000000000000008152600401610e0f90611ba0565b60405180910390fd5b5f73ffffffffffffffffffffffffffffffffffffffff168173ffffffffffffffffffffffffffffffffffffffff1603610e86576040517f08c379a0000000000000000000000000000000000000000000000000000000008152600401610e7d90611c08565b60405180910390fd5b5f60015f8373ffffffffffffffffffffffffffffffffffffffff1673ffffffffffffffffffffffffffffffffffffffff1681526020019081526020015f208054610ecf906115a5565b905011610f11576040517f08c379a0000000000000000000000000000000000000000000000000000000008152600401610f0890611c70565b60405180910390fd5b5f60045f8373ffffffffffffffffffffffffffffffffffffffff1673ffffffffffffffffffffffffffffffffffffffff1681526020019081526020015f205f6101000a81548160ff02191690831515021790555050565b5f8054906101000a900473ffffffffffffffffffffffffffffffffffffffff1673ffffffffffffffffffffffffffffffffffffffff163373ffffffffffffffffffffffffffffffffffffffff1614610ff5576040517f08c379a0000000000000000000000000000000000000000000000000000000008152600401610fec90611ba0565b60405180910390fd5b5f73ffffffffffffffffffffffffffffffffffffffff168173ffffffffffffffffffffffffffffffffffffffff1603611063576040517f08c379a000000000000000000000000000000000000000000000000000000000815260040161105a90611c08565b60405180910390fd5b5f60015f8373ffffffffffffffffffffffffffffffffffffffff1673ffffffffffffffffffffffffffffffffffffffff1681526020019081526020015f2080546110ac906115a5565b9050116110ee576040517f08c379a00000000000000000000000000000000000000000000000000000000081526004016110e590611c70565b60405180910390fd5b600160045f8373ffffffffffffffffffffffffffffffffffffffff1673ffffffffffffffffffffffffffffffffffffffff1681526020019081526020015f205f6101000a81548160ff02191690831515021790555050565b6005602052805f5260405f205f915054906101000a900460ff1681565b5f8054906101000a900473ffffffffffffffffffffffffffffffffffffffff1681565b5f604051905090565b5f80fd5b5f80fd5b5f80fd5b5f80fd5b5f601f19601f8301169050919050565b7f4e487b71000000000000000000000000000000000000000000000000000000005f52604160045260245ffd5b6111e58261119f565b810181811067ffffffffffffffff82111715611204576112036111af565b5b80604052505050565b5f611216611186565b905061122282826111dc565b919050565b5f67ffffffffffffffff821115611241576112406111af565b5b61124a8261119f565b9050602081019050919050565b828183375f83830152505050565b5f61127761127284611227565b61120d565b9050828152602081018484840111156112935761129261119b565b5b61129e848285611257565b509392505050565b5f82601f8301126112ba576112b9611197565b5b81356112ca848260208601611265565b91505092915050565b5f602082840312156112e8576112e761118f565b5b5f82013567ffffffffffffffff81111561130557611304611193565b5b611311848285016112a6565b91505092915050565b5f80604083850312156113305761132f61118f565b5b5f83013567ffffffffffffffff81111561134d5761134c611193565b5b611359858286016112a6565b925050602083013567ffffffffffffffff81111561137a57611379611193565b5b611386858286016112a6565b9150509250929050565b5f73ffffffffffffffffffffffffffffffffffffffff82169050919050565b5f6113b982611390565b9050919050565b6113c9816113af565b81146113d3575f80fd5b50565b5f813590506113e4816113c0565b92915050565b5f602082840312156113ff576113fe61118f565b5b5f61140c848285016113d6565b91505092915050565b5f81519050919050565b5f82825260208201905092915050565b8281835e5f83830152505050565b5f61144782611415565b611451818561141f565b935061146181856020860161142f565b61146a8161119f565b840191505092915050565b5f8115159050919050565b61148981611475565b82525050565b5f6040820190508181035f8301526114a7818561143d565b90506114b66020830184611480565b9392505050565b5f6020820190506114d05f830184611480565b92915050565b5f80604083850312156114ec576114eb61118f565b5b5f83013567ffffffffffffffff81111561150957611508611193565b5b611515858286016112a6565b9250506020611526858286016113d6565b9150509250929050565b5f6020820190508181035f830152611548818461143d565b905092915050565b611559816113af565b82525050565b5f6020820190506115725f830184611550565b92915050565b7f4e487b71000000000000000000000000000000000000000000000000000000005f52602260045260245ffd5b5f60028204905060018216806115bc57607f821691505b6020821081036115cf576115ce611578565b5b50919050565b7f4b59433a204f6e6c792042616e6b0000000000000000000000000000000000005f82015250565b5f611609600e8361141f565b9150611614826115d5565b602082019050919050565b5f6020820190508181035f830152611636816115fd565b9050919050565b7f496e76616c696420437573746f6d6572204e616d652e000000000000000000005f82015250565b5f61167160168361141f565b915061167c8261163d565b602082019050919050565b5f6020820190508181035f83015261169e81611665565b9050919050565b7f42616e6b20626c6f636b65642066726f6d20706572666f726d696e67204b59435f8201527f2e00000000000000000000000000000000000000000000000000000000000000602082015250565b5f6116ff60218361141f565b915061170a826116a5565b604082019050919050565b5f6020820190508181035f83015261172c816116f3565b9050919050565b5f81905092915050565b5f61174782611415565b6117518185611733565b935061176181856020860161142f565b80840191505092915050565b5f611778828461173d565b915081905092915050565b7f437573746f6d65722044657461696c73204e6f742052656769737465726564005f82015250565b5f6117b7601f8361141f565b91506117c282611783565b602082019050919050565b5f6020820190508181035f8301526117e4816117ab565b9050919050565b7f496e76616c696420437573746f6d657220446174612e000000000000000000005f82015250565b5f61181f60168361141f565b915061182a826117eb565b602082019050919050565b5f6020820190508181035f83015261184c81611813565b9050919050565b7f42616e6b20626c6f636b65642066726f6d20616464696e6720637573746f6d655f8201527f72732e0000000000000000000000000000000000000000000000000000000000602082015250565b5f6118ad60238361141f565b91506118b882611853565b604082019050919050565b5f6020820190508181035f8301526118da816118a1565b9050919050565b5f819050815f5260205f209050919050565b5f6020601f8301049050919050565b5f82821b905092915050565b5f6008830261193d7fffffffffffffffffffffffffffffffffffffffffffffffffffffffffffffffff82611902565b6119478683611902565b95508019841693508086168417925050509392505050565b5f819050919050565b5f819050919050565b5f61198b6119866119818461195f565b611968565b61195f565b9050919050565b5f819050919050565b6119a483611971565b6119b86119b082611992565b84845461190e565b825550505050565b5f90565b6119cc6119c0565b6119d781848461199b565b505050565b5b818110156119fa576119ef5f826119c4565b6001810190506119dd565b5050565b601f821115611a3f57611a10816118e1565b611a19846118f3565b81016020851015611a28578190505b611a3c611a34856118f3565b8301826119dc565b50505b505050565b5f82821c905092915050565b5f611a5f5f1984600802611a44565b1980831691505092915050565b5f611a778383611a50565b9150826002028217905092915050565b611a9082611415565b67ffffffffffffffff811115611aa957611aa86111af565b5b611ab382546115a5565b611abe8282856119fe565b5f60209050601f831160018114611aef575f8415611add578287015190505b611ae78582611a6c565b865550611b4e565b601f198416611afd866118e1565b5f5b82811015611b2457848901518255600182019150602085019450602081019050611aff565b86831015611b415784890151611b3d601f891682611a50565b8355505b6001600288020188555050505b505050505050565b7f4b59433a204f6e6c792041646d696e00000000000000000000000000000000005f82015250565b5f611b8a600f8361141f565b9150611b9582611b56565b602082019050919050565b5f6020820190508181035f830152611bb781611b7e565b9050919050565b7f496e76616c69642042616e6b20416464726573732e00000000000000000000005f82015250565b5f611bf260158361141f565b9150611bfd82611bbe565b602082019050919050565b5f6020820190508181035f830152611c1f81611be6565b9050919050565b7f41646472657373206e6f7420726567697374657265642061732062616e6b2e005f82015250565b5f611c5a601f8361141f565b9150611c6582611c26565b602082019050919050565b5f6020820190508181035f830152611c8781611c4e565b9050919050565b7f496e76616c69642042616e6b204e616d652e00000000000000000000000000005f82015250565b5f611cc260128361141f565b9150611ccd82611c8e565b602082019050919050565b5f6020820190508181035f830152611cef81611cb6565b9050919050565b7f42616e6b20616c7265616479206578697374732e0000000000000000000000005f82015250565b5f611d2a60148361141f565b9150611d3582611cf6565b602082019050919050565b5f6020820190508181035f830152611d5781611d1e565b905091905056fea26469706673582212209100aecfd2ecd2966462f2160da1e00f9c2e9c0344d3a22ed7fd296cebd958a764736f6c634300081a0033",
					"opcodes": "PUSH1 0x80 PUSH1 0x40 MSTORE CALLVALUE DUP1 ISZERO PUSH2 0xF JUMPI PUSH0 DUP1 REVERT JUMPDEST POP PUSH1 0x40 MLOAD PUSH2 0x1EA0 CODESIZE SUB DUP1 PUSH2 0x1EA0 DUP4 CODECOPY DUP2 DUP2 ADD PUSH1 0x40 MSTORE DUP2 ADD SWAP1 PUSH2 0x31 SWAP2 SWAP1 PUSH2 0xD4 JUMP JUMPDEST DUP1 PUSH0 DUP1 PUSH2 0x100 EXP DUP2 SLOAD DUP2 PUSH20 0xFFFFFFFFFFFFFFFFFFFFFFFFFFFFFFFFFFFFFFFF MUL NOT AND SWAP1 DUP4 PUSH20 0xFFFFFFFFFFFFFFFFFFFFFFFFFFFFFFFFFFFFFFFF AND MUL OR SWAP1 SSTORE POP POP PUSH2 0xFF JUMP JUMPDEST PUSH0 DUP1 REVERT JUMPDEST PUSH0 PUSH20 0xFFFFFFFFFFFFFFFFFFFFFFFFFFFFFFFFFFFFFFFF DUP3 AND SWAP1 POP SWAP2 SWAP1 POP JUMP JUMPDEST PUSH0 PUSH2 0xA3 DUP3 PUSH2 0x7A JUMP JUMPDEST SWAP1 POP SWAP2 SWAP1 POP JUMP JUMPDEST PUSH2 0xB3 DUP2 PUSH2 0x99 JUMP JUMPDEST DUP2 EQ PUSH2 0xBD JUMPI PUSH0 DUP1 REVERT JUMPDEST POP JUMP JUMPDEST PUSH0 DUP2 MLOAD SWAP1 POP PUSH2 0xCE DUP2 PUSH2 0xAA JUMP JUMPDEST SWAP3 SWAP2 POP POP JUMP JUMPDEST PUSH0 PUSH1 0x20 DUP3 DUP5 SUB SLT ISZERO PUSH2 0xE9 JUMPI PUSH2 0xE8 PUSH2 0x76 JUMP JUMPDEST JUMPDEST PUSH0 PUSH2 0xF6 DUP5 DUP3 DUP6 ADD PUSH2 0xC0 JUMP JUMPDEST SWAP2 POP POP SWAP3 SWAP2 POP POP JUMP JUMPDEST PUSH2 0x1D94 DUP1 PUSH2 0x10C PUSH0 CODECOPY PUSH0 RETURN INVALID PUSH1 0x80 PUSH1 0x40 MSTORE CALLVALUE DUP1 ISZERO PUSH2 0xF JUMPI PUSH0 DUP1 REVERT JUMPDEST POP PUSH1 0x4 CALLDATASIZE LT PUSH2 0xB2 JUMPI PUSH0 CALLDATALOAD PUSH1 0xE0 SHR DUP1 PUSH4 0x80C3B8C2 GT PUSH2 0x6F JUMPI DUP1 PUSH4 0x80C3B8C2 EQ PUSH2 0x187 JUMPI DUP1 PUSH4 0x9DE31C97 EQ PUSH2 0x1B7 JUMPI DUP1 PUSH4 0xA1B72D1D EQ PUSH2 0x1D3 JUMPI DUP1 PUSH4 0xAD23D42C EQ PUSH2 0x1EF JUMPI DUP1 PUSH4 0xF0B0B930 EQ PUSH2 0x20B JUMPI DUP1 PUSH4 0xF851A440 EQ PUSH2 0x23B JUMPI PUSH2 0xB2 JUMP JUMPDEST DUP1 PUSH4 0x2114E478 EQ PUSH2 0xB6 JUMPI DUP1 PUSH4 0x284D250A EQ PUSH2 0xD2 JUMPI DUP1 PUSH4 0x2A5E3BB0 EQ PUSH2 0xEE JUMPI DUP1 PUSH4 0x4A6C2F61 EQ PUSH2 0x10A JUMPI DUP1 PUSH4 0x59CC3187 EQ PUSH2 0x13B JUMPI DUP1 PUSH4 0x706312CF EQ PUSH2 0x16B JUMPI JUMPDEST PUSH0 DUP1 REVERT JUMPDEST PUSH2 0xD0 PUSH1 0x4 DUP1 CALLDATASIZE SUB DUP2 ADD SWAP1 PUSH2 0xCB SWAP2 SWAP1 PUSH2 0x12D3 JUMP JUMPDEST PUSH2 0x259 JUMP JUMPDEST STOP JUMPDEST PUSH2 0xEC PUSH1 0x4 DUP1 CALLDATASIZE SUB DUP2 ADD SWAP1 PUSH2 0xE7 SWAP2 SWAP1 PUSH2 0x131A JUMP JUMPDEST PUSH2 0x456 JUMP JUMPDEST STOP JUMPDEST PUSH2 0x108 PUSH1 0x4 DUP1 CALLDATASIZE SUB DUP2 ADD SWAP1 PUSH2 0x103 SWAP2 SWAP1 PUSH2 0x13EA JUMP JUMPDEST PUSH2 0x621 JUMP JUMPDEST STOP JUMPDEST PUSH2 0x124 PUSH1 0x4 DUP1 CALLDATASIZE SUB DUP2 ADD SWAP1 PUSH2 0x11F SWAP2 SWAP1 PUSH2 0x12D3 JUMP JUMPDEST PUSH2 0x7FE JUMP JUMPDEST PUSH1 0x40 MLOAD PUSH2 0x132 SWAP3 SWAP2 SWAP1 PUSH2 0x148F JUMP JUMPDEST PUSH1 0x40 MLOAD DUP1 SWAP2 SUB SWAP1 RETURN JUMPDEST PUSH2 0x155 PUSH1 0x4 DUP1 CALLDATASIZE SUB DUP2 ADD SWAP1 PUSH2 0x150 SWAP2 SWAP1 PUSH2 0x13EA JUMP JUMPDEST PUSH2 0x8DD JUMP JUMPDEST PUSH1 0x40 MLOAD PUSH2 0x162 SWAP2 SWAP1 PUSH2 0x14BD JUMP JUMPDEST PUSH1 0x40 MLOAD DUP1 SWAP2 SUB SWAP1 RETURN JUMPDEST PUSH2 0x185 PUSH1 0x4 DUP1 CALLDATASIZE SUB DUP2 ADD SWAP1 PUSH2 0x180 SWAP2 SWAP1 PUSH2 0x14D6 JUMP JUMPDEST PUSH2 0x8FA JUMP JUMPDEST STOP JUMPDEST PUSH2 0x1A1 PUSH1 0x4 DUP1 CALLDATASIZE SUB DUP2 ADD SWAP1 PUSH2 0x19C SWAP2 SWAP1 PUSH2 0x13EA JUMP JUMPDEST PUSH2 0xB12 JUMP JUMPDEST PUSH1 0x40 MLOAD PUSH2 0x1AE SWAP2 SWAP1 PUSH2 0x1530 JUMP JUMPDEST PUSH1 0x40 MLOAD DUP1 SWAP2 SUB SWAP1 RETURN JUMPDEST PUSH2 0x1D1 PUSH1 0x4 DUP1 CALLDATASIZE SUB DUP2 ADD SWAP1 PUSH2 0x1CC SWAP2 SWAP1 PUSH2 0x13EA JUMP JUMPDEST PUSH2 0xBAD JUMP JUMPDEST STOP JUMPDEST PUSH2 0x1ED PUSH1 0x4 DUP1 CALLDATASIZE SUB DUP2 ADD SWAP1 PUSH2 0x1E8 SWAP2 SWAP1 PUSH2 0x13EA JUMP JUMPDEST PUSH2 0xD8B JUMP JUMPDEST STOP JUMPDEST PUSH2 0x209 PUSH1 0x4 DUP1 CALLDATASIZE SUB DUP2 ADD SWAP1 PUSH2 0x204 SWAP2 SWAP1 PUSH2 0x13EA JUMP JUMPDEST PUSH2 0xF68 JUMP JUMPDEST STOP JUMPDEST PUSH2 0x225 PUSH1 0x4 DUP1 CALLDATASIZE SUB DUP2 ADD SWAP1 PUSH2 0x220 SWAP2 SWAP1 PUSH2 0x13EA JUMP JUMPDEST PUSH2 0x1146 JUMP JUMPDEST PUSH1 0x40 MLOAD PUSH2 0x232 SWAP2 SWAP1 PUSH2 0x14BD JUMP JUMPDEST PUSH1 0x40 MLOAD DUP1 SWAP2 SUB SWAP1 RETURN JUMPDEST PUSH2 0x243 PUSH2 0x1163 JUMP JUMPDEST PUSH1 0x40 MLOAD PUSH2 0x250 SWAP2 SWAP1 PUSH2 0x155F JUMP JUMPDEST PUSH1 0x40 MLOAD DUP1 SWAP2 SUB SWAP1 RETURN JUMPDEST PUSH0 PUSH1 0x1 PUSH0 CALLER PUSH20 0xFFFFFFFFFFFFFFFFFFFFFFFFFFFFFFFFFFFFFFFF AND PUSH20 0xFFFFFFFFFFFFFFFFFFFFFFFFFFFFFFFFFFFFFFFF AND DUP2 MSTORE PUSH1 0x20 ADD SWAP1 DUP2 MSTORE PUSH1 0x20 ADD PUSH0 KECCAK256 DUP1 SLOAD PUSH2 0x2A2 SWAP1 PUSH2 0x15A5 JUMP JUMPDEST SWAP1 POP GT PUSH2 0x2E4 JUMPI PUSH1 0x40 MLOAD PUSH32 0x8C379A000000000000000000000000000000000000000000000000000000000 DUP2 MSTORE PUSH1 0x4 ADD PUSH2 0x2DB SWAP1 PUSH2 0x161F JUMP JUMPDEST PUSH1 0x40 MLOAD DUP1 SWAP2 SUB SWAP1 REVERT JUMPDEST PUSH0 DUP2 MLOAD GT PUSH2 0x327 JUMPI PUSH1 0x40 MLOAD PUSH32 0x8C379A000000000000000000000000000000000000000000000000000000000 DUP2 MSTORE PUSH1 0x4 ADD PUSH2 0x31E SWAP1 PUSH2 0x1687 JUMP JUMPDEST PUSH1 0x40 MLOAD DUP1 SWAP2 SUB SWAP1 REVERT JUMPDEST PUSH1 0x5 PUSH0 CALLER PUSH20 0xFFFFFFFFFFFFFFFFFFFFFFFFFFFFFFFFFFFFFFFF AND PUSH20 0xFFFFFFFFFFFFFFFFFFFFFFFFFFFFFFFFFFFFFFFF AND DUP2 MSTORE PUSH1 0x20 ADD SWAP1 DUP2 MSTORE PUSH1 0x20 ADD PUSH0 KECCAK256 PUSH0 SWAP1 SLOAD SWAP1 PUSH2 0x100 EXP SWAP1 DIV PUSH1 0xFF AND ISZERO PUSH2 0x3B1 JUMPI PUSH1 0x40 MLOAD PUSH32 0x8C379A000000000000000000000000000000000000000000000000000000000 DUP2 MSTORE PUSH1 0x4 ADD PUSH2 0x3A8 SWAP1 PUSH2 0x1715 JUMP JUMPDEST PUSH1 0x40 MLOAD DUP1 SWAP2 SUB SWAP1 REVERT JUMPDEST PUSH0 PUSH1 0x2 DUP3 PUSH1 0x40 MLOAD PUSH2 0x3C2 SWAP2 SWAP1 PUSH2 0x176D JUMP JUMPDEST SWAP1 DUP2 MSTORE PUSH1 0x20 ADD PUSH1 0x40 MLOAD DUP1 SWAP2 SUB SWAP1 KECCAK256 DUP1 SLOAD PUSH2 0x3DB SWAP1 PUSH2 0x15A5 JUMP JUMPDEST SWAP1 POP GT PUSH2 0x41D JUMPI PUSH1 0x40 MLOAD PUSH32 0x8C379A000000000000000000000000000000000000000000000000000000000 DUP2 MSTORE PUSH1 0x4 ADD PUSH2 0x414 SWAP1 PUSH2 0x17CD JUMP JUMPDEST PUSH1 0x40 MLOAD DUP1 SWAP2 SUB SWAP1 REVERT JUMPDEST PUSH1 0x1 PUSH1 0x3 DUP3 PUSH1 0x40 MLOAD PUSH2 0x42F SWAP2 SWAP1 PUSH2 0x176D JUMP JUMPDEST SWAP1 DUP2 MSTORE PUSH1 0x20 ADD PUSH1 0x40 MLOAD DUP1 SWAP2 SUB SWAP1 KECCAK256 PUSH0 PUSH2 0x100 EXP DUP2 SLOAD DUP2 PUSH1 0xFF MUL NOT AND SWAP1 DUP4 ISZERO ISZERO MUL OR SWAP1 SSTORE POP POP JUMP JUMPDEST PUSH0 PUSH1 0x1 PUSH0 CALLER PUSH20 0xFFFFFFFFFFFFFFFFFFFFFFFFFFFFFFFFFFFFFFFF AND PUSH20 0xFFFFFFFFFFFFFFFFFFFFFFFFFFFFFFFFFFFFFFFF AND DUP2 MSTORE PUSH1 0x20 ADD SWAP1 DUP2 MSTORE PUSH1 0x20 ADD PUSH0 KECCAK256 DUP1 SLOAD PUSH2 0x49F SWAP1 PUSH2 0x15A5 JUMP JUMPDEST SWAP1 POP GT PUSH2 0x4E1 JUMPI PUSH1 0x40 MLOAD PUSH32 0x8C379A000000000000000000000000000000000000000000000000000000000 DUP2 MSTORE PUSH1 0x4 ADD PUSH2 0x4D8 SWAP1 PUSH2 0x161F JUMP JUMPDEST PUSH1 0x40 MLOAD DUP1 SWAP2 SUB SWAP1 REVERT JUMPDEST PUSH0 DUP3 MLOAD GT PUSH2 0x524 JUMPI PUSH1 0x40 MLOAD PUSH32 0x8C379A000000000000000000000000000000000000000000000000000000000 DUP2 MSTORE PUSH1 0x4 ADD PUSH2 0x51B SWAP1 PUSH2 0x1687 JUMP JUMPDEST PUSH1 0x40 MLOAD DUP1 SWAP2 SUB SWAP1 REVERT JUMPDEST PUSH0 DUP2 MLOAD GT PUSH2 0x567 JUMPI PUSH1 0x40 MLOAD PUSH32 0x8C379A000000000000000000000000000000000000000000000000000000000 DUP2 MSTORE PUSH1 0x4 ADD PUSH2 0x55E SWAP1 PUSH2 0x1835 JUMP JUMPDEST PUSH1 0x40 MLOAD DUP1 SWAP2 SUB SWAP1 REVERT JUMPDEST PUSH1 0x4 PUSH0 CALLER PUSH20 0xFFFFFFFFFFFFFFFFFFFFFFFFFFFFFFFFFFFFFFFF AND PUSH20 0xFFFFFFFFFFFFFFFFFFFFFFFFFFFFFFFFFFFFFFFF AND DUP2 MSTORE PUSH1 0x20 ADD SWAP1 DUP2 MSTORE PUSH1 0x20 ADD PUSH0 KECCAK256 PUSH0 SWAP1 SLOAD SWAP1 PUSH2 0x100 EXP SWAP1 DIV PUSH1 0xFF AND ISZERO PUSH2 0x5F1 JUMPI PUSH1 0x40 MLOAD PUSH32 0x8C379A000000000000000000000000000000000000000000000000000000000 DUP2 MSTORE PUSH1 0x4 ADD PUSH2 0x5E8 SWAP1 PUSH2 0x18C3 JUMP JUMPDEST PUSH1 0x40 MLOAD DUP1 SWAP2 SUB SWAP1 REVERT JUMPDEST DUP1 PUSH1 0x2 DUP4 PUSH1 0x40 MLOAD PUSH2 0x602 SWAP2 SWAP1 PUSH2 0x176D JUMP JUMPDEST SWAP1 DUP2 MSTORE PUSH1 0x20 ADD PUSH1 0x40 MLOAD DUP1 SWAP2 SUB SWAP1 KECCAK256 SWAP1 DUP2 PUSH2 0x61C SWAP2 SWAP1 PUSH2 0x1A87 JUMP JUMPDEST POP POP POP JUMP JUMPDEST PUSH0 DUP1 SLOAD SWAP1 PUSH2 0x100 EXP SWAP1 DIV PUSH20 0xFFFFFFFFFFFFFFFFFFFFFFFFFFFFFFFFFFFFFFFF AND PUSH20 0xFFFFFFFFFFFFFFFFFFFFFFFFFFFFFFFFFFFFFFFF AND CALLER PUSH20 0xFFFFFFFFFFFFFFFFFFFFFFFFFFFFFFFFFFFFFFFF AND EQ PUSH2 0x6AE JUMPI PUSH1 0x40 MLOAD PUSH32 0x8C379A000000000000000000000000000000000000000000000000000000000 DUP2 MSTORE PUSH1 0x4 ADD PUSH2 0x6A5 SWAP1 PUSH2 0x1BA0 JUMP JUMPDEST PUSH1 0x40 MLOAD DUP1 SWAP2 SUB SWAP1 REVERT JUMPDEST PUSH0 PUSH20 0xFFFFFFFFFFFFFFFFFFFFFFFFFFFFFFFFFFFFFFFF AND DUP2 PUSH20 0xFFFFFFFFFFFFFFFFFFFFFFFFFFFFFFFFFFFFFFFF AND SUB PUSH2 0x71C JUMPI PUSH1 0x40 MLOAD PUSH32 0x8C379A000000000000000000000000000000000000000000000000000000000 DUP2 MSTORE PUSH1 0x4 ADD PUSH2 0x713 SWAP1 PUSH2 0x1C08 JUMP JUMPDEST PUSH1 0x40 MLOAD DUP1 SWAP2 SUB SWAP1 REVERT JUMPDEST PUSH0 PUSH1 0x1 PUSH0 DUP4 PUSH20 0xFFFFFFFFFFFFFFFFFFFFFFFFFFFFFFFFFFFFFFFF AND PUSH20 0xFFFFFFFFFFFFFFFFFFFFFFFFFFFFFFFFFFFFFFFF AND DUP2 MSTORE PUSH1 0x20 ADD SWAP1 DUP2 MSTORE PUSH1 0x20 ADD PUSH0 KECCAK256 DUP1 SLOAD PUSH2 0x765 SWAP1 PUSH2 0x15A5 JUMP JUMPDEST SWAP1 POP GT PUSH2 0x7A7 JUMPI PUSH1 0x40 MLOAD PUSH32 0x8C379A000000000000000000000000000000000000000000000000000000000 DUP2 MSTORE PUSH1 0x4 ADD PUSH2 0x79E SWAP1 PUSH2 0x1C70 JUMP JUMPDEST PUSH1 0x40 MLOAD DUP1 SWAP2 SUB SWAP1 REVERT JUMPDEST PUSH0 PUSH1 0x5 PUSH0 DUP4 PUSH20 0xFFFFFFFFFFFFFFFFFFFFFFFFFFFFFFFFFFFFFFFF AND PUSH20 0xFFFFFFFFFFFFFFFFFFFFFFFFFFFFFFFFFFFFFFFF AND DUP2 MSTORE PUSH1 0x20 ADD SWAP1 DUP2 MSTORE PUSH1 0x20 ADD PUSH0 KECCAK256 PUSH0 PUSH2 0x100 EXP DUP2 SLOAD DUP2 PUSH1 0xFF MUL NOT AND SWAP1 DUP4 ISZERO ISZERO MUL OR SWAP1 SSTORE POP POP JUMP JUMPDEST PUSH1 0x60 PUSH0 PUSH1 0x2 DUP4 PUSH1 0x40 MLOAD PUSH2 0x811 SWAP2 SWAP1 PUSH2 0x176D JUMP JUMPDEST SWAP1 DUP2 MSTORE PUSH1 0x20 ADD PUSH1 0x40 MLOAD DUP1 SWAP2 SUB SWAP1 KECCAK256 PUSH1 0x3 DUP5 PUSH1 0x40 MLOAD PUSH2 0x82F SWAP2 SWAP1 PUSH2 0x176D JUMP JUMPDEST SWAP1 DUP2 MSTORE PUSH1 0x20 ADD PUSH1 0x40 MLOAD DUP1 SWAP2 SUB SWAP1 KECCAK256 PUSH0 SWAP1 SLOAD SWAP1 PUSH2 0x100 EXP SWAP1 DIV PUSH1 0xFF AND DUP2 DUP1 SLOAD PUSH2 0x856 SWAP1 PUSH2 0x15A5 JUMP JUMPDEST DUP1 PUSH1 0x1F ADD PUSH1 0x20 DUP1 SWAP2 DIV MUL PUSH1 0x20 ADD PUSH1 0x40 MLOAD SWAP1 DUP2 ADD PUSH1 0x40 MSTORE DUP1 SWAP3 SWAP2 SWAP1 DUP2 DUP2 MSTORE PUSH1 0x20 ADD DUP3 DUP1 SLOAD PUSH2 0x882 SWAP1 PUSH2 0x15A5 JUMP JUMPDEST DUP1 ISZERO PUSH2 0x8CD JUMPI DUP1 PUSH1 0x1F LT PUSH2 0x8A4 JUMPI PUSH2 0x100 DUP1 DUP4 SLOAD DIV MUL DUP4 MSTORE SWAP2 PUSH1 0x20 ADD SWAP2 PUSH2 0x8CD JUMP JUMPDEST DUP3 ADD SWAP2 SWAP1 PUSH0 MSTORE PUSH1 0x20 PUSH0 KECCAK256 SWAP1 JUMPDEST DUP2 SLOAD DUP2 MSTORE SWAP1 PUSH1 0x1 ADD SWAP1 PUSH1 0x20 ADD DUP1 DUP4 GT PUSH2 0x8B0 JUMPI DUP3 SWAP1 SUB PUSH1 0x1F AND DUP3 ADD SWAP2 JUMPDEST POP POP POP POP POP SWAP2 POP SWAP2 POP SWAP2 POP SWAP2 POP SWAP2 JUMP JUMPDEST PUSH1 0x4 PUSH1 0x20 MSTORE DUP1 PUSH0 MSTORE PUSH1 0x40 PUSH0 KECCAK256 PUSH0 SWAP2 POP SLOAD SWAP1 PUSH2 0x100 EXP SWAP1 DIV PUSH1 0xFF AND DUP2 JUMP JUMPDEST PUSH0 DUP1 SLOAD SWAP1 PUSH2 0x100 EXP SWAP1 DIV PUSH20 0xFFFFFFFFFFFFFFFFFFFFFFFFFFFFFFFFFFFFFFFF AND PUSH20 0xFFFFFFFFFFFFFFFFFFFFFFFFFFFFFFFFFFFFFFFF AND CALLER PUSH20 0xFFFFFFFFFFFFFFFFFFFFFFFFFFFFFFFFFFFFFFFF AND EQ PUSH2 0x987 JUMPI PUSH1 0x40 MLOAD PUSH32 0x8C379A000000000000000000000000000000000000000000000000000000000 DUP2 MSTORE PUSH1 0x4 ADD PUSH2 0x97E SWAP1 PUSH2 0x1BA0 JUMP JUMPDEST PUSH1 0x40 MLOAD DUP1 SWAP2 SUB SWAP1 REVERT JUMPDEST PUSH0 DUP3 MLOAD GT PUSH2 0x9CA JUMPI PUSH1 0x40 MLOAD PUSH32 0x8C379A000000000000000000000000000000000000000000000000000000000 DUP2 MSTORE PUSH1 0x4 ADD PUSH2 0x9C1 SWAP1 PUSH2 0x1CD8 JUMP JUMPDEST PUSH1 0x40 MLOAD DUP1 SWAP2 SUB SWAP1 REVERT JUMPDEST PUSH0 PUSH20 0xFFFFFFFFFFFFFFFFFFFFFFFFFFFFFFFFFFFFFFFF AND DUP2 PUSH20 0xFFFFFFFFFFFFFFFFFFFFFFFFFFFFFFFFFFFFFFFF AND SUB PUSH2 0xA38 JUMPI PUSH1 0x40 MLOAD PUSH32 0x8C379A000000000000000000000000000000000000000000000000000000000 DUP2 MSTORE PUSH1 0x4 ADD PUSH2 0xA2F SWAP1 PUSH2 0x1C08 JUMP JUMPDEST PUSH1 0x40 MLOAD DUP1 SWAP2 SUB SWAP1 REVERT JUMPDEST PUSH0 PUSH1 0x1 PUSH0 DUP4 PUSH20 0xFFFFFFFFFFFFFFFFFFFFFFFFFFFFFFFFFFFFFFFF AND PUSH20 0xFFFFFFFFFFFFFFFFFFFFFFFFFFFFFFFFFFFFFFFF AND DUP2 MSTORE PUSH1 0x20 ADD SWAP1 DUP2 MSTORE PUSH1 0x20 ADD PUSH0 KECCAK256 DUP1 SLOAD PUSH2 0xA81 SWAP1 PUSH2 0x15A5 JUMP JUMPDEST SWAP1 POP EQ PUSH2 0xAC3 JUMPI PUSH1 0x40 MLOAD PUSH32 0x8C379A000000000000000000000000000000000000000000000000000000000 DUP2 MSTORE PUSH1 0x4 ADD PUSH2 0xABA SWAP1 PUSH2 0x1D40 JUMP JUMPDEST PUSH1 0x40 MLOAD DUP1 SWAP2 SUB SWAP1 REVERT JUMPDEST DUP2 PUSH1 0x1 PUSH0 DUP4 PUSH20 0xFFFFFFFFFFFFFFFFFFFFFFFFFFFFFFFFFFFFFFFF AND PUSH20 0xFFFFFFFFFFFFFFFFFFFFFFFFFFFFFFFFFFFFFFFF AND DUP2 MSTORE PUSH1 0x20 ADD SWAP1 DUP2 MSTORE PUSH1 0x20 ADD PUSH0 KECCAK256 SWAP1 DUP2 PUSH2 0xB0D SWAP2 SWAP1 PUSH2 0x1A87 JUMP JUMPDEST POP POP POP JUMP JUMPDEST PUSH1 0x1 PUSH1 0x20 MSTORE DUP1 PUSH0 MSTORE PUSH1 0x40 PUSH0 KECCAK256 PUSH0 SWAP2 POP SWAP1 POP DUP1 SLOAD PUSH2 0xB2E SWAP1 PUSH2 0x15A5 JUMP JUMPDEST DUP1 PUSH1 0x1F ADD PUSH1 0x20 DUP1 SWAP2 DIV MUL PUSH1 0x20 ADD PUSH1 0x40 MLOAD SWAP1 DUP2 ADD PUSH1 0x40 MSTORE DUP1 SWAP3 SWAP2 SWAP1 DUP2 DUP2 MSTORE PUSH1 0x20 ADD DUP3 DUP1 SLOAD PUSH2 0xB5A SWAP1 PUSH2 0x15A5 JUMP JUMPDEST DUP1 ISZERO PUSH2 0xBA5 JUMPI DUP1 PUSH1 0x1F LT PUSH2 0xB7C JUMPI PUSH2 0x100 DUP1 DUP4 SLOAD DIV MUL DUP4 MSTORE SWAP2 PUSH1 0x20 ADD SWAP2 PUSH2 0xBA5 JUMP JUMPDEST DUP3 ADD SWAP2 SWAP1 PUSH0 MSTORE PUSH1 0x20 PUSH0 KECCAK256 SWAP1 JUMPDEST DUP2 SLOAD DUP2 MSTORE SWAP1 PUSH1 0x1 ADD SWAP1 PUSH1 0x20 ADD DUP1 DUP4 GT PUSH2 0xB88 JUMPI DUP3 SWAP1 SUB PUSH1 0x1F AND DUP3 ADD SWAP2 JUMPDEST POP POP POP POP POP DUP2 JUMP JUMPDEST PUSH0 DUP1 SLOAD SWAP1 PUSH2 0x100 EXP SWAP1 DIV PUSH20 0xFFFFFFFFFFFFFFFFFFFFFFFFFFFFFFFFFFFFFFFF AND PUSH20 0xFFFFFFFFFFFFFFFFFFFFFFFFFFFFFFFFFFFFFFFF AND CALLER PUSH20 0xFFFFFFFFFFFFFFFFFFFFFFFFFFFFFFFFFFFFFFFF AND EQ PUSH2 0xC3A JUMPI PUSH1 0x40 MLOAD PUSH32 0x8C379A000000000000000000000000000000000000000000000000000000000 DUP2 MSTORE PUSH1 0x4 ADD PUSH2 0xC31 SWAP1 PUSH2 0x1BA0 JUMP JUMPDEST PUSH1 0x40 MLOAD DUP1 SWAP2 SUB SWAP1 REVERT JUMPDEST PUSH0 PUSH20 0xFFFFFFFFFFFFFFFFFFFFFFFFFFFFFFFFFFFFFFFF AND DUP2 PUSH20 0xFFFFFFFFFFFFFFFFFFFFFFFFFFFFFFFFFFFFFFFF AND SUB PUSH2 0xCA8 JUMPI PUSH1 0x40 MLOAD PUSH32 0x8C379A000000000000000000000000000000000000000000000000000000000 DUP2 MSTORE PUSH1 0x4 ADD PUSH2 0xC9F SWAP1 PUSH2 0x1C08 JUMP JUMPDEST PUSH1 0x40 MLOAD DUP1 SWAP2 SUB SWAP1 REVERT JUMPDEST PUSH0 PUSH1 0x1 PUSH0 DUP4 PUSH20 0xFFFFFFFFFFFFFFFFFFFFFFFFFFFFFFFFFFFFFFFF AND PUSH20 0xFFFFFFFFFFFFFFFFFFFFFFFFFFFFFFFFFFFFFFFF AND DUP2 MSTORE PUSH1 0x20 ADD SWAP1 DUP2 MSTORE PUSH1 0x20 ADD PUSH0 KECCAK256 DUP1 SLOAD PUSH2 0xCF1 SWAP1 PUSH2 0x15A5 JUMP JUMPDEST SWAP1 POP GT PUSH2 0xD33 JUMPI PUSH1 0x40 MLOAD PUSH32 0x8C379A000000000000000000000000000000000000000000000000000000000 DUP2 MSTORE PUSH1 0x4 ADD PUSH2 0xD2A SWAP1 PUSH2 0x1C70 JUMP JUMPDEST PUSH1 0x40 MLOAD DUP1 SWAP2 SUB SWAP1 REVERT JUMPDEST PUSH1 0x1 PUSH1 0x5 PUSH0 DUP4 PUSH20 0xFFFFFFFFFFFFFFFFFFFFFFFFFFFFFFFFFFFFFFFF AND PUSH20 0xFFFFFFFFFFFFFFFFFFFFFFFFFFFFFFFFFFFFFFFF AND DUP2 MSTORE PUSH1 0x20 ADD SWAP1 DUP2 MSTORE PUSH1 0x20 ADD PUSH0 KECCAK256 PUSH0 PUSH2 0x100 EXP DUP2 SLOAD DUP2 PUSH1 0xFF MUL NOT AND SWAP1 DUP4 ISZERO ISZERO MUL OR SWAP1 SSTORE POP POP JUMP JUMPDEST PUSH0 DUP1 SLOAD SWAP1 PUSH2 0x100 EXP SWAP1 DIV PUSH20 0xFFFFFFFFFFFFFFFFFFFFFFFFFFFFFFFFFFFFFFFF AND PUSH20 0xFFFFFFFFFFFFFFFFFFFFFFFFFFFFFFFFFFFFFFFF AND CALLER PUSH20 0xFFFFFFFFFFFFFFFFFFFFFFFFFFFFFFFFFFFFFFFF AND EQ PUSH2 0xE18 JUMPI PUSH1 0x40 MLOAD PUSH32 0x8C379A000000000000000000000000000000000000000000000000000000000 DUP2 MSTORE PUSH1 0x4 ADD PUSH2 0xE0F SWAP1 PUSH2 0x1BA0 JUMP JUMPDEST PUSH1 0x40 MLOAD DUP1 SWAP2 SUB SWAP1 REVERT JUMPDEST PUSH0 PUSH20 0xFFFFFFFFFFFFFFFFFFFFFFFFFFFFFFFFFFFFFFFF AND DUP2 PUSH20 0xFFFFFFFFFFFFFFFFFFFFFFFFFFFFFFFFFFFFFFFF AND SUB PUSH2 0xE86 JUMPI PUSH1 0x40 MLOAD PUSH32 0x8C379A000000000000000000000000000000000000000000000000000000000 DUP2 MSTORE PUSH1 0x4 ADD PUSH2 0xE7D SWAP1 PUSH2 0x1C08 JUMP JUMPDEST PUSH1 0x40 MLOAD DUP1 SWAP2 SUB SWAP1 REVERT JUMPDEST PUSH0 PUSH1 0x1 PUSH0 DUP4 PUSH20 0xFFFFFFFFFFFFFFFFFFFFFFFFFFFFFFFFFFFFFFFF AND PUSH20 0xFFFFFFFFFFFFFFFFFFFFFFFFFFFFFFFFFFFFFFFF AND DUP2 MSTORE PUSH1 0x20 ADD SWAP1 DUP2 MSTORE PUSH1 0x20 ADD PUSH0 KECCAK256 DUP1 SLOAD PUSH2 0xECF SWAP1 PUSH2 0x15A5 JUMP JUMPDEST SWAP1 POP GT PUSH2 0xF11 JUMPI PUSH1 0x40 MLOAD PUSH32 0x8C379A000000000000000000000000000000000000000000000000000000000 DUP2 MSTORE PUSH1 0x4 ADD PUSH2 0xF08 SWAP1 PUSH2 0x1C70 JUMP JUMPDEST PUSH1 0x40 MLOAD DUP1 SWAP2 SUB SWAP1 REVERT JUMPDEST PUSH0 PUSH1 0x4 PUSH0 DUP4 PUSH20 0xFFFFFFFFFFFFFFFFFFFFFFFFFFFFFFFFFFFFFFFF AND PUSH20 0xFFFFFFFFFFFFFFFFFFFFFFFFFFFFFFFFFFFFFFFF AND DUP2 MSTORE PUSH1 0x20 ADD SWAP1 DUP2 MSTORE PUSH1 0x20 ADD PUSH0 KECCAK256 PUSH0 PUSH2 0x100 EXP DUP2 SLOAD DUP2 PUSH1 0xFF MUL NOT AND SWAP1 DUP4 ISZERO ISZERO MUL OR SWAP1 SSTORE POP POP JUMP JUMPDEST PUSH0 DUP1 SLOAD SWAP1 PUSH2 0x100 EXP SWAP1 DIV PUSH20 0xFFFFFFFFFFFFFFFFFFFFFFFFFFFFFFFFFFFFFFFF AND PUSH20 0xFFFFFFFFFFFFFFFFFFFFFFFFFFFFFFFFFFFFFFFF AND CALLER PUSH20 0xFFFFFFFFFFFFFFFFFFFFFFFFFFFFFFFFFFFFFFFF AND EQ PUSH2 0xFF5 JUMPI PUSH1 0x40 MLOAD PUSH32 0x8C379A000000000000000000000000000000000000000000000000000000000 DUP2 MSTORE PUSH1 0x4 ADD PUSH2 0xFEC SWAP1 PUSH2 0x1BA0 JUMP JUMPDEST PUSH1 0x40 MLOAD DUP1 SWAP2 SUB SWAP1 REVERT JUMPDEST PUSH0 PUSH20 0xFFFFFFFFFFFFFFFFFFFFFFFFFFFFFFFFFFFFFFFF AND DUP2 PUSH20 0xFFFFFFFFFFFFFFFFFFFFFFFFFFFFFFFFFFFFFFFF AND SUB PUSH2 0x1063 JUMPI PUSH1 0x40 MLOAD PUSH32 0x8C379A000000000000000000000000000000000000000000000000000000000 DUP2 MSTORE PUSH1 0x4 ADD PUSH2 0x105A SWAP1 PUSH2 0x1C08 JUMP JUMPDEST PUSH1 0x40 MLOAD DUP1 SWAP2 SUB SWAP1 REVERT JUMPDEST PUSH0 PUSH1 0x1 PUSH0 DUP4 PUSH20 0xFFFFFFFFFFFFFFFFFFFFFFFFFFFFFFFFFFFFFFFF AND PUSH20 0xFFFFFFFFFFFFFFFFFFFFFFFFFFFFFFFFFFFFFFFF AND DUP2 MSTORE PUSH1 0x20 ADD SWAP1 DUP2 MSTORE PUSH1 0x20 ADD PUSH0 KECCAK256 DUP1 SLOAD PUSH2 0x10AC SWAP1 PUSH2 0x15A5 JUMP JUMPDEST SWAP1 POP GT PUSH2 0x10EE JUMPI PUSH1 0x40 MLOAD PUSH32 0x8C379A000000000000000000000000000000000000000000000000000000000 DUP2 MSTORE PUSH1 0x4 ADD PUSH2 0x10E5 SWAP1 PUSH2 0x1C70 JUMP JUMPDEST PUSH1 0x40 MLOAD DUP1 SWAP2 SUB SWAP1 REVERT JUMPDEST PUSH1 0x1 PUSH1 0x4 PUSH0 DUP4 PUSH20 0xFFFFFFFFFFFFFFFFFFFFFFFFFFFFFFFFFFFFFFFF AND PUSH20 0xFFFFFFFFFFFFFFFFFFFFFFFFFFFFFFFFFFFFFFFF AND DUP2 MSTORE PUSH1 0x20 ADD SWAP1 DUP2 MSTORE PUSH1 0x20 ADD PUSH0 KECCAK256 PUSH0 PUSH2 0x100 EXP DUP2 SLOAD DUP2 PUSH1 0xFF MUL NOT AND SWAP1 DUP4 ISZERO ISZERO MUL OR SWAP1 SSTORE POP POP JUMP JUMPDEST PUSH1 0x5 PUSH1 0x20 MSTORE DUP1 PUSH0 MSTORE PUSH1 0x40 PUSH0 KECCAK256 PUSH0 SWAP2 POP SLOAD SWAP1 PUSH2 0x100 EXP SWAP1 DIV PUSH1 0xFF AND DUP2 JUMP JUMPDEST PUSH0 DUP1 SLOAD SWAP1 PUSH2 0x100 EXP SWAP1 DIV PUSH20 0xFFFFFFFFFFFFFFFFFFFFFFFFFFFFFFFFFFFFFFFF AND DUP2 JUMP JUMPDEST PUSH0 PUSH1 0x40 MLOAD SWAP1 POP SWAP1 JUMP JUMPDEST PUSH0 DUP1 REVERT JUMPDEST PUSH0 DUP1 REVERT JUMPDEST PUSH0 DUP1 REVERT JUMPDEST PUSH0 DUP1 REVERT JUMPDEST PUSH0 PUSH1 0x1F NOT PUSH1 0x1F DUP4 ADD AND SWAP1 POP SWAP2 SWAP1 POP JUMP JUMPDEST PUSH32 0x4E487B7100000000000000000000000000000000000000000000000000000000 PUSH0 MSTORE PUSH1 0x41 PUSH1 0x4 MSTORE PUSH1 0x24 PUSH0 REVERT JUMPDEST PUSH2 0x11E5 DUP3 PUSH2 0x119F JUMP JUMPDEST DUP2 ADD DUP2 DUP2 LT PUSH8 0xFFFFFFFFFFFFFFFF DUP3 GT OR ISZERO PUSH2 0x1204 JUMPI PUSH2 0x1203 PUSH2 0x11AF JUMP JUMPDEST JUMPDEST DUP1 PUSH1 0x40 MSTORE POP POP POP JUMP JUMPDEST PUSH0 PUSH2 0x1216 PUSH2 0x1186 JUMP JUMPDEST SWAP1 POP PUSH2 0x1222 DUP3 DUP3 PUSH2 0x11DC JUMP JUMPDEST SWAP2 SWAP1 POP JUMP JUMPDEST PUSH0 PUSH8 0xFFFFFFFFFFFFFFFF DUP3 GT ISZERO PUSH2 0x1241 JUMPI PUSH2 0x1240 PUSH2 0x11AF JUMP JUMPDEST JUMPDEST PUSH2 0x124A DUP3 PUSH2 0x119F JUMP JUMPDEST SWAP1 POP PUSH1 0x20 DUP2 ADD SWAP1 POP SWAP2 SWAP1 POP JUMP JUMPDEST DUP3 DUP2 DUP4 CALLDATACOPY PUSH0 DUP4 DUP4 ADD MSTORE POP POP POP JUMP JUMPDEST PUSH0 PUSH2 0x1277 PUSH2 0x1272 DUP5 PUSH2 0x1227 JUMP JUMPDEST PUSH2 0x120D JUMP JUMPDEST SWAP1 POP DUP3 DUP2 MSTORE PUSH1 0x20 DUP2 ADD DUP5 DUP5 DUP5 ADD GT ISZERO PUSH2 0x1293 JUMPI PUSH2 0x1292 PUSH2 0x119B JUMP JUMPDEST JUMPDEST PUSH2 0x129E DUP5 DUP3 DUP6 PUSH2 0x1257 JUMP JUMPDEST POP SWAP4 SWAP3 POP POP POP JUMP JUMPDEST PUSH0 DUP3 PUSH1 0x1F DUP4 ADD SLT PUSH2 0x12BA JUMPI PUSH2 0x12B9 PUSH2 0x1197 JUMP JUMPDEST JUMPDEST DUP2 CALLDATALOAD PUSH2 0x12CA DUP5 DUP3 PUSH1 0x20 DUP7 ADD PUSH2 0x1265 JUMP JUMPDEST SWAP2 POP POP SWAP3 SWAP2 POP POP JUMP JUMPDEST PUSH0 PUSH1 0x20 DUP3 DUP5 SUB SLT ISZERO PUSH2 0x12E8 JUMPI PUSH2 0x12E7 PUSH2 0x118F JUMP JUMPDEST JUMPDEST PUSH0 DUP3 ADD CALLDATALOAD PUSH8 0xFFFFFFFFFFFFFFFF DUP2 GT ISZERO PUSH2 0x1305 JUMPI PUSH2 0x1304 PUSH2 0x1193 JUMP JUMPDEST JUMPDEST PUSH2 0x1311 DUP5 DUP3 DUP6 ADD PUSH2 0x12A6 JUMP JUMPDEST SWAP2 POP POP SWAP3 SWAP2 POP POP JUMP JUMPDEST PUSH0 DUP1 PUSH1 0x40 DUP4 DUP6 SUB SLT ISZERO PUSH2 0x1330 JUMPI PUSH2 0x132F PUSH2 0x118F JUMP JUMPDEST JUMPDEST PUSH0 DUP4 ADD CALLDATALOAD PUSH8 0xFFFFFFFFFFFFFFFF DUP2 GT ISZERO PUSH2 0x134D JUMPI PUSH2 0x134C PUSH2 0x1193 JUMP JUMPDEST JUMPDEST PUSH2 0x1359 DUP6 DUP3 DUP7 ADD PUSH2 0x12A6 JUMP JUMPDEST SWAP3 POP POP PUSH1 0x20 DUP4 ADD CALLDATALOAD PUSH8 0xFFFFFFFFFFFFFFFF DUP2 GT ISZERO PUSH2 0x137A JUMPI PUSH2 0x1379 PUSH2 0x1193 JUMP JUMPDEST JUMPDEST PUSH2 0x1386 DUP6 DUP3 DUP7 ADD PUSH2 0x12A6 JUMP JUMPDEST SWAP2 POP POP SWAP3 POP SWAP3 SWAP1 POP JUMP JUMPDEST PUSH0 PUSH20 0xFFFFFFFFFFFFFFFFFFFFFFFFFFFFFFFFFFFFFFFF DUP3 AND SWAP1 POP SWAP2 SWAP1 POP JUMP JUMPDEST PUSH0 PUSH2 0x13B9 DUP3 PUSH2 0x1390 JUMP JUMPDEST SWAP1 POP SWAP2 SWAP1 POP JUMP JUMPDEST PUSH2 0x13C9 DUP2 PUSH2 0x13AF JUMP JUMPDEST DUP2 EQ PUSH2 0x13D3 JUMPI PUSH0 DUP1 REVERT JUMPDEST POP JUMP JUMPDEST PUSH0 DUP2 CALLDATALOAD SWAP1 POP PUSH2 0x13E4 DUP2 PUSH2 0x13C0 JUMP JUMPDEST SWAP3 SWAP2 POP POP JUMP JUMPDEST PUSH0 PUSH1 0x20 DUP3 DUP5 SUB SLT ISZERO PUSH2 0x13FF JUMPI PUSH2 0x13FE PUSH2 0x118F JUMP JUMPDEST JUMPDEST PUSH0 PUSH2 0x140C DUP5 DUP3 DUP6 ADD PUSH2 0x13D6 JUMP JUMPDEST SWAP2 POP POP SWAP3 SWAP2 POP POP JUMP JUMPDEST PUSH0 DUP2 MLOAD SWAP1 POP SWAP2 SWAP1 POP JUMP JUMPDEST PUSH0 DUP3 DUP3 MSTORE PUSH1 0x20 DUP3 ADD SWAP1 POP SWAP3 SWAP2 POP POP JUMP JUMPDEST DUP3 DUP2 DUP4 MCOPY PUSH0 DUP4 DUP4 ADD MSTORE POP POP POP JUMP JUMPDEST PUSH0 PUSH2 0x1447 DUP3 PUSH2 0x1415 JUMP JUMPDEST PUSH2 0x1451 DUP2 DUP6 PUSH2 0x141F JUMP JUMPDEST SWAP4 POP PUSH2 0x1461 DUP2 DUP6 PUSH1 0x20 DUP7 ADD PUSH2 0x142F JUMP JUMPDEST PUSH2 0x146A DUP2 PUSH2 0x119F JUMP JUMPDEST DUP5 ADD SWAP2 POP POP SWAP3 SWAP2 POP POP JUMP JUMPDEST PUSH0 DUP2 ISZERO ISZERO SWAP1 POP SWAP2 SWAP1 POP JUMP JUMPDEST PUSH2 0x1489 DUP2 PUSH2 0x1475 JUMP JUMPDEST DUP3 MSTORE POP POP JUMP JUMPDEST PUSH0 PUSH1 0x40 DUP3 ADD SWAP1 POP DUP2 DUP2 SUB PUSH0 DUP4 ADD MSTORE PUSH2 0x14A7 DUP2 DUP6 PUSH2 0x143D JUMP JUMPDEST SWAP1 POP PUSH2 0x14B6 PUSH1 0x20 DUP4 ADD DUP5 PUSH2 0x1480 JUMP JUMPDEST SWAP4 SWAP3 POP POP POP JUMP JUMPDEST PUSH0 PUSH1 0x20 DUP3 ADD SWAP1 POP PUSH2 0x14D0 PUSH0 DUP4 ADD DUP5 PUSH2 0x1480 JUMP JUMPDEST SWAP3 SWAP2 POP POP JUMP JUMPDEST PUSH0 DUP1 PUSH1 0x40 DUP4 DUP6 SUB SLT ISZERO PUSH2 0x14EC JUMPI PUSH2 0x14EB PUSH2 0x118F JUMP JUMPDEST JUMPDEST PUSH0 DUP4 ADD CALLDATALOAD PUSH8 0xFFFFFFFFFFFFFFFF DUP2 GT ISZERO PUSH2 0x1509 JUMPI PUSH2 0x1508 PUSH2 0x1193 JUMP JUMPDEST JUMPDEST PUSH2 0x1515 DUP6 DUP3 DUP7 ADD PUSH2 0x12A6 JUMP JUMPDEST SWAP3 POP POP PUSH1 0x20 PUSH2 0x1526 DUP6 DUP3 DUP7 ADD PUSH2 0x13D6 JUMP JUMPDEST SWAP2 POP POP SWAP3 POP SWAP3 SWAP1 POP JUMP JUMPDEST PUSH0 PUSH1 0x20 DUP3 ADD SWAP1 POP DUP2 DUP2 SUB PUSH0 DUP4 ADD MSTORE PUSH2 0x1548 DUP2 DUP5 PUSH2 0x143D JUMP JUMPDEST SWAP1 POP SWAP3 SWAP2 POP POP JUMP JUMPDEST PUSH2 0x1559 DUP2 PUSH2 0x13AF JUMP JUMPDEST DUP3 MSTORE POP POP JUMP JUMPDEST PUSH0 PUSH1 0x20 DUP3 ADD SWAP1 POP PUSH2 0x1572 PUSH0 DUP4 ADD DUP5 PUSH2 0x1550 JUMP JUMPDEST SWAP3 SWAP2 POP POP JUMP JUMPDEST PUSH32 0x4E487B7100000000000000000000000000000000000000000000000000000000 PUSH0 MSTORE PUSH1 0x22 PUSH1 0x4 MSTORE PUSH1 0x24 PUSH0 REVERT JUMPDEST PUSH0 PUSH1 0x2 DUP3 DIV SWAP1 POP PUSH1 0x1 DUP3 AND DUP1 PUSH2 0x15BC JUMPI PUSH1 0x7F DUP3 AND SWAP2 POP JUMPDEST PUSH1 0x20 DUP3 LT DUP2 SUB PUSH2 0x15CF JUMPI PUSH2 0x15CE PUSH2 0x1578 JUMP JUMPDEST JUMPDEST POP SWAP2 SWAP1 POP JUMP JUMPDEST PUSH32 0x4B59433A204F6E6C792042616E6B000000000000000000000000000000000000 PUSH0 DUP3 ADD MSTORE POP JUMP JUMPDEST PUSH0 PUSH2 0x1609 PUSH1 0xE DUP4 PUSH2 0x141F JUMP JUMPDEST SWAP2 POP PUSH2 0x1614 DUP3 PUSH2 0x15D5 JUMP JUMPDEST PUSH1 0x20 DUP3 ADD SWAP1 POP SWAP2 SWAP1 POP JUMP JUMPDEST PUSH0 PUSH1 0x20 DUP3 ADD SWAP1 POP DUP2 DUP2 SUB PUSH0 DUP4 ADD MSTORE PUSH2 0x1636 DUP2 PUSH2 0x15FD JUMP JUMPDEST SWAP1 POP SWAP2 SWAP1 POP JUMP JUMPDEST PUSH32 0x496E76616C696420437573746F6D6572204E616D652E00000000000000000000 PUSH0 DUP3 ADD MSTORE POP JUMP JUMPDEST PUSH0 PUSH2 0x1671 PUSH1 0x16 DUP4 PUSH2 0x141F JUMP JUMPDEST SWAP2 POP PUSH2 0x167C DUP3 PUSH2 0x163D JUMP JUMPDEST PUSH1 0x20 DUP3 ADD SWAP1 POP SWAP2 SWAP1 POP JUMP JUMPDEST PUSH0 PUSH1 0x20 DUP3 ADD SWAP1 POP DUP2 DUP2 SUB PUSH0 DUP4 ADD MSTORE PUSH2 0x169E DUP2 PUSH2 0x1665 JUMP JUMPDEST SWAP1 POP SWAP2 SWAP1 POP JUMP JUMPDEST PUSH32 0x42616E6B20626C6F636B65642066726F6D20706572666F726D696E67204B5943 PUSH0 DUP3 ADD MSTORE PUSH32 0x2E00000000000000000000000000000000000000000000000000000000000000 PUSH1 0x20 DUP3 ADD MSTORE POP JUMP JUMPDEST PUSH0 PUSH2 0x16FF PUSH1 0x21 DUP4 PUSH2 0x141F JUMP JUMPDEST SWAP2 POP PUSH2 0x170A DUP3 PUSH2 0x16A5 JUMP JUMPDEST PUSH1 0x40 DUP3 ADD SWAP1 POP SWAP2 SWAP1 POP JUMP JUMPDEST PUSH0 PUSH1 0x20 DUP3 ADD SWAP1 POP DUP2 DUP2 SUB PUSH0 DUP4 ADD MSTORE PUSH2 0x172C DUP2 PUSH2 0x16F3 JUMP JUMPDEST SWAP1 POP SWAP2 SWAP1 POP JUMP JUMPDEST PUSH0 DUP2 SWAP1 POP SWAP3 SWAP2 POP POP JUMP JUMPDEST PUSH0 PUSH2 0x1747 DUP3 PUSH2 0x1415 JUMP JUMPDEST PUSH2 0x1751 DUP2 DUP6 PUSH2 0x1733 JUMP JUMPDEST SWAP4 POP PUSH2 0x1761 DUP2 DUP6 PUSH1 0x20 DUP7 ADD PUSH2 0x142F JUMP JUMPDEST DUP1 DUP5 ADD SWAP2 POP POP SWAP3 SWAP2 POP POP JUMP JUMPDEST PUSH0 PUSH2 0x1778 DUP3 DUP5 PUSH2 0x173D JUMP JUMPDEST SWAP2 POP DUP2 SWAP1 POP SWAP3 SWAP2 POP POP JUMP JUMPDEST PUSH32 0x437573746F6D65722044657461696C73204E6F74205265676973746572656400 PUSH0 DUP3 ADD MSTORE POP JUMP JUMPDEST PUSH0 PUSH2 0x17B7 PUSH1 0x1F DUP4 PUSH2 0x141F JUMP JUMPDEST SWAP2 POP PUSH2 0x17C2 DUP3 PUSH2 0x1783 JUMP JUMPDEST PUSH1 0x20 DUP3 ADD SWAP1 POP SWAP2 SWAP1 POP JUMP JUMPDEST PUSH0 PUSH1 0x20 DUP3 ADD SWAP1 POP DUP2 DUP2 SUB PUSH0 DUP4 ADD MSTORE PUSH2 0x17E4 DUP2 PUSH2 0x17AB JUMP JUMPDEST SWAP1 POP SWAP2 SWAP1 POP JUMP JUMPDEST PUSH32 0x496E76616C696420437573746F6D657220446174612E00000000000000000000 PUSH0 DUP3 ADD MSTORE POP JUMP JUMPDEST PUSH0 PUSH2 0x181F PUSH1 0x16 DUP4 PUSH2 0x141F JUMP JUMPDEST SWAP2 POP PUSH2 0x182A DUP3 PUSH2 0x17EB JUMP JUMPDEST PUSH1 0x20 DUP3 ADD SWAP1 POP SWAP2 SWAP1 POP JUMP JUMPDEST PUSH0 PUSH1 0x20 DUP3 ADD SWAP1 POP DUP2 DUP2 SUB PUSH0 DUP4 ADD MSTORE PUSH2 0x184C DUP2 PUSH2 0x1813 JUMP JUMPDEST SWAP1 POP SWAP2 SWAP1 POP JUMP JUMPDEST PUSH32 0x42616E6B20626C6F636B65642066726F6D20616464696E6720637573746F6D65 PUSH0 DUP3 ADD MSTORE PUSH32 0x72732E0000000000000000000000000000000000000000000000000000000000 PUSH1 0x20 DUP3 ADD MSTORE POP JUMP JUMPDEST PUSH0 PUSH2 0x18AD PUSH1 0x23 DUP4 PUSH2 0x141F JUMP JUMPDEST SWAP2 POP PUSH2 0x18B8 DUP3 PUSH2 0x1853 JUMP JUMPDEST PUSH1 0x40 DUP3 ADD SWAP1 POP SWAP2 SWAP1 POP JUMP JUMPDEST PUSH0 PUSH1 0x20 DUP3 ADD SWAP1 POP DUP2 DUP2 SUB PUSH0 DUP4 ADD MSTORE PUSH2 0x18DA DUP2 PUSH2 0x18A1 JUMP JUMPDEST SWAP1 POP SWAP2 SWAP1 POP JUMP JUMPDEST PUSH0 DUP2 SWAP1 POP DUP2 PUSH0 MSTORE PUSH1 0x20 PUSH0 KECCAK256 SWAP1 POP SWAP2 SWAP1 POP JUMP JUMPDEST PUSH0 PUSH1 0x20 PUSH1 0x1F DUP4 ADD DIV SWAP1 POP SWAP2 SWAP1 POP JUMP JUMPDEST PUSH0 DUP3 DUP3 SHL SWAP1 POP SWAP3 SWAP2 POP POP JUMP JUMPDEST PUSH0 PUSH1 0x8 DUP4 MUL PUSH2 0x193D PUSH32 0xFFFFFFFFFFFFFFFFFFFFFFFFFFFFFFFFFFFFFFFFFFFFFFFFFFFFFFFFFFFFFFFF DUP3 PUSH2 0x1902 JUMP JUMPDEST PUSH2 0x1947 DUP7 DUP4 PUSH2 0x1902 JUMP JUMPDEST SWAP6 POP DUP1 NOT DUP5 AND SWAP4 POP DUP1 DUP7 AND DUP5 OR SWAP3 POP POP POP SWAP4 SWAP3 POP POP POP JUMP JUMPDEST PUSH0 DUP2 SWAP1 POP SWAP2 SWAP1 POP JUMP JUMPDEST PUSH0 DUP2 SWAP1 POP SWAP2 SWAP1 POP JUMP JUMPDEST PUSH0 PUSH2 0x198B PUSH2 0x1986 PUSH2 0x1981 DUP5 PUSH2 0x195F JUMP JUMPDEST PUSH2 0x1968 JUMP JUMPDEST PUSH2 0x195F JUMP JUMPDEST SWAP1 POP SWAP2 SWAP1 POP JUMP JUMPDEST PUSH0 DUP2 SWAP1 POP SWAP2 SWAP1 POP JUMP JUMPDEST PUSH2 0x19A4 DUP4 PUSH2 0x1971 JUMP JUMPDEST PUSH2 0x19B8 PUSH2 0x19B0 DUP3 PUSH2 0x1992 JUMP JUMPDEST DUP5 DUP5 SLOAD PUSH2 0x190E JUMP JUMPDEST DUP3 SSTORE POP POP POP POP JUMP JUMPDEST PUSH0 SWAP1 JUMP JUMPDEST PUSH2 0x19CC PUSH2 0x19C0 JUMP JUMPDEST PUSH2 0x19D7 DUP2 DUP5 DUP5 PUSH2 0x199B JUMP JUMPDEST POP POP POP JUMP JUMPDEST JUMPDEST DUP2 DUP2 LT ISZERO PUSH2 0x19FA JUMPI PUSH2 0x19EF PUSH0 DUP3 PUSH2 0x19C4 JUMP JUMPDEST PUSH1 0x1 DUP2 ADD SWAP1 POP PUSH2 0x19DD JUMP JUMPDEST POP POP JUMP JUMPDEST PUSH1 0x1F DUP3 GT ISZERO PUSH2 0x1A3F JUMPI PUSH2 0x1A10 DUP2 PUSH2 0x18E1 JUMP JUMPDEST PUSH2 0x1A19 DUP5 PUSH2 0x18F3 JUMP JUMPDEST DUP2 ADD PUSH1 0x20 DUP6 LT ISZERO PUSH2 0x1A28 JUMPI DUP2 SWAP1 POP JUMPDEST PUSH2 0x1A3C PUSH2 0x1A34 DUP6 PUSH2 0x18F3 JUMP JUMPDEST DUP4 ADD DUP3 PUSH2 0x19DC JUMP JUMPDEST POP POP JUMPDEST POP POP POP JUMP JUMPDEST PUSH0 DUP3 DUP3 SHR SWAP1 POP SWAP3 SWAP2 POP POP JUMP JUMPDEST PUSH0 PUSH2 0x1A5F PUSH0 NOT DUP5 PUSH1 0x8 MUL PUSH2 0x1A44 JUMP JUMPDEST NOT DUP1 DUP4 AND SWAP2 POP POP SWAP3 SWAP2 POP POP JUMP JUMPDEST PUSH0 PUSH2 0x1A77 DUP4 DUP4 PUSH2 0x1A50 JUMP JUMPDEST SWAP2 POP DUP3 PUSH1 0x2 MUL DUP3 OR SWAP1 POP SWAP3 SWAP2 POP POP JUMP JUMPDEST PUSH2 0x1A90 DUP3 PUSH2 0x1415 JUMP JUMPDEST PUSH8 0xFFFFFFFFFFFFFFFF DUP2 GT ISZERO PUSH2 0x1AA9 JUMPI PUSH2 0x1AA8 PUSH2 0x11AF JUMP JUMPDEST JUMPDEST PUSH2 0x1AB3 DUP3 SLOAD PUSH2 0x15A5 JUMP JUMPDEST PUSH2 0x1ABE DUP3 DUP3 DUP6 PUSH2 0x19FE JUMP JUMPDEST PUSH0 PUSH1 0x20 SWAP1 POP PUSH1 0x1F DUP4 GT PUSH1 0x1 DUP2 EQ PUSH2 0x1AEF JUMPI PUSH0 DUP5 ISZERO PUSH2 0x1ADD JUMPI DUP3 DUP8 ADD MLOAD SWAP1 POP JUMPDEST PUSH2 0x1AE7 DUP6 DUP3 PUSH2 0x1A6C JUMP JUMPDEST DUP7 SSTORE POP PUSH2 0x1B4E JUMP JUMPDEST PUSH1 0x1F NOT DUP5 AND PUSH2 0x1AFD DUP7 PUSH2 0x18E1 JUMP JUMPDEST PUSH0 JUMPDEST DUP3 DUP2 LT ISZERO PUSH2 0x1B24 JUMPI DUP5 DUP10 ADD MLOAD DUP3 SSTORE PUSH1 0x1 DUP3 ADD SWAP2 POP PUSH1 0x20 DUP6 ADD SWAP5 POP PUSH1 0x20 DUP2 ADD SWAP1 POP PUSH2 0x1AFF JUMP JUMPDEST DUP7 DUP4 LT ISZERO PUSH2 0x1B41 JUMPI DUP5 DUP10 ADD MLOAD PUSH2 0x1B3D PUSH1 0x1F DUP10 AND DUP3 PUSH2 0x1A50 JUMP JUMPDEST DUP4 SSTORE POP JUMPDEST PUSH1 0x1 PUSH1 0x2 DUP9 MUL ADD DUP9 SSTORE POP POP POP JUMPDEST POP POP POP POP POP POP JUMP JUMPDEST PUSH32 0x4B59433A204F6E6C792041646D696E0000000000000000000000000000000000 PUSH0 DUP3 ADD MSTORE POP JUMP JUMPDEST PUSH0 PUSH2 0x1B8A PUSH1 0xF DUP4 PUSH2 0x141F JUMP JUMPDEST SWAP2 POP PUSH2 0x1B95 DUP3 PUSH2 0x1B56 JUMP JUMPDEST PUSH1 0x20 DUP3 ADD SWAP1 POP SWAP2 SWAP1 POP JUMP JUMPDEST PUSH0 PUSH1 0x20 DUP3 ADD SWAP1 POP DUP2 DUP2 SUB PUSH0 DUP4 ADD MSTORE PUSH2 0x1BB7 DUP2 PUSH2 0x1B7E JUMP JUMPDEST SWAP1 POP SWAP2 SWAP1 POP JUMP JUMPDEST PUSH32 0x496E76616C69642042616E6B20416464726573732E0000000000000000000000 PUSH0 DUP3 ADD MSTORE POP JUMP JUMPDEST PUSH0 PUSH2 0x1BF2 PUSH1 0x15 DUP4 PUSH2 0x141F JUMP JUMPDEST SWAP2 POP PUSH2 0x1BFD DUP3 PUSH2 0x1BBE JUMP JUMPDEST PUSH1 0x20 DUP3 ADD SWAP1 POP SWAP2 SWAP1 POP JUMP JUMPDEST PUSH0 PUSH1 0x20 DUP3 ADD SWAP1 POP DUP2 DUP2 SUB PUSH0 DUP4 ADD MSTORE PUSH2 0x1C1F DUP2 PUSH2 0x1BE6 JUMP JUMPDEST SWAP1 POP SWAP2 SWAP1 POP JUMP JUMPDEST PUSH32 0x41646472657373206E6F7420726567697374657265642061732062616E6B2E00 PUSH0 DUP3 ADD MSTORE POP JUMP JUMPDEST PUSH0 PUSH2 0x1C5A PUSH1 0x1F DUP4 PUSH2 0x141F JUMP JUMPDEST SWAP2 POP PUSH2 0x1C65 DUP3 PUSH2 0x1C26 JUMP JUMPDEST PUSH1 0x20 DUP3 ADD SWAP1 POP SWAP2 SWAP1 POP JUMP JUMPDEST PUSH0 PUSH1 0x20 DUP3 ADD SWAP1 POP DUP2 DUP2 SUB PUSH0 DUP4 ADD MSTORE PUSH2 0x1C87 DUP2 PUSH2 0x1C4E JUMP JUMPDEST SWAP1 POP SWAP2 SWAP1 POP JUMP JUMPDEST PUSH32 0x496E76616C69642042616E6B204E616D652E0000000000000000000000000000 PUSH0 DUP3 ADD MSTORE POP JUMP JUMPDEST PUSH0 PUSH2 0x1CC2 PUSH1 0x12 DUP4 PUSH2 0x141F JUMP JUMPDEST SWAP2 POP PUSH2 0x1CCD DUP3 PUSH2 0x1C8E JUMP JUMPDEST PUSH1 0x20 DUP3 ADD SWAP1 POP SWAP2 SWAP1 POP JUMP JUMPDEST PUSH0 PUSH1 0x20 DUP3 ADD SWAP1 POP DUP2 DUP2 SUB PUSH0 DUP4 ADD MSTORE PUSH2 0x1CEF DUP2 PUSH2 0x1CB6 JUMP JUMPDEST SWAP1 POP SWAP2 SWAP1 POP JUMP JUMPDEST PUSH32 0x42616E6B20616C7265616479206578697374732E000000000000000000000000 PUSH0 DUP3 ADD MSTORE POP JUMP JUMPDEST PUSH0 PUSH2 0x1D2A PUSH1 0x14 DUP4 PUSH2 0x141F JUMP JUMPDEST SWAP2 POP PUSH2 0x1D35 DUP3 PUSH2 0x1CF6 JUMP JUMPDEST PUSH1 0x20 DUP3 ADD SWAP1 POP SWAP2 SWAP1 POP JUMP JUMPDEST PUSH0 PUSH1 0x20 DUP3 ADD SWAP1 POP DUP2 DUP2 SUB PUSH0 DUP4 ADD MSTORE PUSH2 0x1D57 DUP2 PUSH2 0x1D1E JUMP JUMPDEST SWAP1 POP SWAP2 SWAP1 POP JUMP INVALID LOG2 PUSH5 0x6970667358 0x22 SLT KECCAK256 SWAP2 STOP 0xAE 0xCF 0xD2 0xEC 0xD2 SWAP7 PUSH5 0x62F2160DA1 0xE0 0xF SWAP13 0x2E SWAP13 SUB PREVRANDAO 0xD3 LOG2 0x2E 0xD7 REVERT 0x29 PUSH13 0xEBD958A764736F6C634300081A STOP CALLER "
				},
				"gasEstimates": {
					"creation": {
						"codeDepositCost": "1514400",
						"executionCost": "infinite",
						"totalCost": "infinite"
					},
					"external": {
						"addNewBank(string,address)": "infinite",
						"addNewCustomerRequestForKYC(string)": "infinite",
						"addNewCustomerToBank(string,string)": "infinite",
						"admin()": "2615",
						"allowBankFromAddingNewCustomers(address)": "29388",
						"allowBankFromKYC(address)": "29389",
						"banks(address)": "infinite",
						"blockBankFromAddingNewCustomers(address)": "29411",
						"blockBankFromKYC(address)": "29367",
						"isBankBlockedFromAddingCustomer(address)": "2922",
						"isBankBlockedFromKYC(address)": "2921",
						"viewCustomerData(string)": "infinite"
					}
				},
				"methodIdentifiers": {
					"addNewBank(string,address)": "706312cf",
					"addNewCustomerRequestForKYC(string)": "2114e478",
					"addNewCustomerToBank(string,string)": "284d250a",
					"admin()": "f851a440",
					"allowBankFromAddingNewCustomers(address)": "a1b72d1d",
					"allowBankFromKYC(address)": "2a5e3bb0",
					"banks(address)": "80c3b8c2",
					"blockBankFromAddingNewCustomers(address)": "ad23d42c",
					"blockBankFromKYC(address)": "9de31c97",
					"isBankBlockedFromAddingCustomer(address)": "59cc3187",
					"isBankBlockedFromKYC(address)": "f0b0b930",
					"viewCustomerData(string)": "4a6c2f61"
				}
			},
			"storageLayout": {
				"storage": [
					{
						"astId": 3,
						"contract": "KYC.sol:KYC",
						"label": "admin",
						"offset": 0,
						"slot": "0",
						"type": "t_address"
					},
					{
						"astId": 18,
						"contract": "KYC.sol:KYC",
						"label": "banks",
						"offset": 0,
						"slot": "1",
						"type": "t_mapping(t_address,t_string_storage)"
					},
					{
						"astId": 22,
						"contract": "KYC.sol:KYC",
						"label": "customers",
						"offset": 0,
						"slot": "2",
						"type": "t_mapping(t_string_memory_ptr,t_string_storage)"
					},
					{
						"astId": 26,
						"contract": "KYC.sol:KYC",
						"label": "isKYCDone",
						"offset": 0,
						"slot": "3",
						"type": "t_mapping(t_string_memory_ptr,t_bool)"
					},
					{
						"astId": 30,
						"contract": "KYC.sol:KYC",
						"label": "isBankBlockedFromAddingCustomer",
						"offset": 0,
						"slot": "4",
						"type": "t_mapping(t_address,t_bool)"
					},
					{
						"astId": 34,
						"contract": "KYC.sol:KYC",
						"label": "isBankBlockedFromKYC",
						"offset": 0,
						"slot": "5",
						"type": "t_mapping(t_address,t_bool)"
					}
				],
				"types": {
					"t_address": {
						"encoding": "inplace",
						"label": "address",
						"numberOfBytes": "20"
					},
					"t_bool": {
						"encoding": "inplace",
						"label": "bool",
						"numberOfBytes": "1"
					},
					"t_mapping(t_address,t_bool)": {
						"encoding": "mapping",
						"key": "t_address",
						"label": "mapping(address => bool)",
						"numberOfBytes": "32",
						"value": "t_bool"
					},
					"t_mapping(t_address,t_string_storage)": {
						"encoding": "mapping",
						"key": "t_address",
						"label": "mapping(address => string)",
						"numberOfBytes": "32",
						"value": "t_string_storage"
					},
					"t_mapping(t_string_memory_ptr,t_bool)": {
						"encoding": "mapping",
						"key": "t_string_memory_ptr",
						"label": "mapping(string => bool)",
						"numberOfBytes": "32",
						"value": "t_bool"
					},
					"t_mapping(t_string_memory_ptr,t_string_storage)": {
						"encoding": "mapping",
						"key": "t_string_memory_ptr",
						"label": "mapping(string => string)",
						"numberOfBytes": "32",
						"value": "t_string_storage"
					},
					"t_string_memory_ptr": {
						"encoding": "bytes",
						"label": "string",
						"numberOfBytes": "32"
					},
					"t_string_storage": {
						"encoding": "bytes",
						"label": "string",
						"numberOfBytes": "32"
					}
				}
			},
			"userdoc": {
				"kind": "user",
				"methods": {},
				"version": 1
			}
		}
	}
}